:020000040800F2
:10000000900E002089010008A12F00082D11000882
:100010009D2F0008450200089930000800000000EC
:100020000000000000000000000000008D3000080B
:100030005502000800000000A52F000891300008BC
:10004000A3010008A3010008A3010008A301000800
:10005000A3010008A3010008A3010008A3010008F0
:10006000A3010008A3010008A3010008A3010008E0
:10007000A301000849020008A3010008A301000829
:10008000A3010008A3010008A3010008A3010008C0
:10009000A3010008A3010008A3010008A3010008B0
:1000A000A3010008A3010008A3010008A3010008A0
:1000B000A3010008A3010008A3010008A301000890
:1000C000A3010008A3010008A3010008A301000880
:1000D000A3010008A3010008A3010008A301000870
:1000E000A3010008A3010008A301000800F002F822
:1000F00000F03AF80AA090E8000C82448344AAF188
:100100000107DA4501D100F02FF8AFF2090EBAE885
:100110000F0013F0010F18BFFB1A43F0010318473B
:100120000031000020310000103A24BF78C878C1A7
:10013000FAD8520724BF30C830C144BF04680C60ED
:10014000704700000023002400250026103A28BF35
:1001500078C1FBD8520728BF30C148BF0B60704739
:100160001FB51FBD10B510BD00F031F81146FFF7E7
:10017000F7FF02F093FF00F04FF803B4FFF7F2FF30
:1001800003BC00F057F800000948804709480047C1
:10019000FEE7FEE7FEE7FEE7FEE7FEE7FEE7FEE737
:1001A000FEE7FEE704480549054A064B7047000094
:1001B00095300008ED00000890080020900E002007
:1001C000900A0020900A00207047704770477546DB
:1001D00000F02CF8AE4605006946534620F00700B3
:1001E000854618B020B5FFF7DDFFBDE820404FF091
:1001F00000064FF000074FF000084FF0000BAC4630
:10020000ACE8C009ACE8C009ACE8C009ACE8C0097A
:1002100021F007018D46704710B50446AFF300800A
:100220002046BDE81040FFF7A8BF00000048704717
:100230001000002001491820ABBEFEE72600020096
:1002400070470000FEE7000040F27000C2F20000BC
:1002500000F008B870470000EFF3108072B600BFDE
:10026000FEE7000010B5D0E90FCE0168DCF80030E1
:100270000A6823FA0EF35C072AD512F0040427D08B
:100280000A68920603D40A6822F004020A602F2248
:10029000C4F20202914240F20402C4F202025BDDA7
:1002A0003023C4F20203994272D04423C4F2020301
:1002B000994273D05823C4F20203994240F07A80E5
:1002C0004FF480231360C16A002940F098806FE0EA
:1002D0009C0727D512F0020424D00A68920606D49F
:1002E0000A6822F00A020A60012280F821202F22E7
:1002F000C4F20202914240F20402C4F202023BDD67
:100300003023C4F20203994260D04423C4F20203B2
:1003100099425FD05823C4F20203994260D14FF44E
:10032000003365E01B0743D512F0080208BF10BD7B
:100330000A6822F00E020A60012101FA0EF2CCF8DE
:100340000420816380F82110016B0022002980F8CD
:10035000202054D12CE000BF0823C4F202039942AC
:1003600022D01C23C4F20203994223D140231360FC
:10037000C16A002943D11BE00823C4F20203994259
:100380002CD01C23C4F20203994229D120232FE050
:100390004FF480631360C16A89BB09E04FF4804366
:1003A0001360C16A59BB03E004231360C16A31BB07
:1003B00010BD00BF02F168044FF08063A14208BF86
:1003C0004FF480031360C16AC9B9F1E74FF40073B9
:1003D0000EE000BF4FF400530AE000BF022307E025
:1003E00002F168044FF00073A14208BF4FF40013FC
:1003F0001360816A0022002980F82020D8D0BDE84F
:1004000010400847014600284FF0010008BF704720
:100410002DE9F043D1F800C04FF6F873CBF6FD7329
:100420004CF6CD426344CCF6CC42A3FB02236FF0E2
:10043000030707EA93030027C4F2020701F10C093E
:10044000C1E90F730223D1E9012E99E87002D1F8B6
:100450001C8081F82130DCF8003043F6F077BB4394
:100460001A4342EA0E0222432A43324342EA090275
:1004700042EA0802CCF8002000228A6381F82100B9
:1004800081F820200020BDE8F0437047B0B5044655
:1004900000F024F9054640F20000C2F200000078A6
:1004A000611C18BF044400BF00F018F9401BA042B3
:1004B000FAD3B0BD2DE9F04F82B00E68002E00F0E7
:1004C000038141F20042C4F20102042340F2004ED3
:1004D000904208BF03234FF6FF7CC4F2010E009345
:1004E00000240123C1F2100C4FF0000A4FF0000964
:1004F00049E000BF012704F00C030F229A402BEAC9
:10050000020207FA03F34FEA9A051A4346F8252038
:10051000D1F804B040F20C455FEACB22DEF80820A7
:1005200054BF22EA080242EA0802C4F20105CEF8EA
:1005300008202A685FEA8B2354BF22EA080242EAB5
:1005400008022A605FEA8B33DEF8042054BF22EAF7
:10055000080242EA08025FEACB33CEF80420DEF854
:1005600000204FF0010354BF22EA080242EA0802C9
:10057000CEF800200E680AF1010A36FA0AF204F1F8
:10058000040400F0A18003FA0AF816EA080FF1D07B
:100590004E68664512DC122E56D8DFE806F0350BA1
:1005A0004549555555555555555555555555554D1F
:1005B000510000BFD1F80C9046E000BF4FF6FF722B
:1005C000C1F2210296420FDC0022C1F211029642D2
:1005D0001AD00022C1F21202964215D00022C1F2B6
:1005E0002102964210D02FE00022C1F22202964250
:1005F0000AD00022C1F23102964205D00022C1F297
:100600003202964220D100BF8A684AB1012A14BF43
:10061000C0F81480C0F810804FF0080914E000BF43
:100620004FF0040910E000BFCA6802F108090BE0AE
:100630004FF0000908E000BFCA6802F1040903E0B6
:10064000CA6802F10C0900BF22460646BAF1080F3B
:1006500024BF203A043637680F25954027EA050560
:1006600009FA02F22A433260CA79D2067FF582AFD4
:1006700041F21803C4F202031A68AEF57E7642F026
:1006800001021A601A6802F001020192019A2AF02E
:10069000030256F802B040F60002C4F20102904292
:1006A00010D040F60042C4F2010290423FF422AF63
:1006B00041F20002C4F20102009F904208BF0227EB
:1006C00019E700BF002716E702B0BDE8F08F000071
:1006D000002A08BF090401617047000040F68C0041
:1006E000C2F200000068704740F2000040F68C0142
:1006F000C2F20000C2F2000100780A6810440860EB
:100700007047000080B542F20000C4F202000168A8
:1007100041F010010160032000F086F80F2000F086
:1007200005F800F027F8002080BD000070B540F209
:100730000006C2F2000640F208013278C2F200015F
:100740004FF47A730968B3FBF2F20446B1FBF2F19D
:10075000084600F0D5FC0F2C4FF0010508D838B939
:100760004FF0FF3021460022002500F031F8746080
:10077000284670BD82B041F21800C4F20200016840
:1007800041F001010160016801F00101019101994D
:10079000416841F080514160406800F08050009015
:1007A000009802B070470000002848BF7047C1B2EF
:1007B00000F01F00012202FA00F04EF20012CEF209
:1007C000000242EAD10121F00301086070470000F5
:1007D00010B54EF60C5CCEF2000CDCF80030C3F322
:1007E000022E8EF00704042C28BF0424BEF103035C
:1007F0004FF0FF3E0EFA04F438BF0023A1439940A6
:100800000EFA03F39A43114300F00F0200F1604324
:100810000901043A03F564436244002848BF02F129
:100820000C03197010BD00004EF60C51CEF2000101
:100830000A684FF6FF031A4060F30A2242F0806014
:1008400040F0FD70086070472DE9F04381B000284A
:1008500000F0858042F20008C4F202080446D8F88D
:1008600000000D4600F0070088420CD2D8F80000C6
:1008700020F007002843C8F80000D8F8000000F076
:100880000700A8426BD1206841F204098107C4F235
:10089000020917D5410705D5D9F8001041F4E061E8
:1008A000C9F80010010705D5D9F8001041F46051CE
:1008B000C9F80010D9F80010A26821F0F001114326
:1008C000C9F80010C00741D1D8F8000000F00700B7
:1008D000A8420CD9D8F8000020F007002843C8F837
:1008E0000000D8F8000000F00700A84237D12068C7
:1008F000410707D5D9F80010E26821F4E0611143FF
:10090000C9F80010000708D5D9F80000216920F4C3
:10091000605040EAC100C9F80000D9F8002002F098
:100920000C00082841F20020C0F27A0050D143F2B6
:100930001023C2F38341C0F60003595CD2033BD4B9
:1009400040F60010C0F23D00484341E060680228D4
:100950000AD001282AD159F8041C890308D401209F
:1009600001B0BDE8F08300BF59F8041C8901F6D539
:10097000D9F8001021F003010843C9F80000FFF77F
:10098000ADFE064641F28837D9F80000616800F0F4
:100990000C00B0EB810F97D0FFF7A0FE801BB84290
:1009A000F2D9032001B0BDE8F08300BF59F8041C60
:1009B0008907D4D5DCE700BFD9F8002043F20E2325
:1009C000C2F34042C0F600039A5C4843B0FBF2F029
:1009D000D9F8001043F2FE12C1F30311C0F6000271
:1009E000515C40F2080220FA01F140F20400C2F228
:1009F00000000068C2F200021160FFF797FE0020BD
:100A000001B0BDE8F08300002DE9F04182B000287C
:100A100068D00446007841F20006C007C4F202061E
:100A200025D0706800F00C0004281BD0706800F01E
:100A30000C00082802D17068C00313D46068002835
:100A400000F06881B0F5A02F00F07C81B0F5803F08
:100A500000F07C81306820F480303060306820F411
:100A6000802076E13068800301D56068D0B32078BB
:100A7000800718D5706810F00C0F07D0706800F070
:100A80000C0008286ED17068C0036BD430688007F2
:100A900002D52069012825D13068616920F0F8006D
:100AA00040EAC1003060207800071FD4207840075A
:100AB00032D4E56995B1706800F00C00082840F068
:100AC0008F80012D0ED07068216A00F480328A4236
:100AD00008D1616A00F47010884203D1002002B08E
:100AE000BDE8F081012002B0BDE8F081A0690028D6
:100AF00062D00020C4F242200121C0F88014FFF728
:100B0000EDFD0546706A800700F18C80FFF7E6FD79
:100B1000401B0228F6D92AE1F06910F0805808D16C
:100B2000F06940F08050F061F06900F08050009072
:100B3000009847F20007C4F200073868C00529D4BE
:100B4000386840F480703860FFF7C8FD054600BF84
:100B50003868C0051ED4FFF7C1FD401B6428F7D9D3
:100B600005E100BF2069002840F20000C4F24220E5
:100B700000F0828001210160FFF7B0FD054600BF53
:100B8000306880073FF588AFFFF7A8FD401B0228BB
:100B9000F6D9ECE0E068002800F08080052800F03D
:100BA0009780012800F09880306A20F001003062C0
:100BB000306A20F0040092E00020C4F242200021BC
:100BC000C0F88014FFF78AFD054600BF706A8007F1
:100BD0007FF56CAFFFF782FD401B0228F6D9C6E017
:100BE0000027C4F2422700203866FFF777FD022D68
:100BF00005460BD13068800140F1BE80FFF76EFDE5
:100C0000401B02284FF00300F4D968E730688001E8
:100C10007FF564AFFFF762FD401B02284FF0030031
:100C2000F4D95CE740F20800C2F20000006844F624
:100C3000D351C1F26201A0FB0101480A019000BF3B
:100C400000BF0198411E002801913FF42FAF00BF63
:100C50000198411E002801913FF428AF00BF019880
:100C6000411E002801913FF421AF00BF0198411EB1
:100C700000280191E4D119E700210160FFF72EFD62
:100C8000054600BF306880077FF50DAFFFF726FDF2
:100C9000401B02284FF00300F4D920E7306A20F00F
:100CA00001003062306A20F004003062FFF716FD68
:100CB000054641F2883700BF306A800720D5FFF72C
:100CC0000DFD401BB8424FF00300F5D907E700BF08
:100CD000306A40F004003062306A40F00100306257
:100CE000FFF7FCFC054641F2883700BF306A8007F9
:100CF00006D4FFF7F3FC401BB842F7D937E000BF3A
:100D0000B8F1000F7FF4D5AEF06920F08050F061AB
:100D1000CFE600BF306820F480303060306820F4C7
:100D200080203060FFF7DAFC054600BF30688003A2
:100D30007FF59DAEFFF7D2FC401B64284FF0030007
:100D4000F4D9CCE6306840F480203060306840F45C
:100D500080303060FFF7C2FC054600BF306880037A
:100D60003FF585AEFFF7BAFC401B6428F6D9032097
:100D700002B0BDE8F08100BF206AB0F5803F05D128
:100D80007168A26821F40031114371607168626A70
:100D900021F4741111430843706001203866FFF795
:100DA0009DFC0446306880013FF598AEFFF796FC45
:100DB000001B02284FF00300F4D990E690F8510090
:100DC0007047000070B538B10446406A30B1002069
:100DD000206104F1140007E0012070BD6068B0F5E7
:100DE000827F03D004F11C00002101600026A6626E
:100DF00094F8510020B9204684F8506000F038F88B
:100E0000022084F8510094E8071001F4827103680D
:100E100002F4044223F040030360236911440CF4FC
:100E20000062114403F002026369114403F00102FD
:100E3000A369E569114403F40072114405F0380216
:100E4000256A114405F08002A56A114305F4005299
:100E500011430160042101EA13414160C16921F499
:100E60000061C1610120666584F85100304670BDA3
:100E700070B586B0044640F60000C4F20100216857
:100E800000F5205200269142049601D006B070BDB4
:100E900041F21801C4F202010A6842F480520A6069
:100EA0000A6802F480520192019A0A6842F0040230
:100EB0000A60096801F0040101910199A0210291E1
:100EC000022103910321059102A9FFF7F3FA40F2F1
:100ED00070053020C2F20005C4F202001021802209
:100EE00085E843002846C5E90326C5E90566EE61A5
:100EF000FFF788FA002818BFFFF7AEF9A5646C6207
:100F000006B070BD2DE9F04182B0044690F8500063
:100F1000012803D1022002B0BDE8F08101201D4666
:100F200016460F4684F85000FFF7D8FB94F851108E
:100F300001290DD18046002F4FF0010018BF002E6F
:100F40000ED1002184F8501002B0BDE8F08100BF3E
:100F50000220002184F8501002B0BDE8F08100BFEB
:100F60000320002184F8510061652763A686E68688
:100F7000A163A187E187A0682164B0F5004F2068D4
:100F8000616407D1016821F040010160016841F40A
:100F9000804101600168490603D4016841F04001C5
:100FA00001606168731EE268B1FA81F1B3FA83F3FC
:100FB00049095B09B2F5006F41EA03013CD131B147
:100FC00037F8021BC1602763E08E0138E086E08EAF
:100FD00000286BD0681C0CD11DE000BF216B31F8DC
:100FE000022BC2602163E08E0138E086E08E00288B
:100FF0005CD0206881688907F0D4FFF76FFBA0EB15
:101000000800A842F2D3032071E000BFFFF766FB9F
:10101000E08E00284AD0206881688907F6D5216BC8
:1010200031F8022BC2602163E08E0138E086E08E49
:101030000028F0D13AE000BF39B139780173206B54
:1010400001302063E08E0138E086E08E70B3681CCA
:101050000BD11BE0216B09780173206B01302063F9
:10106000E08E0138E086E08E00B320688168890751
:10107000F0D4FFF733FBA0EB0800A842F3D3032022
:1010800035E000BFFFF72AFBE08E78B12068816869
:101090008907F7D5216B09780173206B0130206334
:1010A000E08E0138E086E08E0028EFD120468021D6
:1010B0002A46434601F078FF28B1606D40F02000D9
:1010C000606520206065A06838B900200190206824
:1010D000C1680191806801900198606D30B1012074
:1010E000002184F8501002B0BDE8F08100200121F9
:1010F00084F85110002184F8501002B0BDE8F0814E
:10110000411E0020B0EB116F1CBF012070474EF252
:101110001002CEF2000251604EF62351CEF20001D1
:10112000F0230B700721906011607047FEE700000C
:101130002DE9F04182B0054640F600442A20984649
:1011400017460E46C4F2010401F0CAFE28BA000C8C
:10115000ADF8000020464FF480610022FFF7B8FA96
:1011600040F2B405C2F200052846FFF727FE012829
:10117000FAD140F2B405C2F20005694628460222BF
:10118000FF23FFF7BFFE20464FF480610122FFF7E7
:101190009FFA38BA000CADF8020020464FF4806187
:1011A0000022FFF795FA00BF2846FFF707FE012847
:1011B000FAD140F2B407C2F200070DF1020138463D
:1011C0000222FF23FFF79EFE20464FF4806101229A
:1011D000FFF77EFA2B2001F083FE06F1140000BA1F
:1011E000000CADF8040020464FF480610022FFF7A8
:1011F0006FFA00BF3846FFF7E1FD0128FAD140F24F
:10120000B406C2F2000601A930460222FF23FFF70E
:1012100079FE20464FF480610122FFF759FA08F168
:10122000140000BA000CADF8060020464FF48061AF
:101230000022FFF74DFA00BF3046FFF7BFFD01283F
:10124000FAD140F2B400C2F200000DF10601022210
:10125000FF23FFF757FE20464FF480610122FFF77E
:1012600037FA2C2001F03CFE02B0BDE8F08100000E
:1012700070B50446050A00200021EF2240F2171342
:101280000026FFF755FF40F20C10C2F2000000BF2D
:10129000811985552836B6F5F06F4C708D70CC707D
:1012A0000D714C718D71CC710D724C728D72CC724E
:1012B0000D734C738D73CC730D744C748D74CC742E
:1012C0000D754C758D75CC750D764C768D76CC760E
:1012D0000D774C778D77CC7781F8205081F82140BD
:1012E00081F8225081F8234081F8245081F825406C
:1012F00081F8265081F82740CAD140F20C14C2F27E
:10130000000420464FF4F06101F01EFE20464FF429
:10131000F06101F019FE20464FF4F06101F014FE77
:1013200020464FF4F06101F00FFE20464FF4F061CB
:1013300001F00AFE20464FF4F06101F005FE204660
:101340004FF4F06101F000FE20464FF4F06101F02F
:10135000FBFD20464FF4F06101F0F6FD20464FF40E
:10136000F06101F0F1FD20464FF4F06101F0ECFD79
:1013700020464FF4F06101F0E7FD20464FF4F061A4
:1013800001F0E2FD20464FF4F06101F0DDFD204662
:101390004FF4F06101F0D8FD20464FF4F06101F008
:1013A000D3FD20464FF4F06101F0CEFD20464FF40E
:1013B000F06101F0C9FD20464FF4F06101F0C4FD79
:1013C00020464FF4F06101F0BFFD20464FF4F0617C
:1013D00001F0BAFD20464FF4F06101F0B5FD204662
:1013E0004FF4F06101F0B0FD20464FF4F06101F0E0
:1013F000ABFD20464FF4F06101F0A6FD20464FF40E
:10140000F06101F0A1FD20464FF4F06101F09CFD78
:1014100020464FF4F06101F097FD20464FF4F06153
:1014200001F092FD20464FF4F06101F08DFD204661
:101430004FF4F06101F088FD20464FF4F06101F0B7
:1014400083FD20464FF4F06101F07EFD20464FF40D
:10145000F06101F079FD20464FF4F06101F074FD78
:1014600020464FF4F06101F06FFD20464FF4F0612B
:1014700001F06AFD20464FF4F06101F065FD204661
:101480004FF4F06101F060FD20464FF4F06101F08F
:101490005BFD20464FF4F06101F056FD20464FF40D
:1014A000F06101F051FD20464FF4F06101F04CFD78
:1014B00020464FF4F06101F047FD20464FF4F06103
:1014C00001F042FD20464FF4F06101F03DFD204661
:1014D0004FF4F06101F038FD20464FF4F06101F067
:1014E00033FD20464FF4F06101F02EFD20464FF40D
:1014F000F06101F029FD20464FF4F06101F024FD78
:1015000020464FF4F06101F01FFD20464FF4F061DA
:1015100001F01AFD20464FF4F06101F015FD204660
:101520004FF4F06101F010FD20464FF4F06101F03E
:101530000BFD20464FF4F06101F006FD20464FF40C
:10154000F06101F001FD20464FF4F06101F0FCFC78
:1015500020464FF4F06101F0F7FC20464FF4F061B3
:1015600001F0F2FC20464FF4F06101F0EDFC204662
:101570004FF4F06101F0E8FC20464FF4F06101F017
:10158000E3FC20464FF4F06101F0DEFC20464FF40E
:10159000F06101F0D9FC20464FF4F06101F0D4FC79
:1015A00020464FF4F06101F0CFFC20464FF4F0618B
:1015B00001F0CAFC20464FF4F061BDE8704001F034
:1015C000C3BC0000F0B585B041F21800C4F20200BF
:1015D000016840F6004441F0040101600168C4F272
:1015E000010401F0040101910199016801AD41F08C
:1015F000200101600168012601F02001019101999B
:101600000168032741F0080101600068294600F0E5
:101610000800019001984FF4806001902046CDE9C8
:1016200002660497FEF746FF20464FF480610122D0
:10163000FFF74EF820462946CDE90166CDE903675C
:10164000FEF738FF204601210122FFF741F840F65E
:101650000200CDE9010620462946CDE90367FEF7E1
:1016600029FF204640F602010122FFF731F805B0BC
:10167000F0BD000070B582B040F60044C4F2010431
:10168000FFF7A0FF204601210122FFF721F80A20E1
:10169000FEF7FCFE204601210022FFF719F80A2080
:1016A000FEF7F4FE204601210122FFF711F8782011
:1016B000FEF7ECFE20464FF400610122FFF708F828
:1016C000FD2001F00DFC06208DF8070020464FF4A8
:1016D00080610022FEF7FCFF40F2B405C2F2000573
:1016E0002846FFF76BFB0128FAD140F2B405C2F29D
:1016F00000050DF1070128460122FF23FFF702FC38
:1017000020464FF480610122FEF7E2FF08208DF8A9
:10171000070020464FF480610022FEF7D9FF00BF8A
:101720002846FFF74BFB0128FAD140F2B405C2F27C
:1017300000050DF1070128460122FF23FFF7E2FB18
:1017400020464FF480610122FEF7C2FF612001F0C4
:10175000C7FB07208DF8070020464FF48061002268
:10176000FEF7B6FF2846FFF729FB0128FAD140F221
:10177000B405C2F200050DF1070128460122FF233E
:10178000FFF7C0FB20464FF480610122FEF7A0FF67
:1017900004208DF8070020464FF480610022FEF7F8
:1017A00097FF00BF2846FFF709FB0128FAD140F256
:1017B000B405C2F200050DF1070128460122FF23FE
:1017C000FFF7A0FB20464FF480610122FEF780FF67
:1017D000622001F085FB00208DF8070020464FF4C1
:1017E00080610022FEF774FF2846FFF7E7FA012820
:1017F000FAD140F2B405C2F200050DF10701284606
:101800000122FF23FFF77EFB20464FF48061012277
:10181000FEF75EFF44208DF8070020464FF48061FC
:101820000022FEF755FF00BF2846FFF7C7FA012840
:10183000FAD140F2B405C2F200050DF107012846C5
:101840000122FF23FFF75EFB20464FF48061012257
:10185000FEF73EFF45208DF8070020464FF48061DB
:101860000022FEF735FF00BF2846FFF7A7FA012840
:10187000FAD140F2B405C2F200050DF10701284685
:101880000122FF23FFF73EFB20464FF48061012237
:10189000FEF71EFF632001F023FB41208DF80700B7
:1018A00020464FF480610022FEF712FF2846FFF722
:1018B00085FA0128FAD140F2B405C2F200050DF113
:1018C000070128460122FF23FFF71CFB20464FF4A7
:1018D00080610122FEF7FCFE07208DF807002046FC
:1018E0004FF480610022FEF7F3FE00BF2846FFF7A9
:1018F00065FA0128FAD140F2B405C2F200050DF1F3
:10190000070128460122FF23FFF7FCFA20464FF487
:1019100080610122FEF7DCFE12208DF807002046D0
:101920004FF480610022FEF7D3FE00BF2846FFF788
:1019300045FA0128FAD140F2B405C2F200050DF1D2
:10194000070128460122FF23FFF7DCFA20464FF467
:1019500080610122FEF7BCFE12208DF807002046B0
:101960004FF480610022FEF7B3FE00BF2846FFF768
:1019700025FA0128FAD140F2B405C2F200050DF1B2
:10198000070128460122FF23FFF7BCFA20464FF447
:1019900080610122FEF79CFE642001F0A1FA37204D
:1019A0008DF8070020464FF480610022FEF790FE7C
:1019B0002846FFF703FA0128FAD140F2B405C2F233
:1019C00000050DF1070128460122FF23FFF79AFACF
:1019D00020464FF480610122FEF77AFE652001F077
:1019E0007FFA09208DF8070020464FF4806100221D
:1019F000FEF76EFE2846FFF7E1F90128FAD140F222
:101A0000B405C2F200050DF1070128460122FF23AB
:101A1000FFF778FA20464FF480610122FEF758FE66
:101A200010208DF8070020464FF480610022FEF759
:101A30004FFE00BF2846FFF7C1F90128FAD140F256
:101A4000B405C2F200050DF1070128460122FF236B
:101A5000FFF758FA20464FF480610122FEF738FE66
:101A600021208DF8070020464FF480610022FEF708
:101A70002FFE00BF2846FFF7A1F90128FAD140F256
:101A8000B405C2F200050DF1070128460122FF232B
:101A9000FFF738FA20464FF480610122FEF718FE66
:101AA000662001F01DFA09208DF8070020464FF44A
:101AB00080610022FEF70CFE2846FFF77FF901281F
:101AC000FAD140F2B405C2F200050DF10701284633
:101AD0000122FF23FFF716FA20464FF4806101220E
:101AE000FEF7F6FD10208DF8070020464FF48061C8
:101AF0000022FEF7EDFD00BF2846FFF75FF9012841
:101B0000FAD140F2B405C2F200050DF107012846F2
:101B10000122FF23FFF7F6F920464FF480610122EE
:101B2000FEF7D6FD21208DF8070020464FF4806196
:101B30000022FEF7CDFD00BF2846FFF73FF9012840
:101B4000FAD140F2B405C2F200050DF107012846B2
:101B50000122FF23FFF7D6F920464FF480610122CE
:101B6000FEF7B6FD672001F0BBF920208DF80700D5
:101B700020464FF480610022FEF7AAFD2846FFF7B9
:101B80001DF90128FAD140F2B405C2F200050DF1A9
:101B9000070128460122FF23FFF7B4F920464FF43E
:101BA00080610122FEF794FD40208DF80700204659
:101BB0004FF480610022FEF78BFD00BF2846FFF73F
:101BC000FDF80128FAD140F2B405C2F200050DF18A
:101BD000070128460122FF23FFF794F920464FF41E
:101BE00080610122FEF774FD682001F079F99020F0
:101BF0008DF8070020464FF480610022FEF768FD53
:101C00002846FFF7DBF80128FAD140F2B405C2F20A
:101C100000050DF1070128460122FF23FFF772F9A5
:101C200020464FF480610122FEF752FD4C208DF8D2
:101C3000070020464FF480610022FEF749FD00BFF7
:101C40002846FFF7BBF80128FAD140F2B405C2F2EA
:101C500000050DF1070128460122FF23FFF752F985
:101C600020464FF480610122FEF732FD7C208DF882
:101C7000070020464FF480610022FEF729FD00BFD7
:101C80002846FFF79BF80128FAD140F2B405C2F2CA
:101C900000050DF1070128460122FF23FFF732F965
:101CA00020464FF480610122FEF712FD66208DF878
:101CB000070020464FF480610022FEF709FD00BFB7
:101CC0002846FFF77BF80128FAD140F2B405C2F2AA
:101CD00000050DF1070128460122FF23FFF712F945
:101CE00020464FF480610122FEF7F2FCB12001F0A2
:101CF000F7F80F208DF8070020464FF4806100228E
:101D0000FEF7E6FC2846FFF759F80128FAD140F221
:101D1000B405C2F200050DF1070128460122FF2398
:101D2000FFF7F0F820464FF480610122FEF7D0FC67
:101D300002208DF8070020464FF480610022FEF754
:101D4000C7FC00BF2846FFF739F80128FAD140F256
:101D5000B405C2F200050DF1070128460122FF2358
:101D60000126FFF7CFF820464FF480610122FEF7ED
:101D7000AFFC20464FF4806100228DF80760FEF72B
:101D8000A7FC00BF2846FFF719F80128FAD140F256
:101D9000B405C2F200050DF1070128460122FF2318
:101DA0000126FFF7AFF820464FF480610122FEF7CD
:101DB0008FFCB42001F094F820464FF4806100229B
:101DC0008DF80760FEF784FC2846FEF7F7FF012830
:101DD000FAD140F2B405C2F200050DF10701284620
:101DE0000122FF23FFF78EF820464FF48061012285
:101DF000FEF76EFCB52001F073F802208DF80700A5
:101E000020464FF480610022FEF762FC2846FEF770
:101E1000D5FF0128FAD140F2B405C2F200050DF158
:101E2000070128460122FF23FFF76CF820464FF4F4
:101E300080610122FEF74CFC02208DF8070020464D
:101E40004FF480610022FEF743FC00BF2846FEF7F6
:101E5000B5FF0128FAD140F2B405C2F200050DF138
:101E6000070128460122FF23FFF74CF820464FF4D4
:101E700080610122FEF72CFC0A208DF80700204625
:101E80004FF480610022FEF723FC00BF2846FEF7D6
:101E900095FF0128FAD140F2B405C2F200050DF118
:101EA000070128460122FF23FFF72CF820464FF4B4
:101EB00080610122FEF70CFC14208DF807002046FB
:101EC0004FF480610022FEF703FC00BF2846FEF7B6
:101ED00075FF0128FAD140F2B405C2F200050DF1F8
:101EE000070128460122FF23FFF70CF820464FF494
:101EF00080610122FEF7ECFBB62000F0F1FF042028
:101F00008DF8070020464FF480610022FEF7E0FBC9
:101F10002846FEF753FF0128FAD140F2B405C2F279
:101F200000050DF1070128460122FF230126FEF7D7
:101F3000E9FF20464FF480610122FEF7C9FB2046ED
:101F40004FF4806100228DF80760FEF7C1FB00BFEF
:101F50002846FEF733FF0128FAD140F2B405C2F259
:101F600000050DF1070128460122FF23FEF7CAFFF5
:101F700020464FF480610122FEF7AAFB9F208DF8D6
:101F8000070020464FF480610022FEF7A1FB00BF4E
:101F90002846FEF713FF0128FAD140F2B405C2F239
:101FA00000050DF1070128460122FF23FEF7AAFFD5
:101FB00020464FF480610122FEF78AFB00208DF855
:101FC000070020464FF480610022FEF781FB00BF2E
:101FD0002846FEF7F3FE0128FAD140F2B405C2F21A
:101FE00000050DF1070128460122FF23FEF78AFFB5
:101FF00020464FF480610122FEF76AFB02208DF833
:10200000070020464FF480610022FEF761FB00BF0D
:102010002846FEF7D3FE0128FAD140F2B405C2F2F9
:1020200000050DF1070128460122FF23FEF76AFF94
:1020300020464FF480610122FEF74AFBDF2000F0CA
:102040004FFF11208DF8070020464FF480610022D9
:10205000FEF73EFB2846FEF7B1FE0128FAD140F21A
:10206000B405C2F200050DF1070128460122FF2345
:10207000FEF748FF20464FF480610122FEF728FB5F
:10208000E22000F02DFF13208DF8070020464FF4CA
:1020900080610022FEF71CFB2846FEF78FFE012818
:1020A000FAD140F2B405C2F200050DF1070128464D
:1020B0000122FF23FEF726FF20464FF48061012214
:1020C000FEF706FB00208DF8070020464FF48061E4
:1020D0000022FEF7FDFA00BF2846FEF76FFE01283A
:1020E000FAD140F2B405C2F200050DF1070128460D
:1020F0000122FF23FEF706FF20464FF480610122F4
:10210000FEF7E6FA00208DF8070020464FF48061C4
:102110000022FEF7DDFA00BF2846FEF74FFE012839
:10212000FAD140F2B405C2F200050DF107012846CC
:102130000122FF23FEF7E6FE20464FF480610122D4
:10214000FEF7C6FA30208DF8070020464FF4806174
:102150000022FEF7BDFA00BF2846FEF72FFE012839
:10216000FAD140F2B405C2F200050DF1070128468C
:102170000122FF23FEF7C6FE20464FF480610122B4
:10218000FEF7A6FA33208DF8070020464FF4806151
:102190000022FEF79DFA00BF2846FEF70FFE012839
:1021A000FAD140F2B405C2F200050DF1070128464C
:1021B0000122FF23FEF7A6FE20464FF48061012294
:1021C000FEF786FA3F208DF8070020464FF4806125
:1021D0000022FEF77DFA00BF2846FEF7EFFD01283A
:1021E000FAD140F2B405C2F200050DF1070128460C
:1021F0000122FF23FEF786FE20464FF48061012274
:10220000FEF766FAE52000F06BFE3F208DF8070030
:1022100020464FF480610022FEF75AFA2846FEF766
:10222000CDFD0128FAD140F2B405C2F200050DF14E
:10223000070128460122FF23FEF764FE20464FF4E3
:1022400080610122FEF744FA33208DF80700204612
:102250004FF480610022FEF73BFA00BF2846FEF7EC
:10226000ADFD0128FAD140F2B405C2F200050DF12E
:10227000070128460122FF23FEF744FE20464FF4C3
:1022800080610122FEF724FA30208DF807002046F5
:102290004FF480610022FEF71BFA00BF2846FEF7CC
:1022A0008DFD0128FAD140F2B405C2F200050DF10E
:1022B000070128460122FF23FEF724FE20464FF4A3
:1022C00080610122FEF704FA00208DF80700204605
:1022D0004FF480610022FEF7FBF900BF2846FEF7AD
:1022E0006DFD0128FAD140F2B405C2F200050DF1EE
:1022F000070128460122FF23FEF704FE20464FF483
:1023000080610122FEF7E4F900208DF807002046E5
:102310004FF480610022FEF7DBF900BF2846FEF78C
:102320004DFD0128FAD140F2B405C2F200050DF1CD
:10233000070128460122FF23FEF7E4FD20464FF463
:1023400080610122FEF7C4F913208DF807002046B2
:102350004FF480610022FEF7BBF900BF2846FEF76C
:102360002DFD0128FAD140F2B405C2F200050DF1AD
:10237000070128460122FF23FEF7C4FD20464FF443
:1023800080610122FEF7A4F9E12000F0A9FD002000
:102390008DF8070020464FF480610022FEF798F97F
:1023A0002846FEF70BFD0128FAD140F2B405C2F22F
:1023B00000050DF1070128460122FF23FEF7A2FDCB
:1023C00020464FF480610122FEF782F957208DF8F4
:1023D000070020464FF480610022FEF779F900BF24
:1023E0002846FEF7EBFC0128FAD140F2B405C2F210
:1023F00000050DF1070128460122FF23FEF782FDAB
:1024000020464FF480610122FEF762F9E42000F0DB
:1024100067FD58208DF8070020464FF480610022A8
:10242000FEF756F92846FEF7C9FC0128FAD140F21A
:10243000B405C2F200050DF1070128460122FF2371
:10244000FEF760FD20464FF480610122FEF740F95F
:1024500000208DF8070020464FF480610022FEF72F
:1024600037F900BF2846FEF7A9FC0128FAD140F24F
:10247000B405C2F200050DF1070128460122FF2331
:102480000126FEF73FFD20464FF480610122FEF752
:102490001FF9E02000F024FD20464FF48061002267
:1024A0008DF80760FEF714F92846FEF787FC01282F
:1024B000FAD140F2B405C2F200050DF10701284639
:1024C0000122FF23FEF71EFD20464FF4806101220A
:1024D000FEF7FEF803208DF8070020464FF48061D8
:1024E0000022FEF7F5F800BF2846FEF767FC01283A
:1024F000FAD140F2B405C2F200050DF107012846F9
:102500000122FF23FEF7FEFC20464FF480610122EA
:10251000FEF7DEF80D208DF8070020464FF48061AD
:102520000022FEF7D5F800BF2846FEF747FC012839
:10253000FAD140F2B405C2F200050DF107012846B8
:102540000122FF23FEF7DEFC20464FF480610122CA
:10255000FEF7BEF80E208DF8070020464FF480618C
:102560000022FEF7B5F800BF2846FEF727FC012839
:10257000FAD140F2B405C2F200050DF10701284678
:102580000122FF23FEF7BEFC20464FF480610122AA
:10259000FEF79EF80E208DF8070020464FF480616C
:1025A0000022FEF795F800BF2846FEF707FC012839
:1025B000FAD140F2B405C2F200050DF10701284638
:1025C0000122FF23FEF79EFC20464FF4806101228A
:1025D000FEF77EF80C208DF8070020464FF480614E
:1025E0000022FEF775F800BF2846FEF7E7FB01283A
:1025F000FAD140F2B405C2F200050DF107012846F8
:102600000122FF23FEF77EFC20464FF48061012269
:10261000FEF75EF815208DF8070020464FF4806124
:102620000022FEF755F800BF2846FEF7C7FB012839
:10263000FAD140F2B405C2F200050DF107012846B7
:102640000122FF23FEF75EFC20464FF48061012249
:10265000FEF73EF819208DF8070020464FF4806100
:102660000022FEF735F800BF2846FEF7A7FB012839
:10267000FAD140F2B405C2F200050DF10701284677
:102680000122FF23FEF73EFC20464FF48061012229
:10269000FEF71EF8E32000F023FC1A208DF8070057
:1026A00020464FF480610022FEF712F82846FEF71C
:1026B00085FB0128FAD140F2B405C2F200050DF104
:1026C000070128460122FF23FEF71CFC20464FF499
:1026D00080610122FDF7FCFF16208DF807002046DF
:1026E0004FF480610022FDF7F3FF00BF2846FEF79C
:1026F00065FB0128FAD140F2B405C2F200050DF1E4
:10270000070128460122FF23FEF7FCFB20464FF479
:1027100080610122FDF7DCFF0C208DF807002046C8
:102720004FF480610022FDF7D3FF00BF2846FEF77B
:1027300045FB0128FAD140F2B405C2F200050DF1C3
:10274000070128460122FF23FEF7DCFB20464FF459
:1027500080610122FDF7BCFF0F208DF807002046A5
:102760004FF480610022FDF7B3FF00BF2846FEF75B
:1027700025FB0128FAD140F2B405C2F200050DF1A3
:10278000070128460122FF23FEF7BCFB20464FF439
:1027900080610122FDF79CFF0E208DF80700204686
:1027A0004FF480610022FDF793FF00BF2846FEF73B
:1027B00005FB0128FAD140F2B405C2F200050DF183
:1027C000070128460122FF23FEF79CFB20464FF419
:1027D00080610122FDF77CFF0D208DF80700204667
:1027E0004FF480610022FDF773FF00BF2846FEF71B
:1027F000E5FA0128FAD140F2B405C2F200050DF164
:10280000070128460122FF23FEF77CFB20464FF4F8
:1028100080610122FDF75CFF02208DF80700204651
:102820004FF480610022FDF753FF00BF2846FEF7FA
:10283000C5FA0128FAD140F2B405C2F200050DF143
:10284000070128460122FF230126FEF75BFB2046F5
:102850004FF480610122FDF73BFF20464FF4806179
:1028600000228DF80760FDF733FF00BF2846FEF712
:10287000A5FA0128FAD140F2B405C2F200050DF123
:10288000070128460122FF23FEF73CFB20464FF4B8
:1028900080610122FDF71CFFE62000F021FB0020F3
:1028A0008DF8070020464FF480610022FDF710FFED
:1028B0002846FEF783FA0128FAD140F2B405C2F2A5
:1028C00000050DF1070128460122FF23FF26FEF730
:1028D00019FB20464FF480610122FDF7F9FE2046E6
:1028E0004FF4806100228DF80760FDF7F1FE00BF14
:1028F0002846FEF763FA0128FAD140F2B405C2F285
:1029000000050DF1070128460122FF230126FEF7ED
:10291000F9FA20464FF480610122FDF7D9FEE72045
:1029200000F0DEFA20464FF4806100228DF8076047
:10293000FDF7CEFE2846FEF741FA0128FAD140F213
:10294000B405C2F200050DF1070128460122FF235C
:10295000FEF7D8FA20464FF480610122FDF7B8FE59
:1029600004208DF8070020464FF480610022FDF717
:10297000AFFE00BF2846FEF721FA0128FAD140F247
:10298000B405C2F200050DF1070128460122FF231C
:10299000FEF7B8FA20464FF480610122FDF798FE59
:1029A00003208DF8070020464FF480610022FDF7D8
:1029B0008FFE00BF2846FEF701FA0128FAD140F247
:1029C000B405C2F200050DF1070128460122FF23DC
:1029D000FEF798FA20464FF480610122FDF778FE59
:1029E00003208DF8070020464FF480610022FDF798
:1029F0006FFE00BF2846FEF7E1F90128FAD140F248
:102A0000B405C2F200050DF1070128460122FF239B
:102A1000FEF778FA20464FF480610122FDF758FE58
:102A200000208DF8070020464FF480610022FDF75A
:102A30004FFE00BF2846FEF7C1F90128FAD140F247
:102A4000B405C2F200050DF1070128460122FF235B
:102A5000FEF758FA20464FF480610122FDF738FE58
:102A600012208DF8070020464FF480610022FDF708
:102A70002FFE00BF2846FEF7A1F90128FAD140F247
:102A8000B405C2F200050DF1070128460122FF231B
:102A9000FEF738FA20464FF480610122FDF718FE58
:102AA000E82000F01DFA00208DF8070020464FF4C2
:102AB00080610022FDF70CFE2846FEF77FF9012811
:102AC000FAD140F2B405C2F200050DF10701284623
:102AD0000122FF23FEF716FA20464FF480610122FF
:102AE000FDF7F6FD70208DF8070020464FF4806159
:102AF0000022FDF7EDFD00BF2846FEF75FF9012833
:102B0000FAD140F2B405C2F200050DF107012846E2
:102B10000122FF23FEF7F6F920464FF480610122DF
:102B2000FDF7D6FD00208DF8070020464FF48061A8
:102B30000022FDF7CDFD00BF2846FEF73FF9012832
:102B4000FAD140F2B405C2F200050DF107012846A2
:102B50000122FF23FEF7D6F920464FF480610122BF
:102B6000FDF7B6FDEC2000F0BBF952208DF8070010
:102B700020464FF480610022FDF7AAFD2846FEF7AB
:102B80001DF90128FAD140F2B405C2F200050DF199
:102B9000070128460122FF230126FEF7B3F920464C
:102BA0004FF480610122FDF793FDF12000F098F9C8
:102BB00020464FF4806100228DF80760FDF788FD04
:102BC0002846FEF7FBF80128FAD140F2B405C2F21C
:102BD00000050DF1070128460122FF230126FEF71B
:102BE00091F920464FF480610122FDF771FD2046E6
:102BF0004FF4806100228DF80760FDF769FD00BF8A
:102C00002846FEF7DBF80128FAD140F2B405C2F2FB
:102C100000050DF1070128460122FF23FEF772F996
:102C200020464FF480610122FDF752FD02208DF80D
:102C3000070020464FF480610022FDF749FD00BFE8
:102C40002846FEF7BBF80128FAD140F2B405C2F2DB
:102C500000050DF1070128460122FF23FEF752F976
:102C600020464FF480610122FDF732FDF62000F08E
:102C700037F909208DF8070020464FF480610022C3
:102C8000FDF726FD2846FEF799F80128FAD140F213
:102C9000B405C2F200050DF1070128460122FF2309
:102CA000FEF730F920464FF480610122FDF710FD58
:102CB00010208DF8070020464FF480610022FDF7B8
:102CC00007FD00BF2846FEF779F80128FAD140F247
:102CD000B405C2F200050DF1070128460122FF23C9
:102CE000FEF710F920464FF480610122FDF7F0FC59
:102CF00000208DF8070020464FF480610022FDF788
:102D0000E7FC00BF2846FEF759F80128FAD140F247
:102D1000B405C2F200050DF1070128460122FF2388
:102D2000FEF7F0F820464FF480610122FDF7D0FC59
:102D300000208DF8070020464FF480610022FDF747
:102D4000C7FC00BF2846FEF739F80128FAD140F247
:102D5000B405C2F200050DF1070128460122FF2348
:102D6000FEF7D0F820464FF480610122FDF7B0FC59
:102D7000FD2000F0B5F8FA208DF8070020464FF44A
:102D800080610022FDF7A4FC2846FEF717F8012811
:102D9000FAD140F2B405C2F200050DF10701284650
:102DA0000122FF23FEF7AEF820464FF48061012296
:102DB000FDF78EFCFC208DF8070020464FF4806163
:102DC0000022FDF785FC00BF2846FDF7F7FF01282C
:102DD000FAD140F2B405C2F200050DF10701284610
:102DE0000122FF23FEF78EF820464FF48061012276
:102DF000FDF76EFC3A2000F073F805208DF807000F
:102E000020464FF480610022FDF762FC2846FDF762
:102E1000D5FF0128FAD140F2B405C2F200050DF148
:102E2000070128460122FF23FEF76CF820464FF4E5
:102E300080610122FDF74CFC352000F051F80020A4
:102E40008DF8070020464FF480610022FDF740FC1A
:102E50002846FDF7B3FF0128FAD140F2B405C2F2CB
:102E600000050DF1070128460122FF23FEF74AF86D
:102E700020464FF480610122FDF72AFC362000F045
:102E80002FF808208DF8070020464FF480610022BB
:102E9000FDF71EFC2846FDF791FF0128FAD140F20C
:102EA000B400C2F200000DF107010122FF23FEF77A
:102EB00029F820464FF480610122FDF709FC21200A
:102EC00000F00EF8112000F00BF8C820FDF7DEFA34
:102ED000292000F005F80A20FDF7D8FA02B070BDED
:102EE000B0B582B040F60044C4F201048DF807008A
:102EF000204602210022FDF7EBFB20464FF48061C3
:102F00000022FDF7E5FB40F2B405C2F2000500BF68
:102F10002846FDF753FF0128FAD140F2B400C2F26F
:102F200000000DF107010122FF23FDF7EBFF204612
:102F30004FF480610122FDF7CBFB204602210122E4
:102F4000FDF7C6FB02B0B0BDF0B581B040F600445D
:102F5000C4F201040E46054620464FF4806100226B
:102F6000FDF7B6FB40F2B407C2F200073846FDF7A2
:102F700025FF0128FAD140F2B400B2B2C2F200003B
:102F80002946FF23FDF7BEFF20464FF48061012252
:102F900001B0BDE8F040FDF79BBB0000FEE700007C
:102FA000FEE70000704700002DE9F04182B01E46A8
:102FB00090460D460446FDF791FB301A00EB0807DA
:102FC000FDF78CFB40F20801C2F200010968C1F371
:102FD000CB317943019121688A682A40AA4227D1DE
:102FE000064618F101001FD0FDF778FB801BB842A0
:102FF00022D2019801990028A1F1010101912168D3
:10300000896808BF074601EA0500A842ECD00FE036
:1030100088682840A8420BD188682840A84207D178
:1030200088682840A84203D188682840A842EFD089
:10303000002002B0BDE8F081D4E900014268B1F59A
:10304000827F22F0E00242600AD1A168B1F5004F10
:1030500002D0B1F5806F03D1016821F04001016019
:10306000A16AB1F5005F07D1016821F40051016048
:10307000016841F400510160012084F851000020F2
:1030800084F85000032002B0BDE8F08170470000D2
:10309000FDF72ABB70470000FEE7000090B0FDF787
:1030A00031FB00240120CDE90B44CDE90944069011
:1030B0000A904FF4E0104FF4803102250F9006A8DB
:1030C000CDE90714CDE90D51FDF79EFC20B1EFF3DA
:1030D000108072B6FEE700BF0F20CDE901054FF466
:1030E0008060CDE9040401A802210394FDF7ACFB44
:1030F00020B1EFF3108072B6FEE700BF41F2180076
:10310000C4F202000168002241F020010160016860
:10311000002401F0200106910699016841F00401A4
:103120000160016801F004010691069950F8041C41
:1031300041F0010140F8041C50F8040C002100F09B
:103140000100069006980D20FDF742FB0D20FDF7CB
:103150002BFB40F2B40043F20001C2F20000C4F2C3
:1031600001014FF48272012580E8160000F114017C
:1031700002234FF4007C4FF0080E81E820500A2112
:10318000C0E90343C0E90844C0E90A41FDF71AFE5B
:1031900020B1EFF3108072B6FEE700BFFEF76AFAC7
:1031A0004FF6FF70FEF764F84FF47A70FDF76EF992
:1031B0001F20FEF75DF84FF47A70FDF767F94FF4C2
:1031C0007840FEF755F84FF47A70FDF75FF94FF449
:1031D000FC60FEF74DF84FF47A70FDF757F94FF6A3
:1031E000E070FEF745F84FF47A70FDF74FF90020D4
:1031F000FEF73EF84FF47A70FDF748F9D0E700008B
:103200000000000000000102030406070809010293
:1032100002030405060708090A0B0C0D0E0F101017
:1032200040320008000000201000000028010008C3
:103230005032000810000020800E000044010008F9
:1032400001000000100000000024F4000000000055
:04000005080000ED02
:00000001FF
