:020000040800F2
:10000000103400208901000805260008A11400080A
:100010000126000845020008B5280008000000007D
:100020000000000000000000000000009927000808
:100030005502000800000000092600089D2700085E
:10004000A3010008A3010008A3010008A301000800
:10005000A3010008A3010008A3010008A3010008F0
:10006000A3010008A3010008A3010008A3010008E0
:10007000A301000849020008A3010008A301000829
:10008000A3010008A3010008A3010008A3010008C0
:10009000A3010008A3010008A3010008A3010008B0
:1000A000A3010008A3010008A3010008A3010008A0
:1000B000A3010008A3010008A3010008A301000890
:1000C000A3010008A3010008A3010008A301000880
:1000D000A3010008A3010008A3010008A301000870
:1000E000A3010008A3010008A301000800F002F822
:1000F00000F03AF80AA090E8000C82448344AAF188
:100100000107DA4501D100F02FF8AFF2090EBAE885
:100110000F0013F0010F18BFFB1A43F0010318473B
:100120003429000054290000103A24BF78C878C14F
:10013000FAD8520724BF30C830C144BF04680C60ED
:10014000704700000023002400250026103A28BF35
:1001500078C1FBD8520728BF30C148BF0B60704739
:100160001FB51FBD10B510BD00F031F81146FFF7E7
:10017000F7FF02F0A1FB00F04FF803B4FFF7F2FF26
:1001800003BC00F057F800000948804709480047C1
:10019000FEE7FEE7FEE7FEE7FEE7FEE7FEE7FEE737
:1001A000FEE7FEE704480549054A064B7047000094
:1001B000A1270008ED000008102E002010340020B8
:1001C000103000201030002070477047704775468F
:1001D00000F02CF8AE4605006946534620F00700B3
:1001E000854618B020B5FFF7DDFFBDE820404FF091
:1001F00000064FF000074FF000084FF0000BAC4630
:10020000ACE8C009ACE8C009ACE8C009ACE8C0097A
:1002100021F007018D46704710B50446AFF300800A
:100220002046BDE81040FFF7A8BF00000048704717
:100230001000002001491820ABBEFEE72600020096
:1002400070470000FEE7000042F2F050C2F20000EA
:1002500000F03EB870470000EFF3108072B600BFA8
:10026000FEE700004FF0010160B302684FF6F8733B
:10027000CBF6FD7302EB030C4CF6CD43CCF6CC432E
:10028000ACFB033C136823F00103136000231360ED
:1002900053609360D3606FF0030202EA9C0240F265
:1002A000000CC4F2020C9140C0E90FC2CCF804105B
:1002B0000021C0E90A33C0E90C33836380F82130A0
:1002C00080F820300846704790F821007047000001
:1002D00010B5D0E90FCE0168DCF800300A6823FAC7
:1002E0000EF35C072AD512F0040427D00A689206A0
:1002F00003D40A6822F004020A602F22C4F2020228
:10030000914240F20402C4F202025BDD3023C4F2E7
:100310000203994272D04423C4F20203994273D07B
:100320005823C4F20203994240F07A804FF48023AC
:100330001360C16A002940F098806FE09C0727D5C0
:1003400012F0020424D00A68920606D40A6822F049
:100350000A020A60012280F821202F22C4F2020240
:10036000914240F20402C4F202023BDD3023C4F2A7
:100370000203994260D04423C4F2020399425FD041
:100380005823C4F20203994260D14FF4003365E070
:100390001B0743D512F0080208BF10BD0A6822F0FF
:1003A0000E020A60012101FA0EF2CCF804208163EA
:1003B00080F82110016B0022002980F8202054D100
:1003C0002CE000BF0823C4F20203994222D01C2370
:1003D000C4F20203994223D140231360C16A002969
:1003E00043D11BE00823C4F2020399422CD01C2302
:1003F000C4F20203994229D120232FE04FF48063F5
:100400001360C16A89BB09E04FF480431360C16A7D
:1004100059BB03E004231360C16A31BB10BD00BFA8
:1004200002F168044FF08063A14208BF4FF48003DB
:100430001360C16AC9B9F1E74FF400730EE000BF61
:100440004FF400530AE000BF022307E002F1680402
:100450004FF00073A14208BF4FF400131360816A8C
:100460000022002980F82020D8D0BDE8104008479D
:10047000014600284FF0010008BF70472DE9F04306
:10048000D1F800C04FF6F873CBF6FD734CF6CD42B1
:100490006344CCF6CC42A3FB02236FF0030707EAC8
:1004A00093030027C4F2020701F10C09C1E90F739D
:1004B0000223D1E9012E99E87002D1F81C8081F85D
:1004C0002130DCF8003043F6F077BB431A4342EAB0
:1004D0000E0222432A43324342EA090242EA080258
:1004E000CCF8002000228A6381F8210081F82020C6
:1004F0000020BDE8F0437047F0B590F820C0BCF193
:10050000010F32D04FF0010E80F820E090F821C0AA
:10051000BCF1010F26D14FF0020C80F821C04FF042
:10052000000CC0F838C0D0E900C4C56AC66BDCF85E
:100530000070102C27F00107CCF80070006C0EFA48
:1005400000F070600846CCF8043004BF10460A463C
:10055000CCF80800CCF80C20DCF8000045B140F0E5
:100560000E000DE0002180F820100220F0BD00BF39
:1005700020F00400CCF80000DCF8000040F00A0095
:10058000CCF80000DCF8000040F00100CCF80000DE
:100590000020F0BDB0B5044600F0AEF9054640F2CB
:1005A0000000C2F200000078611C18BF044400BFC4
:1005B00000F0A2F9401BA042FAD3B0BD2DE9F04FE4
:1005C00081B0002900F0808040F2004E41F20042EC
:1005D000C4F2010EC4F2010290424FF004024FF047
:1005E00000046FF01F05AEF57E774FF00F0808BFCF
:1005F0000322009219E000BF0246BBF5807F24BFB2
:10060000AA460432136808FA0AF6B343042606FA27
:100610000AF633431360C26802EA0C02C260013476
:1006200031FA04F205F104054ED00122A24012EA8B
:10063000010BF4D024F00302BE5840F60002C4F2CD
:100640000102904210D040F60042C4F201029042F2
:1006500008D041F20002C4F201029042009A08BFA1
:10066000022202E0012200E0002205F1200A0AF045
:100670000C0308FA03F906EA09069A4096426FEA63
:100680000B0CB9D1DEF8002040F20C4302EA0C0258
:10069000CEF80020DEF80420C4F2010302EA0C02C6
:1006A000CEF804201A6802EA0C021A60DEF808206C
:1006B000A30802EA0C02CEF8082057F8232022EA09
:1006C000090247F8232097E701B0BDE8F08F00004A
:1006D0002DE9F04F82B00E68002E00F0038141F248
:1006E0000042C4F20102042340F2004E904208BFCF
:1006F00003234FF6FF7CC4F2010E00930024012374
:10070000C1F2100C4FF0000A4FF0000949E000BFA1
:10071000012704F00C030F229A402BEA020207FA89
:1007200003F34FEA9A051A4346F82520D1F804B09E
:1007300040F20C455FEACB22DEF8082054BF22EAE3
:10074000080242EA0802C4F20105CEF808202A682D
:100750005FEA8B2354BF22EA080242EA08022A60B9
:100760005FEA8B33DEF8042054BF22EA080242EA33
:1007700008025FEACB33CEF80420DEF800204FF009
:10078000010354BF22EA080242EA0802CEF8002020
:100790000E680AF1010A36FA0AF204F1040400F0C4
:1007A000A18003FA0AF816EA080FF1D04E686645F0
:1007B00012DC122E56D8DFE806F0350B45495555A8
:1007C00055555555555555555555554D510000BF25
:1007D000D1F80C9046E000BF4FF6FF72C1F2210243
:1007E00096420FDC0022C1F2110296421AD000227A
:1007F000C1F21202964215D00022C1F221029642A5
:1008000010D02FE00022C1F2220296420AD000222C
:10081000C1F23102964205D00022C1F23202964264
:1008200020D100BF8A684AB1012A14BFC0F81480E1
:10083000C0F810804FF0080914E000BF4FF0040921
:1008400010E000BFCA6802F108090BE04FF0000990
:1008500008E000BFCA6802F1040903E0CA6802F1B7
:100860000C0900BF22460646BAF1080F24BF203A01
:10087000043637680F25954027EA050509FA02F284
:100880002A433260CA79D2067FF582AF41F218035B
:10089000C4F202031A68AEF57E7642F001021A60D5
:1008A0001A6802F001020192019A2AF0030256F836
:1008B00002B040F60002C4F20102904210D040F6AD
:1008C0000042C4F2010290423FF422AF41F2000222
:1008D000C4F20102009F904208BF022719E700BF3F
:1008E000002716E702B0BDE8F08F0000002A08BF1D
:1008F000090401617047000042F60C60C2F200007A
:100900000068704740F2000042F60C61C2F200003D
:10091000C2F2000100780A681044086070470000C5
:1009200080B542F20000C4F20200016841F01001FB
:100930000160032000F086F80F2000F005F800F0B9
:1009400027F8002080BD000070B540F20006C2F21A
:10095000000640F208013278C2F200014FF47A73C7
:100960000968B3FBF2F20446B1FBF2F1084600F06D
:1009700081FD0F2C4FF0010508D838B94FF0FF303A
:1009800021460022002500F031F87460284670BD31
:1009900082B041F21800C4F20200016841F0010186
:1009A0000160016801F0010101910199416841F084
:1009B00080514160406800F080500090009802B083
:1009C00070470000002848BF7047C1B200F01F0008
:1009D000012202FA00F04EF20012CEF2000242EAC8
:1009E000D10121F0030108607047000010B54EF6F8
:1009F0000C5CCEF2000CDCF80030C3F3022E8EF05B
:100A00000704042C28BF0424BEF103034FF0FF3E6B
:100A10000EFA04F438BF0023A14399400EFA03F301
:100A20009A43114300F00F0200F160430901043AB8
:100A300003F564436244002848BF02F10C031970B7
:100A400010BD00004EF60C51CEF200010A684FF6C0
:100A5000FF031A4060F30A2242F0806040F0FD700C
:100A6000086070472DE9F04381B0002800F08580D0
:100A700042F20008C4F202080446D8F800000D460D
:100A800000F0070088420CD2D8F8000020F00700E0
:100A90002843C8F80000D8F8000000F00700A8427A
:100AA0006BD1206841F204098107C4F2020917D50D
:100AB000410705D5D9F8001041F4E061C9F80010EC
:100AC000010705D5D9F8001041F46051C9F80010AC
:100AD000D9F80010A26821F0F0011143C9F8001004
:100AE000C00741D1D8F8000000F00700A8420CD997
:100AF000D8F8000020F007002843C8F80000D8F814
:100B0000000000F00700A84237D12068410707D550
:100B1000D9F80010E26821F4E0611143C9F800102F
:100B2000000708D5D9F80000216920F4605040EA98
:100B3000C100C9F80000D9F8002002F00C00082814
:100B400041F20020C0F27A0050D142F64423C2F3B1
:100B50008341C0F60003595CD2033BD440F6001039
:100B6000C0F23D00484341E0606802280AD00128F5
:100B70002AD159F8041C890308D4012001B0BDE82A
:100B8000F08300BF59F8041C8901F6D5D9F800108C
:100B900021F003010843C9F80000FFF7ADFE064647
:100BA00041F28837D9F80000616800F00C00B0EB22
:100BB000810F97D0FFF7A0FE801BB842F2D9032027
:100BC00001B0BDE8F08300BF59F8041C8907D4D5F3
:100BD000DCE700BFD9F8002042F64223C2F34042CE
:100BE000C0F600039A5C4843B0FBF2F0D9F800105D
:100BF00042F63222C1F30311C0F60002515C40F20A
:100C0000080220FA01F140F20400C2F2000000687C
:100C1000C2F200021160FFF797FE002001B0BDE8AC
:100C2000F08300002DE9F04182B0002868D004462E
:100C3000007841F20006C007C4F2020625D07068B1
:100C400000F00C0004281BD0706800F00C0008288D
:100C500002D17068C00313D46068002800F0688176
:100C6000B0F5A02F00F07C81B0F5803F00F07C81D2
:100C7000306820F480303060306820F4802076E1E5
:100C80003068800301D56068D0B32078800718D51C
:100C9000706810F00C0F07D0706800F00C00082886
:100CA0006ED17068C0036BD43068800702D52069AC
:100CB000012825D13068616920F0F80040EAC100C0
:100CC0003060207800071FD42078400732D4E569CF
:100CD00095B1706800F00C00082840F08F80012D5D
:100CE0000ED07068216A00F480328A4208D1616AAD
:100CF00000F47010884203D1002002B0BDE8F081FA
:100D0000012002B0BDE8F081A069002862D0002077
:100D1000C4F242200121C0F88014FFF7EDFD054622
:100D2000706A800700F18C80FFF7E6FD401B022807
:100D3000F6D92AE1F06910F0805808D1F06940F046
:100D40008050F061F06900F080500090009847F208
:100D50000007C4F200073868C00529D4386840F499
:100D600080703860FFF7C8FD054600BF3868C005D1
:100D70001ED4FFF7C1FD401B6428F7D905E100BF71
:100D80002069002840F20000C4F2422000F0828076
:100D900001210160FFF7B0FD054600BF3068800704
:100DA0003FF588AFFFF7A8FD401B0228F6D9ECE01D
:100DB000E068002800F08080052800F09780012876
:100DC00000F09880306A20F001003062306A20F034
:100DD000040092E00020C4F242200021C0F88014F8
:100DE000FFF78AFD054600BF706A80077FF56CAF8C
:100DF000FFF782FD401B0228F6D9C6E00027C4F2A7
:100E0000422700203866FFF777FD022D05460BD1FB
:100E10003068800140F1BE80FFF76EFD401B022864
:100E20004FF00300F4D968E7306880017FF564AFC4
:100E3000FFF762FD401B02284FF00300F4D95CE786
:100E400040F20800C2F20000006844F6D351C1F23B
:100E50006201A0FB0101480A019000BF00BF019898
:100E6000411E002801913FF42FAF00BF0198411EA1
:100E7000002801913FF428AF00BF0198411E0028CF
:100E800001913FF421AF00BF0198411E002801915C
:100E9000E4D119E700210160FFF72EFD054600BFF0
:100EA000306880077FF50DAFFFF726FD401B022855
:100EB0004FF00300F4D920E7306A20F001003062DF
:100EC000306A20F004003062FFF716FD054641F25B
:100ED000883700BF306A800720D5FFF70DFD401B23
:100EE000B8424FF00300F5D907E700BF306A40F081
:100EF00004003062306A40F001003062FFF7FCFC11
:100F0000054641F2883700BF306A800706D4FFF7F4
:100F1000F3FC401BB842F7D937E000BFB8F1000F2F
:100F20007FF4D5AEF06920F08050F061CFE600BFCD
:100F3000306820F480303060306820F480203060E9
:100F4000FFF7DAFC054600BF306880037FF59DAEF1
:100F5000FFF7D2FC401B64284FF00300F4D9CCE625
:100F6000306840F480203060306840F48030306079
:100F7000FFF7C2FC054600BF306880033FF585AE31
:100F8000FFF7BAFC401B6428F6D9032002B0BDE885
:100F9000F08100BF206AB0F5803F05D17168A2687A
:100FA00021F40031114371607168626A21F4741197
:100FB00011430843706001203866FFF79DFC04462A
:100FC000306880013FF598AEFFF796FC001B0228C1
:100FD0004FF00300F4D990E6002804BF01207047C9
:100FE00010B50446022084F851002068016821F001
:100FF00040010160204600F063F80020606584F83D
:10100000510084F8500010BD7047000090F8510066
:101010007047000070B538B10446406A30B1002016
:10102000206104F1140007E0012070BD6068B0F594
:10103000827F03D004F11C00002101600026A6621B
:1010400094F8510020B9204684F8506000F054F81C
:10105000022084F8510094E8071001F482710368BB
:1010600002F4044223F040030360236911440CF4AA
:101070000062114403F002026369114403F00102AB
:10108000A369E569114403F40072114405F03802C4
:10109000256A114405F08002A56A114305F4005247
:1010A00011430160042101EA13414160C16921F447
:1010B0000061C1610120666584F85100304670BD51
:1010C00010B5044640F60000C4F20100216800F5A6
:1010D0002052914218BF10BD41F21801C4F2020122
:1010E0000A6822F480520A60A021FFF767FAA06C18
:1010F000BDE81040FFF7B6B870B586B0044640F6BC
:101100000000C4F20100216800F52052002691423F
:10111000049601D006B070BD41F21801C4F202017C
:101120000A6842F480520A600A6802F4805201920E
:10113000019A0A6842F004020A60096801F0040199
:1011400001910199A02102910221039103210591AE
:1011500002A9FFF7BDFA42F2F0553020C2F20005B5
:10116000C4F202001021802285E8430005F10C0042
:101170004FF480734FF4806C80E80C102846C5E96A
:101180000666FFF775F9002818BFFFF765F8A56434
:101190006C6206B070BD00002DE9F04182B00446DB
:1011A00090F85000012803D1022002B0BDE8F08180
:1011B00001201D4616460F4684F85000FFF79CFBA1
:1011C00094F8511001290DD18046002F4FF00100F5
:1011D00018BF002E0ED1002184F8501002B0BDE8D7
:1011E000F08100BF0220002184F8501002B0BDE859
:1011F000F08100BF0320002184F85100616527635E
:10120000A686E686A163A187E187A0682164B0F580
:10121000004F2068616407D1016821F0400101603E
:10122000016841F4804101600168490603D4016806
:1012300041F0400101606168731EE268B1FA81F11A
:10124000B3FA83F349095B09B2F5006F41EA030180
:101250003CD131B137F8021BC1602763E08E013801
:10126000E086E08E00286BD0681C0CD11DE000BF2A
:10127000216B31F8022BC2602163E08E0138E086D9
:10128000E08E00285CD0206881688907F0D4FFF7E1
:1012900033FBA0EB0800A842F2D3032071E000BFAB
:1012A000FFF72AFBE08E00284AD020688168890772
:1012B000F6D5216B31F8022BC2602163E08E013834
:1012C000E086E08E0028F0D13AE000BF39B13978ED
:1012D0000173206B01302063E08E0138E086E08EE0
:1012E00070B3681C0BD11BE0216B09780173206B74
:1012F00001302063E08E0138E086E08E00B3206884
:1013000081688907F0D4FFF7F7FAA0EB0800A8423C
:10131000F3D3032035E000BFFFF7EEFAE08E78B19B
:10132000206881688907F7D5216B09780173206BE4
:1013300001302063E08E0138E086E08E0028EFD196
:10134000204680212A46434601F0B4F928B1606D59
:1013500040F02000606520206065A06838B900205A
:1013600001902068C1680191806801900198606DCA
:1013700030B10120002184F8501002B0BDE8F081A6
:101380000020012184F85110002184F8501002B08F
:10139000BDE8F08170B5044690F85000012804BF04
:1013A000022070BD012084F8500094F851000128FB
:1013B0000AD100294FF0010018BF002A0AD10021EC
:1013C00084F8501070BD00BF0220002184F8501036
:1013D00070BD00BF03200023254684F8510045F866
:1013E000543F2163A286E286A363C4E91033A38736
:1013F000E387A0682268B0F5004F07D1106820F09D
:1014000040001060106840F480401060A06C42F210
:101410002D6C42F2356E42F20D66C0F6000CC0F63D
:10142000000EC0F60006C0E90AECC0E90C63E38ECA
:101430000C32FFF761F818B1012010210FE000BF56
:1014400025682868400603D4286840F040002860DA
:1014500055F8040F022140F02000286000202A687F
:1014600011432960002184F8501070BD70470000BE
:1014700070470000411E0020B0EB116F1CBF01201F
:1014800070474EF21002CEF2000251604EF6235128
:10149000CEF20001F0230B700721906011607047BD
:1014A000FEE700002DE9F04182B0054640F6004419
:1014B0002A20984617460E46C4F2010401F042F86D
:1014C00028BA000CADF8000020464FF480610022DD
:1014D000FFF70CFA42F23465C2F200052846FFF726
:1014E00095FD0128FAD142F23465C2F20005694641
:1014F00028460222FF23FFF74FFE20464FF480616B
:101500000122FFF7F3F938BA000CADF802002046CB
:101510004FF480610022FFF7E9F900BF2846FFF78A
:1015200075FD0128FAD142F23467C2F200070DF1CD
:10153000020138460222FF23FFF72EFE20464FF419
:1015400080610122FFF7D2F92B2000F0FBFF06F1AA
:10155000140000BA000CADF8040020464FF480617E
:101560000022FFF7C3F900BF3846FFF74FFD0128FF
:10157000FAD142F23466C2F2000601A930460222D4
:10158000FF23FFF709FE20464FF480610122FFF799
:10159000ADF908F1140000BA000CADF806002046C1
:1015A0004FF480610022FFF7A1F900BF3046FFF73A
:1015B0002DFD0128FAD142F23460C2F200000DF193
:1015C00006010222FF23FFF7E7FD20464FF480616A
:1015D0000122FFF78BF92C2000F0B4FF02B0BDE828
:1015E000F081000070B50446050A00200021EF22BA
:1015F00040F217130026FFF755FF42F28C60C2F24B
:10160000000000BF811985552836B6F5F06F4C7083
:101610008D70CC700D714C718D71CC710D724C72DE
:101620008D72CC720D734C738D73CC730D744C74BE
:101630008D74CC740D754C758D75CC750D764C769E
:101640008D76CC760D774C778D77CC7781F82050DE
:1016500081F8214081F8225081F8234081F82450FC
:1016600081F8254081F8265081F82740CAD142F2FE
:101670008C64C2F2000420464FF4F06100F096FF43
:1016800020464FF4F06100F091FF20464FF4F061E6
:1016900000F08CFF20464FF4F06100F087FF2046F9
:1016A0004FF4F06100F082FF20464FF4F06100F04B
:1016B0007DFF20464FF4F06100F078FF20464FF4A4
:1016C000F06100F073FF20464FF4F06100F06EFF10
:1016D00020464FF4F06100F069FF20464FF4F061BE
:1016E00000F064FF20464FF4F06100F05FFF2046F9
:1016F0004FF4F06100F05AFF20464FF4F06100F023
:1017000055FF20464FF4F06100F050FF20464FF4A3
:10171000F06100F04BFF20464FF4F06100F046FF0F
:1017200020464FF4F06100F041FF20464FF4F06195
:1017300000F03CFF20464FF4F06100F037FF2046F8
:101740004FF4F06100F032FF20464FF4F06100F0FA
:101750002DFF20464FF4F06100F028FF20464FF4A3
:10176000F06100F023FF20464FF4F06100F01EFF0F
:1017700020464FF4F06100F019FF20464FF4F0616D
:1017800000F014FF20464FF4F06100F00FFF2046F8
:101790004FF4F06100F00AFF20464FF4F06100F0D2
:1017A00005FF20464FF4F06100F000FF20464FF4A3
:1017B000F06100F0FBFE20464FF4F06100F0F6FE11
:1017C00020464FF4F06100F0F1FE20464FF4F06146
:1017D00000F0ECFE20464FF4F06100F0E7FE2046FA
:1017E0004FF4F06100F0E2FE20464FF4F06100F0AB
:1017F000DDFE20464FF4F06100F0D8FE20464FF4A5
:10180000F06100F0D3FE20464FF4F06100F0CEFE10
:1018100020464FF4F06100F0C9FE20464FF4F0611D
:1018200000F0C4FE20464FF4F06100F0BFFE2046F9
:101830004FF4F06100F0BAFE20464FF4F06100F082
:10184000B5FE20464FF4F06100F0B0FE20464FF4A4
:10185000F06100F0ABFE20464FF4F06100F0A6FE10
:1018600020464FF4F06100F0A1FE20464FF4F061F5
:1018700000F09CFE20464FF4F06100F097FE2046F9
:101880004FF4F06100F092FE20464FF4F06100F05A
:101890008DFE20464FF4F06100F088FE20464FF4A4
:1018A000F06100F083FE20464FF4F06100F07EFE10
:1018B00020464FF4F06100F079FE20464FF4F061CD
:1018C00000F074FE20464FF4F06100F06FFE2046F9
:1018D0004FF4F06100F06AFE20464FF4F06100F032
:1018E00065FE20464FF4F06100F060FE20464FF4A4
:1018F000F06100F05BFE20464FF4F06100F056FE10
:1019000020464FF4F06100F051FE20464FF4F061A4
:1019100000F04CFE20464FF4F06100F047FE2046F8
:101920004FF4F06100F042FE20464FF4F061BDE854
:10193000704000F03BBE0000F0B585B041F21800E9
:10194000C4F20200016840F6004441F00401016065
:101950000168C4F2010401F00401019101990168D8
:1019600001AD41F0200101600168012601F0200174
:10197000019101990168032741F0080101600068A5
:10198000294600F00800019001984FF48060019012
:101990002046CDE902660497FEF79AFE20464FF4F2
:1019A00080610122FEF7A2FF20462946CDE90166AB
:1019B000CDE90367FEF78CFE204601210122FEF7E8
:1019C00095FF40F60200CDE9010620462946CDE903
:1019D0000367FEF77DFE204640F602010122FEF776
:1019E00085FF05B0F0BD000070B582B040F6004440
:1019F000C4F20104FFF7A0FF2046012100220025C8
:101A0000FEF774FF6420FEF7C5FD20460121012288
:101A1000FEF76CFF6420FEF7BDFD20464FF4006129
:101A20000122FEF763FF6420FEF7B4FD112000F0F1
:101A300089FD7820FEF7AEFD362000F083FD2046BC
:101A40004FF4806100228DF80750FEF74FFF42F2FD
:101A50003465C2F2000500BF2846FFF7D7FA012817
:101A6000FAD142F23465C2F200050DF107012846B1
:101A70000122FF23FFF790FB20464FF480610122F3
:101A8000FEF734FF3A2000F05DFD05208DF80700D9
:101A900020464FF480610022FEF728FF2846FFF71A
:101AA000B5FA0128FAD142F23465C2F200050DF10F
:101AB000070128460122FF23FFF76EFB20464FF463
:101AC00080610122FEF712FFB22000F03BFD0C20E6
:101AD0008DF8070020464FF480610022FEF706FFD4
:101AE0002846FFF793FA0128FAD142F23465C2F290
:101AF00000050DF1070128460122FF23FFF74CFBEB
:101B000020464FF480610122FEF7F0FE0C208DF894
:101B1000070020464FF480610022FEF7E7FE00BF79
:101B20002846FFF773FA0128FAD142F23465C2F26F
:101B300000050DF1070128460122FF23FFF72CFBCA
:101B400020464FF480610122FEF7D0FE00208DF880
:101B5000070020464FF480610022FEF7C7FE00BF59
:101B60002846FFF753FA0128FAD142F23465C2F24F
:101B700000050DF1070128460122FF23FFF70CFBAA
:101B800020464FF480610122FEF7B0FE33208DF82D
:101B9000070020464FF480610022FEF7A7FE00BF39
:101BA0002846FFF733FA0128FAD142F23465C2F22F
:101BB00000050DF1070128460122FF23FFF7ECFA8B
:101BC00020464FF480610122FEF790FE33208DF80D
:101BD000070020464FF480610022FEF787FE00BF19
:101BE0002846FFF713FA0128FAD142F23465C2F20F
:101BF00000050DF1070128460122FF23FFF7CCFA6B
:101C000020464FF480610122FEF770FEB72000F0FD
:101C100099FC35208DF8070020464FF480610022A2
:101C2000FEF764FE2846FFF7F1F90128FAD142F2E7
:101C30003465C2F200050DF1070128460122FF2399
:101C4000FFF7AAFA20464FF480610122FEF74EFE0C
:101C5000BB2000F077FC32208DF8070020464FF4BF
:101C600080610022FEF742FE2846FFF7CFF90128E7
:101C7000FAD142F23465C2F200050DF1070128469F
:101C80000122FF230126FFF787FA20464FF48061E7
:101C90000122FEF72BFEC22000F054FC20464FF438
:101CA000806100228DF80760FEF720FE2846FFF7CE
:101CB000ADF90128FAD142F23465C2F200050DF106
:101CC000070128460122FF23FFF766FA20464FF45A
:101CD00080610122FEF70AFEC32000F033FC1520CC
:101CE0008DF8070020464FF480610022FEF7FEFDCC
:101CF0002846FFF78BF90128FAD142F23465C2F287
:101D000000050DF1070128460122FF23FFF744FAE1
:101D100020464FF480610122FEF7E8FDC42000F068
:101D200011FC20208DF8070020464FF4806100222E
:101D3000FEF7DCFD2846FFF769F90128FAD142F2E7
:101D40003465C2F200050DF1070128460122FF2388
:101D5000FFF722FA20464FF480610122FEF7C6FD0C
:101D6000C62000F0EFFB0F208DF8070020464FF44F
:101D700080610022FEF7BAFD2846FFF747F90128E7
:101D8000FAD142F23465C2F200050DF1070128468E
:101D90000122FF23FFF700FA20464FF48061012261
:101DA000FEF7A4FDD02000F0CDFBA4208DF80700A5
:101DB00020464FF480610022FEF798FD2846FFF789
:101DC00025F90128FAD142F23465C2F200050DF17D
:101DD000070128460122FF23FFF7DEF920464FF4D2
:101DE00080610122FEF782FDA1208DF807002046C8
:101DF0004FF480610022FEF779FD00BF2846FFF70F
:101E000005F90128FAD142F23465C2F200050DF15C
:101E1000070128460122FF23FFF7BEF920464FF4B1
:101E200080610122FEF762FDE02000F08BFBD020F4
:101E30008DF8070020464FF480610022FEF756FD22
:101E40002846FFF7E3F80128FAD142F23465C2F2DE
:101E500000050DF1070128460122FF23FFF79CF939
:101E600020464FF480610122FEF740FD08208DF8E6
:101E7000070020464FF480610022FEF737FD00BFC7
:101E80002846FFF7C3F80128FAD142F23465C2F2BE
:101E900000050DF1070128460122FF23FFF77CF919
:101EA00020464FF480610122FEF720FD0E208DF8C0
:101EB000070020464FF480610022FEF717FD00BFA7
:101EC0002846FFF7A3F80128FAD142F23465C2F29E
:101ED00000050DF1070128460122FF23FFF75CF9F9
:101EE00020464FF480610122FEF700FD09208DF8A5
:101EF000070020464FF480610022FEF7F7FC00BF88
:101F00002846FFF783F80128FAD142F23465C2F27D
:101F100000050DF1070128460122FF23FFF73CF9D8
:101F200020464FF480610122FEF7E0FC09208DF885
:101F3000070020464FF480610022FEF7D7FC00BF67
:101F40002846FFF763F80128FAD142F23465C2F25D
:101F500000050DF1070128460122FF23FFF71CF9B8
:101F600020464FF480610122FEF7C0FC05208DF869
:101F7000070020464FF480610022FEF7B7FC00BF47
:101F80002846FFF743F80128FAD142F23465C2F23D
:101F900000050DF1070128460122FF23FFF7FCF899
:101FA00020464FF480610122FEF7A0FC31208DF81D
:101FB000070020464FF480610022FEF797FC00BF27
:101FC0002846FFF723F80128FAD142F23465C2F21D
:101FD00000050DF1070128460122FF23FFF7DCF879
:101FE00020464FF480610122FEF780FC33208DF8FB
:101FF000070020464FF480610022FEF777FC00BF07
:102000002846FFF703F80128FAD142F23465C2F2FC
:1020100000050DF1070128460122FF23FFF7BCF858
:1020200020464FF480610122FEF760FC48208DF8C5
:10203000070020464FF480610022FEF757FC00BFE6
:102040002846FEF7E3FF0128FAD142F23465C2F2D6
:1020500000050DF1070128460122FF23FFF79CF838
:1020600020464FF480610122FEF740FC17208DF8D6
:10207000070020464FF480610022FEF737FC00BFC6
:102080002846FEF7C3FF0128FAD142F23465C2F2B6
:1020900000050DF1070128460122FF23FFF77CF818
:1020A00020464FF480610122FEF720FC14208DF8B9
:1020B000070020464FF480610022FEF717FC00BFA6
:1020C0002846FEF7A3FF0128FAD142F23465C2F296
:1020D00000050DF1070128460122FF23FFF75CF8F8
:1020E00020464FF480610122FEF700FC15208DF898
:1020F000070020464FF480610022FEF7F7FB00BF87
:102100002846FEF783FF0128FAD142F23465C2F275
:1021100000050DF1070128460122FF23FFF73CF8D7
:1021200020464FF480610122FEF7E0FB31208DF85C
:10213000070020464FF480610022FEF7D7FB00BF66
:102140002846FEF763FF0128FAD142F23465C2F255
:1021500000050DF1070128460122FF23FFF71CF8B7
:1021600020464FF480610122FEF7C0FB34208DF839
:10217000070020464FF480610022FEF7B7FB00BF46
:102180002846FEF743FF0128FAD142F23465C2F235
:1021900000050DF1070128460122FF23FEF7FCFF91
:1021A00020464FF480610122FEF7A0FBE12000F001
:1021B000C9F9D0208DF8070020464FF48061002235
:1021C000FEF794FB2846FEF721FF0128FAD142F2E0
:1021D0003465C2F200050DF1070128460122FF23F4
:1021E000FEF7DAFF20464FF480610122FEF77EFB06
:1021F00008208DF8070020464FF480610022FEF78A
:1022000075FB00BF2846FEF701FF0128FAD142F214
:102210003465C2F200050DF1070128460122FF23B3
:10222000FEF7BAFF20464FF480610122FEF75EFB05
:102230000E208DF8070020464FF480610022FEF743
:1022400055FB00BF2846FEF7E1FE0128FAD142F215
:102250003465C2F200050DF1070128460122FF2373
:10226000FEF79AFF20464FF480610122FEF73EFB05
:1022700009208DF8070020464FF480610022FEF708
:1022800035FB00BF2846FEF7C1FE0128FAD142F215
:102290003465C2F200050DF1070128460122FF2333
:1022A000FEF77AFF20464FF480610122FEF71EFB05
:1022B00009208DF8070020464FF480610022FEF7C8
:1022C00015FB00BF2846FEF7A1FE0128FAD142F215
:1022D0003465C2F200050DF1070128460122FF23F3
:1022E000FEF75AFF20464FF480610122FEF7FEFA06
:1022F00015208DF8070020464FF480610022FEF77C
:10230000F5FA00BF2846FEF781FE0128FAD142F215
:102310003465C2F200050DF1070128460122FF23B2
:10232000FEF73AFF20464FF480610122FEF7DEFA05
:1023300031208DF8070020464FF480610022FEF71F
:10234000D5FA00BF2846FEF761FE0128FAD142F215
:102350003465C2F200050DF1070128460122FF2372
:10236000FEF71AFF20464FF480610122FEF7BEFA05
:1023700033208DF8070020464FF480610022FEF7DD
:10238000B5FA00BF2846FEF741FE0128FAD142F215
:102390003465C2F200050DF1070128460122FF2332
:1023A000FEF7FAFE20464FF480610122FEF79EFA06
:1023B00048208DF8070020464FF480610022FEF788
:1023C00095FA00BF2846FEF721FE0128FAD142F215
:1023D0003465C2F200050DF1070128460122FF23F2
:1023E000FEF7DAFE20464FF480610122FEF77EFA06
:1023F00017208DF8070020464FF480610022FEF779
:1024000075FA00BF2846FEF701FE0128FAD142F214
:102410003465C2F200050DF1070128460122FF23B1
:10242000FEF7BAFE20464FF480610122FEF75EFA05
:1024300014208DF8070020464FF480610022FEF73B
:1024400055FA00BF2846FEF7E1FD0128FAD142F215
:102450003465C2F200050DF1070128460122FF2371
:10246000FEF79AFE20464FF480610122FEF73EFA05
:1024700015208DF8070020464FF480610022FEF7FA
:1024800035FA00BF2846FEF7C1FD0128FAD142F215
:102490003465C2F200050DF1070128460122FF2331
:1024A000FEF77AFE20464FF480610122FEF71EFA05
:1024B00031208DF8070020464FF480610022FEF79E
:1024C00015FA00BF2846FEF7A1FD0128FAD142F215
:1024D0003465C2F200050DF1070128460122FF23F1
:1024E000FEF75AFE20464FF480610122FEF7FEF906
:1024F00034208DF8070020464FF480610022FEF75B
:10250000F5F900BF2846FEF781FD0128FAD142F215
:102510003460C2F200000DF107010122FF23FEF733
:102520003BFE20464FF480610122FEF7DFF92120B7
:1025300000F008F8292000F005F80A20FEF72AF834
:1025400002B070BDB0B582B040F60044C4F20104E0
:102550008DF80700204602210022FEF7C7F9204629
:102560004FF480610022FEF7C1F942F23465C2F2F5
:10257000000500BF2846FEF749FD0128FAD142F2C6
:102580003460C2F200000DF107010122FF23FEF7C3
:1025900003FE20464FF480610122FEF7A7F9204692
:1025A00002210122FEF7A2F902B0B0BDF0B581B060
:1025B00040F60044C4F201040E46054620464FF49E
:1025C00080610022FEF792F942F23467C2F20007FE
:1025D0003846FEF71BFD0128FAD142F23460B2B250
:1025E000C2F200002946FF23FEF7D6FD20464FF435
:1025F0008061012201B0BDE8F040FEF777B900002C
:10260000FEE70000FEE7000070470000406A016836
:102610004A6822F003024A60416D41F010014165B1
:10262000012180F85110FEF7EFBC0000406AFEF770
:102630001FBF0000B0B582B0446A0546FEF75CF9E2
:102640002968096889062FD40346206864224168F6
:1026500021F020014160416821F0020141602046E3
:10266000802100F027F838B1606D40F020006065EF
:10267000606D40F020006065A06838B900200190CE
:102680002068C16801918068019001980020E0866F
:10269000012084F85100606D30B1204602B0BDE8E1
:1026A000B040FEF7B1BC00BF204602B0BDE8B0406C
:1026B000FEF7DCBE2DE9F04182B01E4690460D4685
:1026C0000446FEF719F9301A00EB0807FEF714F973
:1026D00040F20801C2F200010968C1F3CB3179432D
:1026E000019121688A682A40AA4227D1064618F13A
:1026F00001001FD0FEF700F9801BB84222D20198DA
:1027000001990028A1F1010101912168896808BFA0
:10271000074601EA0500A842ECD00FE0886828408F
:10272000A8420BD188682840A84207D18868284071
:10273000A84203D188682840A842EFD0002002B008
:10274000BDE8F081D4E900014268B1F5827F22F052
:10275000E00242600AD1A168B1F5004F02D0B1F5A4
:10276000806F03D1016821F040010160A16AB1F5D9
:10277000005F07D1016821F400510160016841F454
:1027800000510160012084F85100002084F85000BD
:10279000032002B0BDE8F08170470000FEF7B2B838
:1027A00070470000F0B581B040F270020021C2F223
:1027B000000200BF53185050C031B1F5165FC3E995
:1027C0000100C3E90300C3E90500C3E90700C3E949
:1027D0000900C3E90B00C3E90D00C3E90F00C3E919
:1027E0001100C3E91300C3E91500C3E91700C3E9E9
:1027F0001900C3E91B00C3E91D00C3E91F00C3E9B9
:102800002100C3E92300C3E92500C3E92700C3E988
:102810002900C3E92B00C3E92D00C3F8BC00C9D1CE
:1028200040F6004400200021EF2240F21713C4F2CA
:1028300001040027FEF736FE20464FF48061002297
:10284000FEF754F842F23465C2F200052846FEF75E
:10285000C3FB4FF40060E8602846FEF7DBFB40F264
:102860007006C2F2000600BF284631464FF4965269
:10287000FEF790FDA86CFDF727FD0228FAD000BFF7
:102880002846FEF7C3FB0128FAD101371D2FEBD1F3
:1028900020464FF480610122FEF728F82846FEF713
:1028A0009BFB00212846E96001B0BDE8F040FEF73F
:1028B000B1BB0000FEE7000090B0FEF731F8002445
:1028C0000120CDE90B44CDE9094406900A904FF46C
:1028D000E0104FF4803102250F9006A8CDE90714CF
:1028E000CDE90D51FEF79EF920B1EFF3108072B6DD
:1028F000FEE700BF0F20CDE901054FF48060CDE970
:10290000040401A802210394FEF7ACF820B1EFF310
:10291000108072B6FEE700BF41F21800C4F2020058
:102920000168002241F0200101600168002401F0EB
:10293000200106910699016841F0040101600168D7
:1029400001F004010691069950F8041C41F00101C0
:1029500040F8041C50F8040C002100F0010006901F
:1029600006980D20FEF742F80D20FEF72BF842F2F4
:10297000346043F20001C2F20000C4F201014FF4DE
:102980008272012580E8160000F1140102234FF441
:10299000007C4FF0080E81E820500A21C0E9034373
:1029A000C0E90844C0E90A41FEF734FB20B1EFF367
:1029B000108072B6FEE700BFFFF716F84FF6FF7003
:1029C000FEF710FE4FF47840FFF7ECFE4FF47A70FC
:1029D000FDF7E0FD4FF47840FEF704FE4FF47A7007
:1029E000FDF7D8FD1F20FFF7DDFE4FF47A70FDF7ED
:1029F000D1FD4FF47840FFF7D5FE4FF47A70FDF724
:102A0000C9FD4FF4FC60FFF7CDFE4FF47A70FDF77F
:102A1000C1FD4FF6E070FFF7C5FE4FF47A70FDF789
:102A2000B9FD0020FFF7BEFE4FF47A70FDF7B2FD4E
:102A3000C8E70000000000000000010203040607D0
:102A40000809010202030405060708090A0B0C0D18
:102A50000E0F1010782A000800000020100000005F
:102A600028010008882A0008100000200034000017
:102A700044010008000000000100000010000000F8
:082A80000024F4000000000036
:04000005080000ED02
:00000001FF
