:020000040800F2
:10000000F0190020390200084923000849150008AA
:1000100045230008E5030008092700080000000048
:100020000000000000000000000000005125000852
:10003000F5030008000000004D23000855250008C6
:10004000530200085302000853020008530200083C
:10005000530200085302000853020008530200082C
:10006000530200085302000853020008530200081C
:10007000530200085302000853020008530200080C
:100080005302000853020008530200080000000059
:100090000000000000000000000000005302000803
:1000A00053020008530200085302000853020008DC
:1000B00053020008530200085302000853020008CC
:1000C00053020008530200085302000853020008BC
:1000D0005302000853020008530200080000000009
:1000E00053020008530200085302000800000000F9
:1000F00000000000000000000000000053020008A3
:1001000000000000530200085302000853020008D8
:1001100000000000000000000000000000000000DF
:100120005302000853020008E903000853020008C4
:100130005302000800000000000000000000000062
:100140000000000000000000000000005302000852
:10015000530200085302000853020008530200082B
:1001600053020008530200080000000000000000D5
:10017000000000000000000000000000000000007F
:100180000000000053020008000000000000000012
:10019000530200085302000800F002F800F03CF897
:1001A0000AA090E8000C82448344AAF10107DA45D2
:1001B00001D100F031F8AFF2090EBAE80F0013F0E8
:1001C000010F18BFFB1A43F0010318477C260000FB
:1001D0009C260000103A24BF78C878C1FAD852078C
:1001E00024BF30C830C144BF04680C6070470000B1
:1001F0000023002400250026103A28BF78C1FBD830
:10020000520728BF30C148BF0B6070471FB502F0CE
:1002100002FB1FBD10B510BD00F0A9F81146FFF795
:10022000F5FF02F073FA00F0C7F803B4FFF7F2FF2E
:1002300003BC00F0CFF80000094880470948004798
:10024000FEE7FEE7FEE7FEE7FEE7FEE7FEE7FEE786
:10025000FEE7FEE704480549054A064B70470000E3
:100260000926000899010008F0130020F019002069
:10027000F0150020F015002053EA020C00F0698010
:100280002DE9F04B4FF00006002B1FBFB3FA83F5AA
:1002900003FA05F424FA05F65E4012BF1643B2FADB
:1002A00082F502FA05F4C5F120051EBF22FA05FC0D
:1002B00044EA0C04203556EA044C4FEA144418BFB3
:1002C000641C4FF000084FF00009904271EB030CE2
:1002D00039D3002919BFB1FA81F701FA07F6B0FA4C
:1002E00080F700FA07F6C7F120071EBF20FA07FCC7
:1002F00046EA0C062037B6FBF4FCA7EB0507103FD7
:1003000007F01F0BCBF120062CFA06F60CFA0BFBBC
:1003100044BFB3460026202FA4BF5E464FF0000B1B
:100320005BEA060C08BF4FF0010B19EB0B0948EB19
:100330000608ABFB027C06FB02CC0BFB03CCC01B0C
:1003400071EB0C01C1E70B46024641464846BDE849
:10035000F08B13B5084318BF4FF0FF300146AFF3E1
:100360000080BDE81C407047704770477047754675
:1003700000F02CF8AE4605006946534620F0070011
:10038000854618B020B5FFF765FFBDE820404FF067
:1003900000064FF000074FF000084FF0000BAC468E
:1003A000ACE8C009ACE8C009ACE8C009ACE8C009D9
:1003B00021F007018D46704710B50446AFF3008069
:1003C0002046BDE81040FFF730BF000000487047EE
:1003D0001000002001491820ABBEFEE726000200F5
:1003E00070470000FEE7000041F23030C2F200002A
:1003F00000F00CB870470000EFF3108072B600BF39
:10040000FEE7000090F8350070470000F0B581B0BD
:1004100004460020009040F20800C2F2000002688A
:10042000D4E9166048F2B51337680821C1F64E3397
:1004300081403942A2FB03250CD0226813685B0778
:1004400008D5136823F004031360B160616D41F0B7
:100450000101616501218140394208D02268526959
:10046000120604D5B160616D41F00201616504219D
:100470008140394208D022681268920704D5B160E1
:10048000616D41F00401616510218140394217D04E
:1004900020680268120713D5B16002680168520330
:1004A00008D4C90508D4016821F008010160216C55
:1004B00021B905E008033FD4216C09B120468847E3
:1004C000E16D202000FA01F23A4241D02068036831
:1004D000DB063DD5B26094F835300268052B1BD1A0
:1004E00022F016020260426922F080024261226C10
:1004F0000AB9A26C1AB1026822F0080202603F2019
:100500008840B060012084F83500216D002000296A
:1005100084F8340052D157E00168520310D4C90561
:1005200012D4016821F010010160012084F8350027
:10053000002084F8340007E0A16C0029BED1BFE799
:10054000080301D4616C00E0E16B09B120468847E3
:10055000606DC8B3606DC0072ED0052084F83500EB
:100560002068A90A026822F001020260009A0132A2
:100570008A4200921AD80268D20717D0009A013234
:100580008A42009212D80268D2070FD0009A013234
:100590008A4200920AD80268D20707D0009A013234
:1005A0008A42009202D80268D207DFD1012084F883
:1005B0003500002084F83400E16C29B1204601B0F8
:1005C000BDE8F040084700BF01B0F0BD2DE9F041A3
:1005D000044600F0EBF9ECB10546022084F8350042
:1005E0000020216884F83400086820F001000860C9
:1005F00021680868C00711D000F0D8F9401B052811
:10060000F6D9032520230320636584F83550BDE81F
:10061000F08100BF0120BDE8F08100BF086848F20A
:100620003F02CFF21002D4E9013500EA020C04F1D6
:100630000C0898E8C10143EA0C032B431843D4E9A2
:10064000072E304338431043626A40EA0E00042A02
:1006500040EA08031CD1206BD4E90A2E40EA0E00C0
:10066000184308604869BEF1000F20F0030040EA1B
:10067000020040F0040C11D0B8F5005F36D0B8F19C
:10068000000F45D1022A46D0012A3BD032B942E0C0
:100690000B60486920F0070040EA020C01F0F80006
:1006A0004AF6AB221038CAF6AA22A0FB02231A0986
:1006B00042F64003C0F600039A5C40F2FF335F2825
:1006C0004FF03F00C1F814C021EA030100FA02F024
:1006D00088BF0431C4E91612886000230125002078
:1006E000636584F83550BDE8F08100BF032AD5D892
:1006F000012540230120DFE802F0030E030500BFBF
:1007000082E700BFAEF1C070B0FA80F0400904E0AB
:10071000032A04D3C2D1CEF300600028BED0012545
:1007200040230120636584F83550BDE8F081000066
:1007300070B590F834C0BCF1010F46D04FF0010CF9
:1007400080F834C0D0F858E090F835C0BCF1010F03
:1007500038D14FF0020C80F835C04FF0000CC0F8D3
:1007600054C0D0F800C08468056CC06DDCF800602F
:10077000402C26F48026CCF80060CCF804300B46E0
:1007800004BF13460A463F2101FA00F0CCF80830B6
:10079000CCF80C20CEF80800DCF8000040F0160081
:1007A000CCF800002DB1DCF8000040F00800CCF8D7
:1007B0000000DCF8000040F00100CCF80000002050
:1007C00070BD00BF002180F83410022070BD000011
:1007D000B0B5044600F0EAF8054640F20000C2F267
:1007E00000000078611C18BF044400BF00F0DEF870
:1007F000401BA042FAD3B0BD2DE9F04F82B000F10A
:100800003E4241F2000502F1FF77C4F202050722E1
:1008100043F6004E4FEAB726A84208BF0422C4F2AE
:10082000010E042E38BF4FEAB7220125002600270B
:100830004FF00008009208E008F101080437B8F111
:10084000100F06F1020600F0A7800C6805FA08F9FF
:1008500014EA090FF0D0D1F804B003220BF0030C16
:10086000ACF10104B240012C6FEA020A10D8826890
:10087000CC6802EA0A02B440224382604268CBF3A9
:10088000001422EA090204FA08F42243426005E057
:10089000BCF1030F02D14FF0030C20E0C2688C685A
:1008A00002EA0A02B4402243BCF1020FC26016D130
:1008B0006FF0030202EA58020244D2F820C007F0A7
:1008C0001C050F230C69AB402CEA030304FA05F561
:1008D0002B431362D1F804B001250BF0030C02681E
:1008E0000CFA06F302EA0A021A431BF4403F0260C4
:1008F000A2D0002243F644030192C4F202031A6814
:100900004FF6084C42F480421A601A68CFF6FF7C1A
:1009100002F480420192019A28F00302724452F8D4
:100920000C3007F00C050F24AC40A343009C04FAE4
:1009300005F52B4342F80C30DEF808204B6842EAFC
:10094000090543F60C4CDC0258BF22EA0905CEF833
:100950000850C4F2010CDCF800209C0242EA0905B0
:1009600058BF22EA0905CCF80050DEF804209C03A9
:1009700042EA090558BF22EA0905CEF80450DEF81C
:100980000020DB0342EA090558BF22EA0905CEF838
:100990000050012550E700BF02B0BDE8F08F000015
:1009A000002A08BF090481617047000041F2E83065
:1009B000C2F200000068704740F2000041F2E831E6
:1009C000C2F20000C2F2000100780A681044086018
:1009D0007047000080B543F60040C4F20200016891
:1009E00041F400710160016841F4806101600168B7
:1009F00041F480710160032000F088F80F2000F0BE
:100A000005F800F027F8002080BD000070B540F226
:100A10000006C2F2000640F208013278C2F200017C
:100A20004FF47A730968B3FBF2F20446B1FBF2F1BA
:100A3000084600F073FD0F2C4FF0010508D838B9B7
:100A40004FF0FF3021460022002500F033F874609B
:100A5000284670BD82B0002043F640010190C4F2E8
:100A600002014A6842F480424A604A6802F48042C5
:100A70000192019A0090086840F080500860086870
:100A800000F080500090009802B07047002848BFE6
:100A90007047C1B200F01F00012202FA00F04EF2CE
:100AA0000012CEF2000242EAD10121F003010860F7
:100AB0007047000010B54EF60C5CCEF2000CDCF86E
:100AC0000030C3F3022E8EF00704042C28BF042448
:100AD000BEF103034FF0FF3E0EFA04F438BF0023CB
:100AE000A14399400EFA03F39A43114300F00F0219
:100AF00000F160430901043A03F5644362440028AD
:100B000048BF02F10C03197010BD00004EF60C51E5
:100B1000CEF200010A684FF6FF031A4060F30A2282
:100B200042F0806040F0FD70086070472DE9F041B0
:100B3000002800F08B8043F60808C4F2020804463F
:100B4000D8F8F8030D4600F00700884207D288F86D
:100B5000F853D8F8F80300F00700A84276D12068CF
:100B6000810717D5410705D5D8F8001041F4E051A9
:100B7000C8F80010010705D5D8F8001041F460410D
:100B8000C8F80010D8F80010A26821F0F001114355
:100B9000C8F80010C0073FD1D8F8F80300F00700EC
:100BA000A84207D988F8F853D8F8F80300F00700EE
:100BB000A8424BD12068410707D5D8F80010E26859
:100BC00021F4E0511143C8F80010000708D5D8F807
:100BD0000000216920F4604040EAC100C8F800002C
:100BE00000F054F8D8F8001042F63002C1F30311B7
:100BF000C0F60002515C40F2080220FA01F140F216
:100C00000400C2F200000068C2F200021160FFF7A7
:100C1000FDFE0020BDE8F0816068811E022907D238
:100C200058F8081C89015CBF0120BDE8F08111E083
:100C3000012807D158F8081C89035CBF0120BDE8D2
:100C4000F08107E058F8081C890703D40120BDE8AB
:100C5000F08100BFD8F8001021F003010843C8F864
:100C60000000FFF7A3FE064641F28837D8F80000DF
:100C7000616800F00C00B0EB810F8DD0FFF796FE9D
:100C8000801BB842F2D90320BDE8F08110B543F6CD
:100C90000404C4F20204606800F00C0008280BD0C1
:100CA000042819BF42F20040C0F2F40047F64000A9
:100CB000C0F27D1010BD00BF206821682368490282
:100CC00047F64001C0F27D1100F03F02C3F38810E7
:100CD0005CBF42F20041C0F2F401A1FB000100231D
:100CE000FFF7CAFA21680222C1F3014102EB410178
:100CF000B0FBF1F010BD00002DE9F04182B00028FA
:100D000068D00446007843F60006C007C4F2020625
:100D10000BD0B06800F00C00042840F09F803068D1
:100D2000800302D56068002854D0207880071AD547
:100D3000B06810F00C0F09D0B06800F00C00082863
:100D400040F0A6807068400200F1A2803068800701
:100D500002D5E06801283DD13068216920F0F80013
:100D600040EAC10030602078000737D4207840077F
:100D70004CD4A56955B3B06800F00C00082840F0C9
:100D8000BB80012D26D07068E16900F480028A42A0
:100D900020D1216A00F03F028A421BD147F6C07180
:100DA000626A0140B1EB821F14D1A16A4FF6FF7352
:100DB000C903994300F44032A1F580318A4209D138
:100DC000E16A00F07060B0EB016F03D1002002B067
:100DD000BDE8F081012002B0BDE8F0816069002823
:100DE00040F20000C4F2472076D00121C0F8801EF6
:100DF000FFF7DCFD054600BF706F8007B6D4FFF734
:100E0000D5FD401B0228F7D9DDE000BF306C10F0A3
:100E100080580AD100200190306C40F0805030643E
:100E2000306C00F080500190019847F20007C4F246
:100E300000073868C00541D4386840F480703860D5
:100E4000FFF7B4FD054600BF3868C00536D4FFF78C
:100E5000ADFD401B0228F7D9B5E000BFB06800F037
:100E60000C00082803D1706840023FF558AF606855
:100E7000B0F5803F07D0B0F5A02F40F08D803068EE
:100E800040F480203060306840F4803030608DE085
:100E9000E068002852D00020C4F247200121016000
:100EA000FFF784FD054600BF306880073FF554AF6B
:100EB000FFF77CFD401B0228F6D984E0A0680128DA
:100EC00005D005284ED1306F40F004003067306FF8
:100ED00040F0010030674FE00021C0F8801EFFF7AE
:100EE00065FD0546706F80077FF540AFFFF75EFD3B
:100EF000401B0228F6D966E00027C4F247270020ED
:100F00003866FFF753FD022D05460BD1306880018E
:100F10005ED5FFF74BFD401B02284FF00300F5D9CB
:100F200055E700BF306880017FF550AFFFF73EFD09
:100F3000401B02284FF00300F4D948E70020C4F218
:100F4000472000210160FFF731FD0546306880072A
:100F50007FF509AFFFF72AFD401B02284FF0030081
:100F6000F4D934E7316F002821F001013167316F86
:100F700021F0040131674DD0FFF718FD054641F21D
:100F8000883700BF306F800756D4FFF70FFD401B36
:100F9000B842F7D917E000BF3168002821F480314A
:100FA0003160316821F4802131604FD0FFF7FEFCC1
:100FB000054600BF306880033FF5B7AEFFF7F6FC8B
:100FC000401B6428F6D9032002B0BDE8F08100BFC1
:100FD00004F11C052FCD084340EA8210D9034FF6D7
:100FE000FF729143A1F5803140EA056008437060CB
:100FF00001203866FFF7DAFC044600BF3068800144
:101000003FF5E4AEFFF7D2FC001B02284FF00300CF
:10101000F4D9DCE6FFF7CAFC054641F2883700BF89
:10102000306F800708D5FFF7C1FC401BB8424FF076
:101030000300F5D9CBE600BFB8F1000F7FF499AEFD
:10104000306C20F08050306493E600BFFFF7AEFCB8
:10105000054600BF306880037FF567AEFFF7A6FC4A
:10106000401B64284FF00300F4D9B0E6704700003D
:1010700090F851007047000070B538B10446406ADE
:1010800030B10020206104F1140007E0012070BDA0
:101090006068B0F5827F03D004F11C00002101607C
:1010A0000026A66294F8510020B9204684F85060CA
:1010B00000F03CF8022084F8510094E80F0001F49D
:1010C0008271056802F4044225F040050560114470
:1010D00003F400622369114403F0020263691144BE
:1010E00003F00102A369E569114403F4007211449D
:1010F00005F03802256A114405F08002A56A114303
:1011000005F4005211430160626A042101EA1341AF
:1011100002F0100211444160C16921F40061C16113
:101120000120666584F85100304670BD70B586B008
:101130000446016843F20000C4F20100814201D07C
:1011400006B070BD002643F630010196C4F20201DC
:101150004A6900F5504042F480524A614A6902F4FB
:1011600080520192019A01960A6842F001020A60D7
:10117000096801F0010101910199A0210191022169
:10118000CDE90216032104910521059101A9FFF77C
:1011900033FB41F2303546F24040C2F20005C4F262
:1011A00002004FF0806140224FF4806385E84700E1
:1011B0002846C5E90436C5E90666C5E90866FFF7AD
:1011C00005FA002818BFFFF717F9A564AC6306B04D
:1011D00070BD00002DE9F04383B0044690F8500044
:1011E000012803D1022003B0BDE8F0834FF00109CC
:1011F0001D4616460F4684F85090FFF7D7FB94F82B
:101200005110012944D18046002F4FF0010018BF32
:10121000002E00F0D6800320002184F85100616583
:101220002763A686E686A163A187E187A06821647B
:10123000B0F5004F2068616407D1016821F04001DA
:101240000160016841F4804101600168490603D4EE
:10125000016841F0400101606168731EE268B1FA03
:1012600081F1B3FA83F349095B09B2F5006F41EAF2
:1012700003013DD131B137F8021BC1602763E08E15
:101280000138E086E08E00286CD0681C0DD11EE08D
:10129000022096E0216B31F8022BC2602163E08EC0
:1012A0000138E086E08E00285CD0206881688907DC
:1012B000F0D4FFF77BFBA0EB0800A842F2D3032099
:1012C0007FE000BFFFF772FBE08E00284AD0206865
:1012D00081688907F6D5216B31F8022BC260216342
:1012E000E08E0138E086E08E0028F0D13AE000BFC1
:1012F00039B139780173206B01302063E08E0138F9
:10130000E086E08E70B3681C0BD11BE0216B09787E
:101310000173206B01302063E08E0138E086E08E9F
:1013200000B3206881688907F0D4FFF73FFBA0EB8A
:101330000800A842F3D3032043E000BFFFF736FBC9
:10134000E08E78B1206881688907F7D5216B09782C
:101350000173206B01302063E08E0138E086E08E5F
:101360000028EFD140F20800C2F20000006849F600
:101370008171C1F25E61A0FB0101480D4FF47A71E9
:10138000484302906068B0F5827F23D120468021D7
:101390002A46434601F06AF828B1606D40F020000B
:1013A000606520206065A06838B900200190206841
:1013B000C1680191806801900198606D002818BF94
:1013C0000120002184F8519084F8501003B0BDE84A
:1013D000F08300BF02980028E5D0029801380290FF
:1013E000206880680006DED502980028DBD00298CD
:1013F00001380290206880680006D4D50298002841
:10140000D1D0029801380290206880680006CAD5C1
:1014100002980028C7D0029801380290206880689E
:101420000006D7D4BFE7000010B5044690F850007E
:10143000012804BF022010BD012084F8500094F858
:10144000510001280AD100294FF0010018BF002ADD
:101450000AD1002184F8501010BD00BF02200021E5
:1014600084F8501010BD00BF03204FF0000E84F828
:101470005100C4F854E02163A286E286C4F838E043
:10148000C4E910EEA4F83CE0A4F83EE0A0682268AD
:10149000B0F5004F07D1106820F0400010601068D0
:1014A00040F480401060A06C42F2713C42F279330B
:1014B000C0F6000CC0F60003C0E90F3C42F2513305
:1014C000C0F60003C0E9133EE38E0C32FFF730F99B
:1014D00050B1606D40F010006065012084F851004B
:1014E000002184F8501010BD20680168490603D41B
:1014F000016841F040010160416841F02001416014
:10150000416841F0020141600020002184F8501040
:1015100010BD00007047000070470000411E002011
:10152000B0EB116F1CBF012070474EF21002CEF2DB
:10153000000251604EF62351CEF20001F0230B70F1
:101540000721906011607047FEE700002DE9F0412F
:1015500082B0054640F200442A20984617460E46BF
:10156000C4F2020400F0BCFE28BA000CADF8000082
:10157000204604210022FFF713FA41F29035C2F20F
:10158000000500BF2846FFF773FD0128FAD141F29C
:101590009035C2F20005694628460222FF23FFF774
:1015A00019FE204604210122FFF7FAF938BA000C8F
:1015B000ADF80200204604210022FFF7F1F900BF38
:1015C0002846FFF755FD0128FAD141F29037C2F2C3
:1015D00000070DF1020138460222FF23FFF7FAFD52
:1015E000204604210122FFF7DBF92B2000F078FED2
:1015F00030BA000CADF80400204604210022FFF7A9
:10160000CFF900BF3846FFF733FD0128FAD141F288
:101610009035C2F2000501A928460222FF23FFF7F8
:10162000D9FD204604210122FFF7BAF998FA88F083
:10163000000CADF80600204604210022FFF7B0F9A7
:101640002846FFF715FD0128FAD141F29030C2F289
:1016500000000DF106010222FF23FFF7BBFD20462B
:1016600004210122FFF79CF92C2000F039FE02B082
:10167000BDE8F081F0B585B0002043F63001009060
:10168000C4F202010A6840F2004442F001020A601A
:101690000A68C4F2020402F001020092009A00906B
:1016A0000A686D4642F008020A600A68012602F0E4
:1016B00008020092009A00900868022740F0020099
:1016C00008600868294600F0020000900098042095
:1016D00000902046CDE901660397FFF78DF820467C
:1016E00004210122FFF75CF920462946CDE9006676
:1016F000CDE90267FFF780F8204601210122FFF7BC
:101700004FF940F20240CDE9000620462946CDE9D6
:101710000267FFF771F8204640F202410122FFF70D
:101720003FF905B0F0BD000070B582B040F2004452
:10173000C4F20204FFF79EFF204601210122FFF7B9
:101740002FF90A20FFF744F8204601210022002546
:10175000FFF726F90A20FFF73BF820460121012276
:10176000FFF71EF97820FFF733F820464FF4806129
:101770000122FFF715F9112000F0B2FD7820FFF7E4
:1017800027F8362000F0ACFD2046042100228DF819
:101790000750FFF705F941F29035C2F2000500BF8E
:1017A0002846FFF765FC0128FAD141F29035C2F2D4
:1017B00000050DF1070128460122FF23FFF70AFD6E
:1017C000204604210122FFF7EBF83A2000F088FDC3
:1017D00005208DF80700204604210022FFF7E0F8DD
:1017E0002846FFF745FC0128FAD141F29035C2F2B4
:1017F00000050DF1070128460122FF23FFF7EAFC4F
:10180000204604210122FFF7CBF8B22000F068FD4A
:1018100005208DF80700204604210022FFF7C0F8BC
:101820002846FFF725FC0128FAD141F29035C2F293
:1018300000050DF1070128460122FF23FFF7CAFC2E
:10184000204604210122FFF7ABF805208DF80700A0
:10185000204604210022FFF7A3F800BF2846FFF727
:1018600007FC0128FAD141F29035C2F200050DF1D2
:10187000070128460122FF23FFF7ACFC2046042184
:101880000122FFF78DF800208DF807002046042183
:101890000022FFF785F800BF2846FFF7E9FB012883
:1018A000FAD141F29035C2F200050DF10701284648
:1018B0000122FF23FFF78EFC204604210122FFF7BF
:1018C0006FF833208DF80700204604210022FFF72F
:1018D00067F800BF2846FFF7CBFB0128FAD141F299
:1018E0009035C2F200050DF1070128460122FF23C1
:1018F000FFF770FC204604210122FFF751F8332046
:101900008DF80700204604210022FFF749F800BFA8
:101910002846FFF7ADFB0128FAD141F29035C2F21B
:1019200000050DF1070128460122FF23FFF752FCB5
:10193000204604210122FFF733F8B72000F0D0FC45
:1019400035208DF80700204604210022FFF728F8F3
:101950002846FFF78DFB0128FAD141F29035C2F2FB
:1019600000050DF1070128460122FF23FFF732FC95
:10197000204604210122FFF713F8BB2000F0B0FC41
:1019800021208DF80700204604210022FFF708F8E7
:101990002846FFF76DFB0128FAD141F29035C2F2DB
:1019A00000050DF1070128460122FF23FFF712FC75
:1019B000204604210122FEF7F3FFC02000F090FC36
:1019C0002C208DF80700204604210022FEF7E8FFB6
:1019D0002846FFF74DFB0128FAD141F29035C2F2BB
:1019E00000050DF1070128460122FF230126FFF71C
:1019F000F1FB204604210122FEF7D2FFC22000F0B5
:101A00006FFC2046042100228DF80760FEF7C8FF16
:101A10002846FFF72DFB0128FAD141F29035C2F29A
:101A200000050DF1070128460122FF23FFF7D2FB35
:101A3000204604210122FEF7B3FFC32000F050FC32
:101A40000B208DF80700204604210022FEF7A8FF96
:101A50002846FFF70DFB0128FAD141F29035C2F27A
:101A600000050DF1070128460122FF23FFF7B2FB15
:101A7000204604210122FEF793FFC42000F030FC31
:101A800020208DF80700204604210022FEF788FF61
:101A90002846FFF7EDFA0128FAD141F29035C2F25B
:101AA00000050DF1070128460122FF23FFF792FBF5
:101AB000204604210122FEF773FFC62000F010FC2F
:101AC0000F208DF80700204604210022FEF768FF52
:101AD0002846FFF7CDFA0128FAD141F29035C2F23B
:101AE00000050DF1070128460122FF23FFF772FBD5
:101AF000204604210122FEF753FFD02000F0F0FB26
:101B0000A7208DF80700204604210022FEF748FF99
:101B10002846FFF7ADFA0128FAD141F29035C2F21A
:101B200000050DF1070128460122FF23FFF752FBB4
:101B3000204604210122FEF733FFA1208DF8070083
:101B4000204604210022FEF72BFF00BF2846FFF7A6
:101B50008FFA0128FAD141F29035C2F200050DF159
:101B6000070128460122FF23FFF734FB204604210A
:101B70000122FEF715FFD02000F0B2FBA4208DF863
:101B80000700204604210022FEF70AFF2846FFF73F
:101B90006FFA0128FAD141F29035C2F200050DF139
:101BA000070128460122FF23FFF714FB20460421EA
:101BB0000122FEF7F5FEA1208DF807002046042142
:101BC0000022FEF7EDFE00BF2846FFF751FA01287C
:101BD000FAD141F29035C2F200050DF10701284615
:101BE0000122FF23FFF7F6FA204604210122FEF727
:101BF000D7FED62000F074FBA1208DF80700204608
:101C000004210022FEF7CCFE2846FFF731FA012816
:101C1000FAD141F29035C2F200050DF107012846D4
:101C20000122FF23FFF7D6FA204604210122FEF706
:101C3000B7FEE02000F054FBD0208DF807002046CE
:101C400004210022FEF7ACFE2846FFF711FA012816
:101C5000FAD141F29035C2F200050DF10701284694
:101C60000122FF23FFF7B6FA2046042101220426B1
:101C7000FEF796FE2046042100228DF80760FEF74D
:101C80008FFE00BF2846FFF7F3F90128FAD141F291
:101C90009035C2F200050DF1070128460122FF230D
:101CA000FFF798FA204604210122FEF779FE08206A
:101CB0008DF80700204604210022FEF771FE00BFC8
:101CC0002846FFF7D5F90128FAD141F29035C2F242
:101CD00000050DF1070128460122FF23FFF77AFADC
:101CE000204604210122FEF75BFE0A208DF8070042
:101CF000204604210022FEF753FE00BF2846FFF7CE
:101D0000B7F90128FAD141F29035C2F200050DF180
:101D1000070128460122FF23FFF75CFA2046042131
:101D20000122FEF73DFE09208DF807002046042120
:101D30000022FEF735FE00BF2846FFF799F901287B
:101D4000FAD141F29035C2F200050DF107012846A3
:101D50000122FF23FFF73EFA204604210122FEF76D
:101D60001FFE05208DF80700204604210022FEF703
:101D700017FE00BF2846FFF77BF90128FAD141F290
:101D80009035C2F200050DF1070128460122FF231C
:101D9000FFF720FA204604210122FEF701FE2D2044
:101DA0008DF80700204604210022FEF7F9FD00BF50
:101DB0002846FFF75DF90128FAD141F29035C2F2C9
:101DC00000050DF1070128460122FF23FFF702FA63
:101DD000204604210122FEF7E3FD43208DF8070091
:101DE000204604210022FEF7DBFD00BF2846FFF756
:101DF0003FF90128FAD141F29035C2F200050DF108
:101E0000070128460122FF23FFF7E4F920460421B9
:101E10000122FEF7C5FD49208DF807002046042168
:101E20000022FEF7BDFD00BF2846FFF721F901287B
:101E3000FAD141F29035C2F200050DF107012846B2
:101E40000122FF23FFF7C6F9204604210122FEF7F5
:101E5000A7FD09208DF80700204604210022FEF787
:101E60009FFD00BF2846FFF703F90128FAD141F290
:101E70009035C2F200050DF1070128460122FF232B
:101E8000FFF7A8F9204604210122FEF789FD16205C
:101E90008DF80700204604210022FEF781FD00BFD7
:101EA0002846FFF7E5F80128FAD141F29035C2F251
:101EB00000050DF1070128460122FF23FFF78AF9EB
:101EC000204604210122FEF76BFD15208DF8070046
:101ED000204604210022FEF763FD00BF2846FFF7DD
:101EE000C7F80128FAD141F29035C2F200050DF190
:101EF000070128460122FF23FFF76CF92046042141
:101F00000122FEF74DFD26208DF807002046042112
:101F10000022FEF745FD00BF2846FFF7A9F801287B
:101F2000FAD141F29035C2F200050DF107012846C1
:101F30000122FF23FFF74EF9204604210122FEF77C
:101F40002FFD2B208DF80700204604210022FEF7EC
:101F500027FD00BF2846FFF78BF80128FAD141F290
:101F60009035C2F200050DF1070128460122FF233A
:101F7000FFF730F9204604210122FEF711FDE12090
:101F800000F0AEF9D0208DF8070020460421002291
:101F9000FEF706FD2846FFF76BF80128FAD141F25B
:101FA0009035C2F200050DF1070128460122FF23FA
:101FB000FFF710F9204604210122FEF7F1FC03206F
:101FC0008DF80700204604210022FEF7E9FC00BF3F
:101FD0002846FFF74DF80128FAD141F29035C2F2B8
:101FE00000050DF1070128460122FF23FFF7F2F853
:101FF000204604210122FEF7D3FC09208DF80700BA
:10200000204604210022FEF7CBFC00BF2846FFF744
:102010002FF80128FAD141F29035C2F200050DF1F6
:10202000070128460122FF23FFF7D4F820460421A8
:102030000122FEF7B5FC0A208DF807002046042196
:102040000022FEF7ADFC00BF2846FFF711F801287B
:10205000FAD141F29035C2F200050DF10701284690
:102060000122FF23FFF7B6F8204604210122FEF7E4
:1020700097FC0A208DF80700204604210022FEF775
:102080008FFC00BF2846FEF7F3FF0128FAD141F28A
:102090009035C2F200050DF1070128460122FF2309
:1020A000FFF798F8204604210122FEF779FC06206C
:1020B0008DF80700204604210022FEF771FC00BFC6
:1020C0002846FEF7D5FF0128FAD141F29035C2F239
:1020D00000050DF1070128460122FF23FFF77AF8DA
:1020E000204604210122FEF75BFC2E208DF807001C
:1020F000204604210022FEF753FC00BF2846FEF7CD
:10210000B7FF0128FAD141F29035C2F200050DF176
:10211000070128460122FF23FFF75CF8204604212F
:102120000122FEF73DFC44208DF8070020460421E3
:102130000022FEF735FC00BF2846FEF799FF012874
:10214000FAD141F29035C2F200050DF1070128469F
:102150000122FF23FFF73EF8204604210122FEF76B
:102160001FFC40208DF80700204604210022FEF7C6
:1021700017FC00BF2846FEF77BFF0128FAD141F289
:102180009035C2F200050DF1070128460122FF2318
:10219000FFF720F8204604210122FEF701FC3A2037
:1021A0008DF80700204604210022FEF7F9FB00BF4E
:1021B0002846FEF75DFF0128FAD141F29035C2F2C0
:1021C00000050DF1070128460122FF23FFF702F861
:1021D000204604210122FEF7E3FB15208DF80700BD
:1021E000204604210022FEF7DBFB00BF2846FEF755
:1021F0003FFF0128FAD141F29035C2F200050DF1FE
:10220000070128460122FF23FEF7E4FF20460421B0
:102210000122FEF7C5FB15208DF80700204604219A
:102220000022FEF7BDFB00BF2846FEF721FF012874
:10223000FAD141F29035C2F200050DF107012846AE
:102240000122FF23FEF7C6FF204604210122FEF7EC
:10225000A7FB26208DF80700204604210022FEF768
:102260009FFB00BF2846FEF703FF0128FAD141F289
:102270009035C2F200050DF1070128460122FF2327
:10228000FEF7A8FF204604210122FEF789FB2A2041
:102290008DF80700204604210022FEF781FB00BFD5
:1022A0002846FEF7E5FE0128FAD141F29030C2F24D
:1022B00000000DF107010122FF23FEF78BFF2046EE
:1022C00004210122FEF76CFB212000F009F82920EF
:1022D00000F006F80A20FEF77BFA02B070BD00009D
:1022E000B0B582B040F20044C4F202048DF8070099
:1022F000204602210022FEF753FB20460421002243
:10230000FEF74EFB41F29035C2F200052846FEF77B
:10231000AFFE0128FAD141F29030C2F200000DF177
:1023200007010122FF23FEF755FF20460421012269
:10233000FEF736FB204602210122FEF731FB02B0F8
:10234000B0BD0000FEE70000FEE70000704700009F
:10235000806B01684A6822F003024A60416D41F0D7
:1023600010014165012180F85110FEF77FBE000089
:10237000806BFFF7D1B80000B0B582B0846B054622
:10238000FEF714FB29680968C90569D4034620686B
:1023900049F681724168C1F25E6221F0200141601C
:1023A000416821F00201416040F20801C2F20001DF
:1023B0000968A1FB0212510D4FF47A725143019149
:1023C0006168B1F5827F25D120468021642200F02A
:1023D0004DF838B1606D40F020006065606D40F0F0
:1023E00020006065A06838B9002000902068C168AE
:1023F00000918068009000980020E086012084F819
:102400005100606D60B3204602B0BDE8B040FEF7F9
:102410002DBE00BF01990029E4D001990139019135
:1024200081680906DED501990029DBD001990139BF
:10243000019181680906D5D501990029D2D0019969
:102440000139019181680906CCD501990029C9D0CB
:1024500001990139019181680906DBD4C2E700BF07
:10246000204602B0BDE8B040FFF754B82DE9F04176
:1024700082B01E4690460D460446FEF797FA301A83
:1024800000EB0807FEF792FA40F20801C2F20001E1
:102490000968C1F3CB317943019121688A682A40E8
:1024A000AA4227D1064618F101001FD0FEF77EFA96
:1024B000801BB84222D2019801990028A1F10101A4
:1024C00001912168896808BF074601EA0500A84212
:1024D000ECD00FE088682840A8420BD188682840DB
:1024E000A84207D188682840A84203D188682840BC
:1024F000A842EFD0002002B0BDE8F081D4E900018D
:102500004268B1F5827F22F0E00242600AD1A16800
:10251000B1F5004F02D0B1F5806F03D1016821F011
:1025200040010160A16AB1F5005F07D1016821F4A3
:1025300000510160016841F400510160012084F8FC
:102540005100002084F85000032002B0BDE8F08163
:1025500070470000FEF730BA70B592B0002443F621
:102560004000CDE90A44CDE908440594CDE903448F
:10257000CDE901440094C4F202000168022541F053
:102580008051016000680F2600F080500090009894
:1025900047F200000094C4F20000016841F4404199
:1025A0000160006800F4404000900098012006900F
:1025B0004FF4803007904FF480000D9090200F90E2
:1025C000042010900520119006A80C950E96FEF799
:1025D00093FB28B1EFF3108072B600BFFEE700BF97
:1025E0004FF48050CDE9040401A80121CDE9016533
:1025F0000394FEF79BFA28B1EFF3108072B600BF88
:10260000FEE700BF12B070BD4EF68850CEF200005B
:10261000016841F47001016070470000F0B581B0BD
:1026200040F27003010A0022C2F200039F1899547D
:102630002832B2F5965F7870B970F8703971787198
:10264000B971F87139727872B972F8723973787336
:10265000B973F87339747874B974F8743975787516
:10266000B975F87539767876B976F87639777877F6
:10267000B977F87787F8201087F8210087F82210BB
:1026800087F8230087F8241087F8250087F826109C
:1026900087F82700CAD140F2004400200021EF2231
:1026A00040F23F13C4F202040027FEF74FFF20461A
:1026B00004210022FEF774F941F2903540F27006D1
:1026C000C2F20005C2F20006284631464FF4965287
:1026D000FEF7AAFEA86CFDF795FE0228FAD000BF0F
:1026E0002846FEF7C5FC0128FAD10137212FEBD18E
:1026F0000A20FEF76DF820460421012201B0BDE852
:10270000F040FEF74DB90000FEE7000084B0FEF790
:1027100061F9FFF721FF002443F630000294C4F270
:1027200002000168002241F080010160016801F0AF
:102730008001029102990194016841F00101016058
:10274000016801F00101019101990394016841F4CC
:10275000800101600068002100F48000039003986C
:102760003A20FEF7A7F93A20FEF790F941F29030AF
:1027700043F20001C2F20000C4F201014FF4827280
:1027800002234FF0010C4FF4007E80E816000A216E
:10279000C0E90343C0E905CEC461C0E90844C0E90B
:1027A0000A41FEF769FC28B1EFF3108072B600BF52
:1027B000FEE700BFFEF7B8FF4FF6FF70FFF72EFFF2
:1027C0004FF47A70FEF704F81F20FFF727FF4FF44D
:1027D0007A70FDF7FDFF4FF47840FFF71FFF4FF4CD
:1027E0007A70FDF7F5FF4FF4FC60FFF717FF4FF429
:1027F0007A70FDF7EDFF4FF6E070FFF70FFF4FF433
:102800007A70FDF7E5FF0020FFF708FF4FF47A70BC
:10281000FDF7DEFFD0E7F1EE100A4FF6FF71C0F2D0
:10282000C03120EA010040F04070E1EE100A70472C
:102830000000000000000000010203040607080970
:102840000006101600061016682800080000002078
:1028500010000000D40100087828000810000020B3
:10286000E0190000F0010008010000001000000065
:082870000024F4000000000048
:040000050800019955
:00000001FF
