:020000040800F2
:100000005809002089010008B91F0008B11F000825
:10001000B51F000845020008492100080000000043
:10002000000000000000000000000000C11F0008E8
:100030007902000800000000BD1F0008C51F00086D
:10004000A3010008A3010008A3010008A301000800
:10005000A3010008A3010008A3010008A3010008F0
:10006000A3010008A3010008A3010008A3010008E0
:100070004902000855020008610200086D020008EC
:10008000A3010008A3010008A3010008A3010008C0
:10009000A3010008A3010008A3010008A3010008B0
:1000A000A3010008A3010008A3010008A3010008A0
:1000B000A3010008A3010008A3010008A301000890
:1000C000A3010008A3010008A3010008A301000880
:1000D000A3010008D9200008A3010008A30100081B
:1000E000A3010008A3010008A301000800F002F822
:1000F00000F03AF80AA090E8000C82448344AAF188
:100100000107DA4501D100F02FF8AFF2090EBAE885
:100110000F0013F0010F18BFFB1A43F0010318473B
:10012000F422000014230000103A24BF78C878C1DC
:10013000FAD8520724BF30C830C144BF04680C60ED
:10014000704700000023002400250026103A28BF35
:1001500078C1FBD8520728BF30C148BF0B60704739
:100160001FB51FBD10B510BD00F031F81146FFF7E7
:10017000F7FF01F0EBFF00F04FF803B4FFF7F2FFD9
:1001800003BC00F057F800000948804709480047C1
:10019000FEE7FEE7FEE7FEE7FEE7FEE7FEE7FEE737
:1001A000FEE7FEE704480549054A064B7047000094
:1001B000C91F0008ED00000858030020580900205E
:1001C0005805002058050020704770477047754655
:1001D00000F02CF8AE4605006946534620F00700B3
:1001E000854618B020B5FFF7DDFFBDE820404FF091
:1001F00000064FF000074FF000084FF0000BAC4630
:10020000ACE8C009ACE8C009ACE8C009ACE8C0097A
:1002100021F007018D46704710B50446AFF300800A
:100220002046BDE81040FFF7A8BF00000048704717
:100230001000002001491820ABBEFEE72600020096
:1002400070470000FEE7000040F2C400C2F2000068
:1002500000F098B840F20810C2F2000000F092B826
:1002600040F24C10C2F2000000F08CB840F2901046
:10027000C2F2000000F086B870470000EFF3108073
:1002800072B600BFFEE70000014690F82100022888
:1002900016D10868D1E90FC3026822F00E0202608D
:1002A000026822F001020260012000FA03F2CCF899
:1002B000042081F821000020002281F820207047CE
:1002C000042088630120002281F82020704700006C
:1002D00080B590F82110022924D10268116821F01C
:1002E0000E0111602F211368C4F202018A4240F20C
:1002F0000401C4F2020123F00103136016DD302370
:10030000C4F202039A421DD04423C4F202039A426B
:100310001CD05823C4F202039A421DD14FF48033FB
:1003200022E000BF04218163012080BD0823C4F2C4
:1003300002039A420ED01C23C4F202039A420BD14C
:10034000102311E04FF480730EE000BF4FF4805390
:100350000AE000BF012307E001F1680C4FF0807351
:10036000624508BF4FF480130B60012180F8211013
:10037000426B002180F820100AB190470021084606
:1003800080BD000010B5D0E90FCE0168DCF8003068
:100390000A6823FA0EF35C072AD512F0040427D06A
:1003A0000A68920603D40A6822F004020A602F2227
:1003B000C4F20202914240F20402C4F202025BDD86
:1003C0003023C4F20203994272D04423C4F20203E0
:1003D000994273D05823C4F20203994240F07A80C4
:1003E0004FF480231360C16A002940F098806FE0C9
:1003F0009C0727D512F0020424D00A68920606D47E
:100400000A6822F00A020A60012280F821202F22C5
:10041000C4F20202914240F20402C4F202023BDD45
:100420003023C4F20203994260D04423C4F2020391
:1004300099425FD05823C4F20203994260D14FF42D
:10044000003365E01B0743D512F0080208BF10BD5A
:100450000A6822F00E020A60012101FA0EF2CCF8BD
:100460000420816380F82110016B0022002980F8AC
:10047000202054D12CE000BF0823C4F2020399428B
:1004800022D01C23C4F20203994223D140231360DB
:10049000C16A002943D11BE00823C4F20203994238
:1004A0002CD01C23C4F20203994229D120232FE02F
:1004B0004FF480631360C16A89BB09E04FF4804345
:1004C0001360C16A59BB03E004231360C16A31BBE6
:1004D00010BD00BF02F168044FF08063A14208BF65
:1004E0004FF480031360C16AC9B9F1E74FF4007398
:1004F0000EE000BF4FF400530AE000BF022307E004
:1005000002F168044FF00073A14208BF4FF40013DA
:100510001360816A0022002980F82020D8D0BDE82D
:1005200010400847014600284FF0010008BF7047FF
:100530002DE9F043D1F800C04FF6F873CBF6FD7308
:100540004CF6CD426344CCF6CC42A3FB02236FF0C1
:10055000030707EA93030027C4F2020701F10C091D
:10056000C1E90F730223D1E9012E99E87002D1F895
:100570001C8081F82130DCF8003043F6F077BB4373
:100580001A4342EA0E0222432A43324342EA090254
:1005900042EA0802CCF8002000228A6381F8210098
:1005A00081F820200020BDE8F04370472DE9F04F8E
:1005B00082B00E68002E00F0038141F20042C4F2C6
:1005C0000102042340F2004E904208BF03234FF67D
:1005D000FF7CC4F2010E009300240123C1F2100C31
:1005E0004FF0000A4FF0000949E000BF012704F076
:1005F0000C030F229A402BEA020207FA03F34FEA98
:100600009A051A4346F82520D1F804B040F20C456B
:100610005FEACB22DEF8082054BF22EA080242EA51
:100620000802C4F20105CEF808202A685FEA8B238D
:1006300054BF22EA080242EA08022A605FEA8B33CA
:10064000DEF8042054BF22EA080242EA08025FEA08
:10065000CB33CEF80420DEF800204FF0010354BF66
:1006600022EA080242EA0802CEF800200E680AF1E7
:10067000010A36FA0AF204F1040400F0A18003FA38
:100680000AF816EA080FF1D04E68664512DC122E01
:1006900056D8DFE806F0350B4549555555555555A3
:1006A000555555555555554D510000BFD1F80C9035
:1006B00046E000BF4FF6FF72C1F2210296420FDC06
:1006C0000022C1F2110296421AD00022C1F2120297
:1006D000964215D00022C1F22102964210D02FE09E
:1006E0000022C1F2220296420AD00022C1F2310257
:1006F000964205D00022C1F23202964220D100BFBC
:100700008A684AB1012A14BFC0F81480C0F810806A
:100710004FF0080914E000BF4FF0040910E000BFDB
:10072000CA6802F108090BE04FF0000908E000BFB9
:10073000CA6802F1040903E0CA6802F10C0900BFAB
:1007400022460646BAF1080F24BF203A043637681D
:100750000F25954027EA050509FA02F22A4332607F
:10076000CA79D2067FF582AF41F21803C4F20203C0
:100770001A68AEF57E7642F001021A601A6802F03D
:1007800001020192019A2AF0030256F802B040F6E3
:100790000002C4F20102904210D040F60042C4F2BE
:1007A000010290423FF422AF41F20002C4F2010282
:1007B000009F904208BF022719E700BF002716E7F5
:1007C00002B0BDE8F08F0000002A08BF09040161F3
:1007D0007047000040F25030C2F2000000687047DD
:1007E00040F2000040F25031C2F20000C2F20001BB
:1007F00000780A68104408607047000080B542F233
:100800000000C4F20200016841F010010160032001
:1008100000F086F80F2000F005F800F027F800201F
:1008200080BD000070B540F20006C2F2000640F242
:1008300008013278C2F200014FF47A730968B3FB01
:10084000F2F20446B1FBF2F1084600F0E5FF0F2C8E
:100850004FF0010508D838B94FF0FF30214600228B
:10086000002500F031F87460284670BD82B041F276
:100870001800C4F20200016841F001010160016842
:1008800001F0010101910199416841F080514160FD
:10089000406800F080500090009802B0704700005F
:1008A000002848BF7047C1B200F01F00012202FAC1
:1008B00000F04EF20012CEF2000242EAD10121F025
:1008C000030108607047000010B54EF60C5CCEF2D4
:1008D000000CDCF80030C3F3022E8EF00704042C69
:1008E00028BF0424BEF103034FF0FF3E0EFA04F4C8
:1008F00038BF0023A14399400EFA03F39A431143F2
:1009000000F00F0200F160430901043A03F564436B
:100910006244002848BF02F10C03197010BD0000AA
:100920004EF60C51CEF200010A684FF6FF031A4052
:1009300060F30A2242F0806040F0FD70086070476A
:100940002020C4F20E2001210160704780B50128EB
:1009500018D0022836D0102832D141F20401C4F256
:1009600002010A6851F8040CC00129D5C2F3834082
:100970002DA3185CD2033DD440F60012C0F23D0214
:10098000504343E041F20400C4F20200C16940F266
:1009900002320A40B2F5817F04BF4FF4004080BDAF
:1009A00001F44071B1F5407F1CD0B1F5007F07D153
:1009B000006A49F64041800701EAE07080BD00BF4F
:1009C000002080BD00F0B4F941F20401C4F202013C
:1009D00009680222C1F3813102EB4101B0FBF1F061
:1009E00080BD00BF50F8040C4FF22441800301EA9F
:1009F000E07080BD0A6810A3C2F340429A5C41F2E5
:100A00000023C0F27A03B3FBF2F2504309684902B3
:100A100048BF80BD4AF6AB214000CAF6AA21A0FB20
:100A20000101480880BD00BF02030405060708094C
:100A30000A0B0C0D0E0F1010010200002DE9F04101
:100A400082B00446007841F21C06C007C4F20206D8
:100A50004AD0306810F0805808D1306840F080509B
:100A60003060306800F080500190019847F2000734
:100A7000C4F200073868C00512D4386840F48070AA
:100A80003860FFF7A7FE05463868C00508D4FFF7B1
:100A9000A1FE401B6428F7D9032002B0BDE8F08115
:100AA000706810F4407012D0616801F4407188429F
:100AB0000DD0706840F24042C4F24222012320F47B
:100AC000407113600023C007136071602AD1706801
:100AD000616820F440700843B8F1000F706003D1E2
:100AE000306820F0805030602068810707D556F8C4
:100AF000181CA26821F44041114346F8181CC00696
:100B000004D4002002B0BDE8F08100BF56F8180CF4
:100B1000E16820F48000084346F8180C002002B079
:100B2000BDE8F081FFF756FE054641F2883700BF69
:100B300070688007CBD4FFF74DFE401BB8424FF0E2
:100B40000300F5D9EBE700002DE9F04381B0002860
:100B500000F0858042F20008C4F202080446D8F88A
:100B600000000D4600F0070088420CD2D8F80000C3
:100B700020F007002843C8F80000D8F8000000F073
:100B80000700A8426BD1206841F204098107C4F232
:100B9000020917D5410705D5D9F8001041F4E061E5
:100BA000C9F80010010705D5D9F8001041F46051CB
:100BB000C9F80010D9F80010A26821F0F001114323
:100BC000C9F80010C00741D1D8F8000000F00700B4
:100BD000A8420CD9D8F8000020F007002843C8F834
:100BE0000000D8F8000000F00700A84237D12068C4
:100BF000410707D5D9F80010E26821F4E0611143FC
:100C0000C9F80010000708D5D9F80000216920F4C0
:100C1000605040EAC100C9F80000D9F8002002F095
:100C20000C00082841F20020C0F27A0050D142F2B4
:100C30000443C2F38341C0F60003595CD2033BD4A2
:100C400040F60010C0F23D00484341E060680228D1
:100C50000AD001282AD159F8041C890308D401209C
:100C600001B0BDE8F08300BF59F8041C8901F6D536
:100C7000D9F8001021F003010843C9F80000FFF77C
:100C8000A9FD064641F28837D9F80000616800F0F6
:100C90000C00B0EB810F97D0FFF79CFD801BB84292
:100CA000F2D9032001B0BDE8F08300BF59F8041C5D
:100CB0008907D4D5DCE700BFD9F8002042F202430F
:100CC000C2F34042C0F600039A5C4843B0FBF2F026
:100CD000D9F8001042F2EA32C1F30311C0F6000263
:100CE000515C40F2080220FA01F140F20400C2F225
:100CF00000000068C2F200021160FFF793FD0020BF
:100D000001B0BDE8F083000040F2080041F20401A8
:100D1000C2F20000C4F202010068096842F2FA322D
:100D2000C1F30221C0F60002515CC84070470000C8
:100D300040F2080041F20401C2F20000C4F20201D4
:100D40000068096842F2FA32C1F3C221C0F600021B
:100D5000515CC840704700002DE9F04182B0002886
:100D600068D00446007841F20006C007C4F20206CB
:100D700025D0706800F00C0004281BD0706800F0CB
:100D80000C00082802D17068C00313D460680028E2
:100D900000F06881B0F5A02F00F07C81B0F5803FB5
:100DA00000F07C81306820F480303060306820F4BE
:100DB000802076E13068800301D56068D0B3207868
:100DC000800718D5706810F00C0F07D0706800F01D
:100DD0000C0008286ED17068C0036BD4306880079F
:100DE00002D52069012825D13068616920F0F8001A
:100DF00040EAC1003060207800071FD42078400707
:100E000032D4E56995B1706800F00C00082840F014
:100E10008F80012D0ED07068216A00F480328A42E2
:100E200008D1616A00F47010884203D1002002B03A
:100E3000BDE8F081012002B0BDE8F081A069002882
:100E400062D00020C4F242200121C0F88014FFF7D4
:100E5000C1FC0546706A800700F18C80FFF7BAFC80
:100E6000401B0228F6D92AE1F06910F0805808D119
:100E7000F06940F08050F061F06900F0805000901F
:100E8000009847F20007C4F200073868C00529D46B
:100E9000386840F480703860FFF79CFC054600BF5E
:100EA0003868C0051ED4FFF795FC401B6428F7D9AD
:100EB00005E100BF2069002840F20000C4F2422092
:100EC00000F0828001210160FFF784FC054600BF2D
:100ED000306880073FF588AFFFF77CFC401B022895
:100EE000F6D9ECE0E068002800F08080052800F0EA
:100EF0009780012800F09880306A20F0010030626D
:100F0000306A20F0040092E00020C4F24220002168
:100F1000C0F88014FFF75EFC054600BF706A8007CA
:100F20007FF56CAFFFF756FC401B0228F6D9C6E0F0
:100F30000027C4F2422700203866FFF74BFC022D41
:100F400005460BD13068800140F1BE80FFF742FCBE
:100F5000401B02284FF00300F4D968E73068800195
:100F60007FF564AFFFF736FC401B02284FF003000B
:100F7000F4D95CE740F20800C2F20000006844F6D1
:100F8000D351C1F26201A0FB0101480A019000BFE8
:100F900000BF0198411E002801913FF42FAF00BF10
:100FA0000198411E002801913FF428AF00BF01982D
:100FB000411E002801913FF421AF00BF0198411E5E
:100FC00000280191E4D119E700210160FFF702FC3C
:100FD000054600BF306880077FF50DAFFFF7FAFBCD
:100FE000401B02284FF00300F4D920E7306A20F0BC
:100FF00001003062306A20F004003062FFF7EAFB43
:10100000054641F2883700BF306A800720D5FFF7D8
:10101000E1FB401BB8424FF00300F5D907E700BFE2
:10102000306A40F004003062306A40F00100306203
:10103000FFF7D0FB054641F2883700BF306A8007D2
:1010400006D4FFF7C7FB401BB842F7D937E000BF13
:10105000B8F1000F7FF4D5AEF06920F08050F06158
:10106000CFE600BF306820F480303060306820F474
:1010700080203060FFF7AEFB054600BF306880037C
:101080007FF59DAEFFF7A6FB401B64284FF00300E1
:10109000F4D9CCE6306840F480203060306840F409
:1010A00080303060FFF796FB054600BF3068800354
:1010B0003FF585AEFFF78EFB401B6428F6D9032071
:1010C00002B0BDE8F08100BF206AB0F5803F05D1D5
:1010D0007168A26821F40031114371607168626A1D
:1010E00021F4741111430843706001203866FFF742
:1010F00071FB0446306880013FF598AEFFF76AFB4C
:10110000001B02284FF00300F4D990E670B50028C8
:1011100066D00446407C20B900202074204600F0B0
:101120006FF8022060742068416821F00801416076
:10113000FFF750FB064600BF20684568FFF74AFBF3
:10114000290705460ED4A81BB0F57A7FF4D90125EE
:1011500004206074284670BDFFF73CFB401BB0F5CF
:101160007A7FF4D8216848688006F5D5486846F645
:101170002C4240F0100048604868C4F2000220F0A1
:1011800007004860A06818B1536823F0010353605A
:10119000136823F46073184310606068421C06D122
:1011A00001200125FFF7D2FB30B321680138C0F3DD
:1011B000034280B28A60C860486820F0100048602E
:1011C000FFF708FB054600BF20684068800609D489
:1011D000FFF700FB401BB0F57A7FF5D9B7E700BFFA
:1011E000012070BD40F201100025A4F80D0001207F
:1011F000E5736074284670BD04206074284670BD95
:1012000080B582B0006842F60001C4F20001884255
:1012100002D002B080BD00BFFFF792FB41F21C007C
:10122000C4F20200016841F0006101600068012120
:1012300000F000600190019840F23C40C4F242206E
:10124000016002B080BD0000F0B581B00446002806
:101250004FF0010018BF002902D101B0F0BD00BF5E
:10126000207C01284FF00200F7D001232374607422
:10127000CB78BAB1180900EB800003F00F0202EB43
:10128000400348788A78070907EB870700F00F00CA
:1012900000EB4707100900EB800002F00F0202EBA1
:1012A000400001E04F788878022FDAB2E373677369
:1012B000A0730FD817237B4348F63967C3F6E307BB
:1012C000A3FB0737C7F3470C02F2CF7340F2D47E7B
:1012D0000CE000BF47F2D916FFB2C0F21406774304
:1012E00002F5FA634FEAD74C40F2D27EC0B2104406
:1012F0009D0841F27B4770446F431D0940F63E262E
:1013000000EB93007543A0EB574000EB15406044A1
:1013100082B242F293435A43A0EB12439BB25B0862
:1013200003EB12429208A2EBC2021044226820731F
:1013300008709169D0699369002683EA01073F0428
:101340001CBFD069194680B240EA014045F6907151
:10135000C0F2010188421BD344F20751CCF22E2186
:10136000A0FB0112110C40F2A3225143A0EBC117C4
:10137000FFF730FA054600BF2068416889060DD4A2
:10138000FFF728FA401BB0F57A7FF5D920E000BFBF
:10139000012100206174267401B0F0BD416841F064
:1013A00010014160390C8161B9B2C161416821F01D
:1013B00010014160FFF70EFA054600BF2068416842
:1013C00089060BD4FFF706FA401BB0F57A7FF5D9F2
:1013D000012004216174267401B0F0BD016A406AE5
:1013E00080B240EA0140B84230D200F5803000F5CA
:1013F000A347FFF7EFF9054620684168890607D43F
:10140000FFF7E8F9401BB0F57A7FF5D9E0E700BFB8
:10141000416841F010014160390C0162B9B241628A
:10142000416821F010014160FFF7D4F905462068BA
:10143000406880060AD4FFF7CDF9411B0120B1F5C1
:101440007A7F4FF00401F2D9A4E700BF0020012108
:101450006174267401B0F0BD70B5044600284FF0E9
:10146000010018BF002901D170BD00BF207C0128F8
:101470004FF0020008BF70BD012323746074087828
:1014800002B3020902EB820200F00F0000EB4200FF
:10149000C0B24FF4616250434A788978130903EB74
:1014A000830302F00F0202EB4302D2B2C2EB02123C
:1014B00000EB82000A0902EB820201F00F0101EB4E
:1014C000420108E04FF4616250434A788978C2EBE8
:1014D000021200EB8200C9B24618FFF77BF90546FD
:1014E00020684168890607D4FFF774F9401BB0F5FE
:1014F0007A7FF5D91AE000BF416841F010014160E0
:10150000310C8161B1B2C161416821F010014160CB
:10151000FFF760F9054600BF2068416889060BD4D3
:10152000FFF758F9401BB0F57A7FF5D90120042167
:1015300061740021217470BD416821F00501416092
:10154000016A406A80B240EA0140B0422ED200F502
:10155000803000F5A346FFF73DF905462068416855
:10156000890607D4FFF736F9401BB0F57A7FF5D925
:10157000DCE700BF416841F010014160310C0162BD
:10158000B1B24162416821F010014160FFF722F9D8
:10159000054600BF20684068800607D4FFF71AF9A7
:1015A000401BB0F57A7FF5D9C0E700BF00200121CC
:1015B00061740021217470BD70B538B10446406A71
:1015C00030B10020206104F1140007E0012070BD5B
:1015D0006068B0F5827F03D004F11C000021016037
:1015E0000026A66294F8510020B9204684F8506085
:1015F00000F038F8022084F8510094E8071001F454
:101600008271036802F4044223F0400303602369FB
:1016100011440CF40062114403F0020263691144A6
:1016200003F00102A369E569114403F40072114457
:1016300005F03802256A114405F08002A56A1143BD
:1016400005F4005211430160042101EA1341416095
:10165000C16921F40061C1610120666584F851000F
:10166000304670BD2DE9F04186B00446006843F66F
:101670000001C4F20001002788420597CDE90377F5
:10168000029763D043F20001C4F20101884240F0A6
:10169000C08041F21800C4F20200016840F6000563
:1016A00041F4805101600168C4F2010501F48051E8
:1016B00001910199016802AE41F0040101600068E6
:1016C00040F21C0800F0040001900198A020029054
:1016D000022003900320059028463146C4F20208F8
:1016E000FEF764FF40200290002728463146CDE9EE
:1016F0000377FEF75BFF40F2C405C2F200058026C7
:101700002846C5E90087C5E90276C5E90477C5E939
:101710000677FEF707FF002818BFFEF7AFFDE56468
:101720006C6240F2081508F11400C2F200051021A5
:1017300085E88300C5E90367C5E90577EF612846B9
:10174000FEF7F0FE002860D161E000BF41F2180012
:10175000C4F20200416802AE41F480414160416838
:1017600040F21C0801F48041019101990168C4F222
:10177000020841F0080101600068314600F00800ED
:10178000019001984FF42040029002200390032022
:10179000059040F60000C4F2010000F5806528467F
:1017A000FEF704FF4FF48040CDE90207284631469A
:1017B0000497FEF7FBFE40F24C1508F12800C2F238
:1017C00000058026C5E900072846C5E90276C5E977
:1017D0000477C5E90677FEF7A5FE002818BFFEF7D7
:1017E0004DFDE5646C6240F2901508F13C00C2F2D8
:1017F00000050022102185E84700C5E90422C5E95B
:1018000006222846FEF78EFE08B1FEF737FDA564D6
:101810006C6206B0BDE8F081411E0020B0EB116F94
:101820001CBF012070474EF21002CEF20002516040
:101830004EF62351CEF20001F0230B700721906089
:10184000116070477047000070470000B0B582B06B
:10185000044600680168C368426901F02F05202D25
:1018600003F0200506D12DB1204602B0BDE8B040FE
:1018700000F0B2BB5FEA017C1EBF02F0010E03F470
:10188000907212EB0E0253D1226B012A05D111F096
:10189000100218BF13F0100236D10A0622D513F039
:1018A00080021FD094F8411021293FD1A168B1F5E1
:1018B000805F03D12169002900F07082216A4A1CEF
:1018C000226209784160E18C01390A04E1842DD15A
:1018D000C16821F08001C160C16841F04001C16070
:1018E00002B0B0BD490621D513F040011ED0C16839
:1018F00021F04001C1602021204684F8411002B04F
:10190000BDE8B04000F052BB002101910168019197
:101910004168019101994069400613D4A08DE18D81
:10192000E28D002A18BF884240F0BA8102B0B0BDF3
:10193000CA0718BF13F4807240F0B6804A0700F15E
:10194000B980BEE0E06B016849688AB2002AEDD038
:10195000A38D9A42EAD2E1858069202800F09C801C
:10196000206850E8030F216820F4807041E80302EA
:10197000DAB1206850E8030F216820F4807041E854
:10198000030292B1206850E8030F216820F48070B0
:1019900041E803024AB1206850E8030F216820F4AF
:1019A000807041E80302002ADAD1206850E8050F70
:1019B000216820F0010041E80502DAB1206850E812
:1019C000050F216820F0010041E8050292B120686E
:1019D00050E8050F216820F0010041E805024AB1F6
:1019E000206850E8050F216820F0010041E8050259
:1019F000002ADAD1206850E8050F216820F0400065
:101A000041E80502DAB1206850E8050F216820F0AE
:101A1000400041E8050292B1206850E8050F2168B6
:101A200020F0400041E805024AB1206850E8050F67
:101A3000216820F0400041E80502002ADAD1202088
:101A400084F8420000202063206850E8030F2168DA
:101A500020F0100041E80302DAB1206850E8030FDB
:101A6000216820F0100041E8030292B1206850E89C
:101A7000030F216820F0100041E803024AB12068FA
:101A800050E8030F216820F0100041E80302002A0B
:101A9000DAD1E06BFEF7F8FB02206063A08DE18DE8
:101AA000401A81B2204674E1626C42F00102626425
:101AB0004A0706D5BEF1000F03D0626C42F0020265
:101AC00062648A0706D5BEF1000F03D0626C42F053
:101AD00004026264BCF1000F09D545EA0E02B2FAB5
:101AE00082F2520903D1626C42F008026264626CB5
:101AF000002A3FF41BAF11F0200118BF002D03D0C6
:101B0000204600F069FA20684069616C00F04000EE
:101B100001F00801401800F0B58000BF206850E8CF
:101B2000030F216820F4907041E80302BAB32068E3
:101B300050E8030F216820F4907041E8030272B36B
:101B4000206850E8030F216820F4907041E80302F8
:101B50002AB3206850E8030F216820F4907041E810
:101B60000302002ADAD11AE0206850E8050F216844
:101B700020F0010041E80502DAB1206850E8050FC5
:101B8000216820F0010041E8050292B1206850E888
:101B9000050F216820F0010041E805024AB12068E4
:101BA00050E8050F216820F0010041E80502002AF5
:101BB000DAD1206B012824D1206850E8030F216876
:101BC00020F0100041E80302DAB1206850E8030F6A
:101BD000216820F0100041E8030292B1206850E82B
:101BE000030F216820F0100041E803024AB1206889
:101BF00050E8030F216820F0100041E80302002A9A
:101C0000DAD1202084F84200002020632068406957
:101C100040063FD5206850E8050F216820F04000BD
:101C200041E80502DAB1206850E8050F216820F08C
:101C3000400041E8050292B1206850E8050F216894
:101C400020F0400041E805024AB1206850E8050F45
:101C5000216820F0400041E80502002ADAD1E06B5B
:101C6000C0B141F6CD71C0F600014163FEF730FB13
:101C700000283FF45BAEE06B416B02B0BDE8B040C2
:101C8000084700BF2046FFF7DFFD0020606402B078
:101C9000B0BD00BF204602B0BDE8B040FFF7D4BDE4
:101CA000401A216851E8031F226821F4907142E82C
:101CB0000313DBB1216851E8031F226821F49071FE
:101CC00042E8031393B1216851E8031F226821F40D
:101CD000907142E803134BB1216851E8031F226859
:101CE00021F4907142E80313002BDAD1216851E806
:101CF000051F226821F0010142E80513DBB12168CC
:101D000051E8051F226821F0010142E8051393B153
:101D1000216851E8051F226821F0010142E80513FE
:101D20004BB1216851E8051F226821F0010142E80A
:101D30000513002BDAD1202184F842100021216301
:101D4000216851E8031F226821F0100142E80313C3
:101D5000DBB1216851E8031F226821F0100142E83D
:101D6000031393B1216851E8031F226821F0100189
:101D700042E803134BB1216851E8031F226821F0A8
:101D8000100142E80313002BDAD1022281B220466F
:101D9000626302B0BDE8B040FFF754BD216A31F87C
:101DA000022B6FF35F22426021628CE5002804BFA2
:101DB0000120704710B5044690F8410028B9002072
:101DC00084F84000204600F063F8242084F84100A5
:101DD0002068D4E90212C36823F40053C360036986
:101DE00023F440531A430261D4E904231143C26827
:101DF000194341F20C639A431143C1604169A269DE
:101E000021F44071114343F60002C4F201029042F2
:101E1000416103D0FEF778FF02E000BFFEF788FFC4
:101E20006268192148439100B0FBF1F048F21F515C
:101E3000C5F2EB11A0FB01235A094FF69C73C0F6C3
:101E4000FF7302FB0300322303EB0010A0FB010130
:101E5000F02303EA5113206803EB0212C1F343118C
:101E600011448160016921F490410161416921F0CF
:101E70002A014161C16841F40051C1600020202164
:101E8000606484F8411084F84210606310BD000063
:101E900070B586B040F60004C4F20104006804F591
:101EA000405100268842049602D006B070BD00BFA3
:101EB00041F21800C4F20200016802AD41F4804111
:101EC0000160016801F4804101910199016841F0CC
:101ED000040101600068294600F0040001900198A7
:101EE0004FF40070029002200390032005902046DA
:101EF000FEF75CFB4FF48060CDE9020620462946E0
:101F00000496FEF753FB252001210022FEF7DCFC9E
:101F10002520FEF7C5FC06B070BD000090F84230E9
:101F2000202B1CBF0220704700294FF0010318BF6F
:101F3000002A01D1184670470023036381622221E1
:101F40008285C285436480F842100169006819B136
:101F5000C16841F48071C1604169002341F0010111
:101F60004161C16841F02001C1601846704700001E
:101F700070470000034690F8410020281CBF022053
:101F8000704700294FF0010018BF002A00D17047A8
:101F90001962002021219A84DA84586483F8411060
:101FA0001968CA6842F08002CA6070477047000032
:101FB000FEE70000FEE70000FEE7000070470000BB
:101FC00070470000FEF70CBC70470000406A00211B
:101FD000C185C184FFF738BC81B090F84210222936
:101FE00021D183680246B3F5805F09D152F8281FDA
:101FF00052F8183C002B63D003685B680AE000BF0E
:1020000052F8281F13B90369002BF5D003685B68E9
:1020100003F07F030B70116801311160C18D01392C
:102020000A04C18502D001B0704700BF0168CA68C8
:1020300022F02002CA60CA6822F48072CA604A692B
:1020400022F001024A61202180F842100021416300
:10205000026B012A3CD10163016851E8031F026849
:1020600021F0100142E80313DBB1016851E8031FBE
:10207000026821F0100142E8031393B1016851E8AE
:10208000031F026821F0100142E803134BB10168FD
:1020900051E8031F026821F0100142E80313002BEE
:1020A000DAD101680A68D20606D5002200920A68D1
:1020B0000092496800910099818D01B0FFF7C2BB81
:1020C000026852686FF35F2221F8022B8162A5E754
:1020D00001B0FFF74DBF0000B0B582B040F28424DC
:1020E000C2F20004206840F24C350168C2F20005DB
:1020F000C90610D500210191026801924068019043
:1021000001982A88296040F2CC21C2F200012046C1
:10211000FFF730FF2068016889060CD54068296800
:1021200040F2CC22C2F200024B1C2B60802B505498
:1021300024BF0020286040F28420C2F2000002B0D8
:10214000BDE8B040FFF782BBFEE7000094B0FEF7A9
:1021500055FB092000240A904FF480300225CDE978
:102160000B04CDE911504FF4E010012113900AA89F
:102170000F94CDE90D44CDE903440E911091FEF783
:10218000EBFD28B1EFF3108072B600BFFEE700BF91
:102190000F20CDE905054FF48060CDE9080405A8BE
:1021A00002210794FEF7D0FC20B1EFF3108072B645
:1021B000FEE700BF4FF400700127029001A80197CD
:1021C000FEF73CFC20B1EFF3108072B6FEE700BFD3
:1021D0004FF0000941F21804CDF83490C4F2020423
:1021E000206840F6004840F0200020602068C4F2DB
:1021F000010800F02000059005982068602140F05B
:10220000040020602068012200F004000590059879
:102210002068602640F008002060206800F0080078
:10222000059005984046FEF7CFFA10200AADCDE99B
:102230000A0940462946CDF83090FEF7B7F90AA8BA
:1022400080E8C00203200D9040462946FEF7AEF913
:1022500054F8040C002140F0010044F8040C54F838
:10226000040C002200F001000A900A980C20FEF7EE
:102270002BFB0C20FEF714FB0D2000210022FEF7A3
:1022800023FB0D20FEF70CFB0E2000210022FEF7A1
:102290001BFB0E20FEF704FB0F2000210022FEF79F
:1022A00013FB0F20FEF7FCFA40F20110C0F2010010
:1022B0000A9040F27000A8F56441C2F200004FF0AD
:1022C000FF324FF4807380E80E00FEF71FFF28B145
:1022D000EFF3108072B600BFFEE700BF40F270005F
:1022E000C2F2000005A90022ADF814908DF81690F6
:1022F000FFF7B2F820B1EFF3108072B6FEE700BF2F
:1023000040F27000C2F200000AA900220024FEF789
:102310009BFF28B1EFF3108072B600BFFEE700BF4D
:1023200040F2842508F53050C2F200054FF4E13147
:102330000C2285E813002846C5E90344C5E90524B5
:10234000EC61FFF733FD28B1EFF3108072B600BFE8
:10235000FEE700BF28688022C16841F01001C1601B
:1023600040F2CC21C2F200012846FFF7D7FD40F22F
:10237000D41008F51051C2F200004FF48276002408
:102380004FF4007518220A27C0E90016C0E902447C
:10239000C0E90444C0E90652C0E90844C0E90A475C
:1023A000FFF70AF920B1EFF3108072B6FEE700BF25
:1023B00040F22C20A8F55441C2F200001022C0E9DE
:1023C0000016C0E90244C0E90444C0E90652C0E96D
:1023D0000844C0E90A47FFF7EFF828B1EFF310808F
:1023E00072B600BFFEE700BFFEE70000000000007D
:1023F00000000102030406070809000000000102B2
:102400000304010202030405060708090A0B0C0D68
:102410000E0F1010382400080000002010000000EB
:102420002801000848240008100000204809000086
:10243000440100080000000001000000100000003E
:082440000024F400000000007C
:04000005080000ED02
:00000001FF
