:020000040800F2
:10000000780600208901000875140008810B00089B
:10001000711400084502000889140008000000005F
:100020000000000000000000000000007D14000837
:10003000490200080000000079140008811400083B
:10004000A3010008A3010008A3010008A301000800
:10005000A3010008A3010008A3010008A3010008F0
:10006000A3010008A3010008A3010008A3010008E0
:10007000A3010008A3010008A3010008A3010008D0
:10008000A3010008A3010008A3010008A3010008C0
:10009000A3010008A3010008A3010008A3010008B0
:1000A000A3010008A3010008A3010008A3010008A0
:1000B000A3010008A3010008A3010008A301000890
:1000C000A3010008A3010008A3010008A301000880
:1000D000A3010008A3010008A3010008A301000870
:1000E000A3010008A3010008A301000800F002F822
:1000F00000F03AF80AA090E8000C82448344AAF188
:100100000107DA4501D100F02FF8AFF2090EBAE885
:100110000F0013F0010F18BFFB1A43F0010318473B
:10012000B8140000D8140000103A24BF78C878C171
:10013000FAD8520724BF30C830C144BF04680C60ED
:10014000704700000023002400250026103A28BF35
:1001500078C1FBD8520728BF30C148BF0B60704739
:100160001FB51FBD10B510BD00F031F81146FFF7E7
:10017000F7FF01F08BF900F04FF803B4FFF7F2FF3F
:1001800003BC00F057F800000948804709480047C1
:10019000FEE7FEE7FEE7FEE7FEE7FEE7FEE7FEE737
:1001A000FEE7FEE704480549054A064B7047000094
:1001B00085140008ED000008780000207806002073
:1001C000780200207802002070477047704775461B
:1001D00000F02CF8AE4605006946534620F00700B3
:1001E000854618B020B5FFF7DDFFBDE820404FF091
:1001F00000064FF000074FF000084FF0000BAC4630
:10020000ACE8C009ACE8C009ACE8C009ACE8C0097A
:1002100021F007018D46704710B50446AFF300800A
:100220002046BDE81040FFF7A8BF00000048704717
:100230001000002001491820ABBEFEE72600020096
:1002400070470000FEE7000070470000B0B50446AC
:1002500000F024F9054640F20000C2F200000078E8
:10026000611C18BF044400BF00F018F9401BA042F5
:10027000FAD3B0BD2DE9F04F82B00E68002E00F029
:10028000038141F20042C4F20102042340F2004E15
:10029000904208BF03234FF6FF7CC4F2010E009387
:1002A00000240123C1F2100C4FF0000A4FF00009A6
:1002B00049E000BF012704F00C030F229A402BEA0B
:1002C000020207FA03F34FEA9A051A4346F825207B
:1002D000D1F804B040F20C455FEACB22DEF80820EA
:1002E00054BF22EA080242EA0802C4F20105CEF82D
:1002F00008202A685FEA8B2354BF22EA080242EAF8
:1003000008022A605FEA8B33DEF8042054BF22EA39
:10031000080242EA08025FEACB33CEF80420DEF896
:1003200000204FF0010354BF22EA080242EA08020B
:10033000CEF800200E680AF1010A36FA0AF204F13A
:10034000040400F0A18003FA0AF816EA080FF1D0BD
:100350004E68664512DC122E56D8DFE806F0350BE3
:100360004549555555555555555555555555554D61
:10037000510000BFD1F80C9046E000BF4FF6FF726D
:10038000C1F2210296420FDC0022C1F21102964214
:100390001AD00022C1F21202964215D00022C1F2F8
:1003A0002102964210D02FE00022C1F22202964292
:1003B0000AD00022C1F23102964205D00022C1F2D9
:1003C0003202964220D100BF8A684AB1012A14BF86
:1003D000C0F81480C0F810804FF0080914E000BF86
:1003E0004FF0040910E000BFCA6802F108090BE0F1
:1003F0004FF0000908E000BFCA6802F1040903E0F9
:10040000CA6802F10C0900BF22460646BAF1080F7D
:1004100024BF203A043637680F25954027EA0505A2
:1004200009FA02F22A433260CA79D2067FF582AF16
:1004300041F21803C4F202031A68AEF57E7642F068
:1004400001021A601A6802F001020192019A2AF070
:10045000030256F802B040F60002C4F201029042D4
:1004600010D040F60042C4F2010290423FF422AFA5
:1004700041F20002C4F20102009F904208BF02272D
:1004800019E700BF002716E702B0BDE8F08F0000B3
:10049000002A08BF090401617047000040F27000A3
:1004A000C2F200000068704740F2000040F27001A4
:1004B000C2F20000C2F2000100780A68104408602D
:1004C0007047000080B542F20000C4F202000168EB
:1004D00041F010010160032000F072F80F2000F0DD
:1004E00005F800F027F8002080BD000070B540F24C
:1004F0000006C2F2000640F208013278C2F20001A2
:100500004FF47A730968B3FBF2F20446B1FBF2F1DF
:10051000084600F01FFB0F2C4FF0010508D838B932
:100520004FF0FF3021460022002500F01DF87460D6
:10053000284670BD82B041F21800C4F20200016882
:1005400041F001010160016801F00101019101998F
:10055000416841F080514160406800F08050009057
:10056000009802B07047000010B54EF60C5CCEF259
:10057000000CDCF80030C3F3022E8EF00704042CCC
:1005800028BF0424BEF103034FF0FF3E0EFA04F42B
:1005900038BF0023A14399400EFA03F39A43114355
:1005A00000F00F0200F160430901043A03F56443CF
:1005B0006244002848BF02F10C03197010BD00000E
:1005C0004EF60C51CEF200010A684FF6FF031A40B6
:1005D00060F30A2242F0806040F0FD7008607047CE
:1005E0002DE9F04381B0002800F0858042F2000838
:1005F000C4F202080446D8F800000D4600F00700D7
:1006000088420CD2D8F8000020F007002843C8F830
:100610000000D8F8000000F00700A8426BD1206865
:1006200041F204098107C4F2020917D5410705D533
:10063000D9F8001041F4E061C9F80010010705D5B0
:10064000D9F8001041F46051C9F80010D9F8001031
:10065000A26821F0F0011143C9F80010C00741D190
:10066000D8F8000000F00700A8420CD9D8F8000024
:1006700020F007002843C8F80000D8F8000000F078
:100680000700A84237D12068410707D5D9F80010E4
:10069000E26821F4E0611143C9F80010000708D5B1
:1006A000D9F80000216920F4605040EAC100C9F87F
:1006B0000000D9F8002002F00C00082841F20020C8
:1006C000C0F27A0050D141F2C853C2F38341C0F660
:1006D0000003595CD2033BD440F60010C0F23D0049
:1006E000484341E0606802280AD001282AD159F81D
:1006F000041C890308D4012001B0BDE8F08300BFC9
:1007000059F8041C8901F6D5D9F8001021F003012D
:100710000843C9F80000FFF7C1FE064641F28837DA
:10072000D9F80000616800F00C00B0EB810F97D0A1
:10073000FFF7B4FE801BB842F2D9032001B0BDE838
:10074000F08300BF59F8041C8907D4D5DCE700BF4B
:10075000D9F8002041F2C653C2F34042C0F600036C
:100760009A5C4843B0FBF2F0D9F8001041F2B6525F
:10077000C1F30311C0F60002515C40F2080220FAF6
:1007800001F140F20400C2F200000068C2F200026F
:100790001160FFF7ABFE002001B0BDE8F083000060
:1007A0002DE9F04182B0002868D00446007841F27B
:1007B0000006C007C4F2020625D0706800F00C00E5
:1007C00004281BD0706800F00C00082802D1706863
:1007D000C00313D46068002800F06881B0F5A02F32
:1007E00000F07C81B0F5803F00F07C81306820F41F
:1007F00080303060306820F4802076E130688003FB
:1008000001D56068D0B32078800718D5706810F0E3
:100810000C0F07D0706800F00C0008286ED17068CB
:10082000C0036BD43068800702D52069012825D128
:100830003068616920F0F80040EAC100306020783B
:1008400000071FD42078400732D4E56995B170685D
:1008500000F00C00082840F08F80012D0ED0706849
:10086000216A00F480328A4208D1616A00F4701073
:10087000884203D1002002B0BDE8F081012002B01F
:10088000BDE8F081A069002862D00020C4F24220B7
:100890000121C0F88014FFF701FE0546706A800749
:1008A00000F18C80FFF7FAFD401B0228F6D92AE1FF
:1008B000F06910F0805808D1F06940F08050F06184
:1008C000F06900F080500090009847F20007C4F2F1
:1008D00000073868C00529D4386840F48070386053
:1008E000FFF7DCFD054600BF3868C0051ED4FFF7E2
:1008F000D5FD401B6428F7D905E100BF2069002819
:1009000040F20000C4F2422000F082800121016028
:10091000FFF7C4FD054600BF306880073FF588AF8C
:10092000FFF7BCFD401B0228F6D9ECE0E068002888
:1009300000F08080052800F09780012800F0988062
:10094000306A20F001003062306A20F0040092E04A
:100950000020C4F242200021C0F88014FFF79EFD61
:10096000054600BF706A80077FF56CAFFFF796FD04
:10097000401B0228F6D9C6E00027C4F24227002017
:100980003866FFF78BFD022D05460BD130688001DC
:1009900040F1BE80FFF782FD401B02284FF00300AC
:1009A000F4D968E7306880017FF564AFFFF776FD22
:1009B000401B02284FF00300F4D95CE740F2080026
:1009C000C2F20000006844F6D351C1F26201A0FBFC
:1009D0000101480A019000BF00BF0198411E002894
:1009E00001913FF42FAF00BF0198411E00280191F3
:1009F0003FF428AF00BF0198411E002801913FF449
:100A000021AF00BF0198411E00280191E4D119E7F0
:100A100000210160FFF742FD054600BF30688007F6
:100A20007FF50DAFFFF73AFD401B02284FF00300A2
:100A3000F4D920E7306A20F001003062306A20F0FB
:100A400004003062FFF72AFD054641F2883700BFF7
:100A5000306A800720D5FFF721FD401BB8424FF0D8
:100A60000300F5D907E700BF306A40F004003062A8
:100A7000306A40F001003062FFF710FD054641F298
:100A8000883700BF306A800706D4FFF707FD401B98
:100A9000B842F7D937E000BFB8F1000F7FF4D5AE08
:100AA000F06920F08050F061CFE600BF306820F49C
:100AB00080303060306820F480203060FFF7EEFC3A
:100AC000054600BF306880037FF59DAEFFF7E6FC6A
:100AD000401B64284FF00300F4D9CCE6306840F4A2
:100AE00080203060306840F480303060FFF7D6FC02
:100AF000054600BF306880033FF585AEFFF7CEFCAA
:100B0000401B6428F6D9032002B0BDE8F08100BF85
:100B1000206AB0F5803F05D17168A26821F40031E8
:100B2000114371607168626A21F4741111430843C2
:100B3000706001203866FFF7B1FC04463068800120
:100B40003FF598AEFFF7AAFC001B02284FF0030008
:100B5000F4D990E6411E0020B0EB116F1CBF0120BC
:100B600070474EF21002CEF2000251604EF6235151
:100B7000CEF20001F0230B700721906011607047E6
:100B8000FEE700002DE9F04140F60044C4F2010404
:100B900017460E4605462046022100229846FFF7DA
:100BA00077FC2A2000F0CEFB204602210122FFF72D
:100BB0006FFCC5F3072000F0C5FBE8B200F0C2FBF4
:100BC000C7F3072000F0BEFBF8B200F0BBFB2046E5
:100BD00002210022FFF75CFC2B2000F0B3FB204633
:100BE00002210122FFF754FC06F11405C5F307208A
:100BF00000F0A8FBE8B200F0A5FB08F11405C5F36E
:100C0000072000F09FFBE8B200F09CFB2046022189
:100C10000022FFF73DFC2C2000F094FB204602212F
:100C20000122BDE8F041FFF733BC00002DE9F0439D
:100C300081B099469046013A013B0D460746FFF7C1
:100C4000A1FF4D4538BF47450CD2089EA8EB0704CD
:100C5000274600BF304600F069FB013FFAD101355D
:100C60004D45F5D101B0BDE8F08300002DE9F0411C
:100C700084B041F21800C4F20200016840F600445A
:100C800041F0040101600168C4F2010401F00401B3
:100C9000009100990168A4F5806641F0200101608F
:100CA00001686D4601F0200100910099016801275B
:100CB00041F00801016000684FF0030800F00800EF
:100CC00000900098A020009030462946CDE9017799
:100CD000CDF80C80FFF7CEFA3046A0210122FFF7B5
:100CE000D7FB4FF48060CDE9000720462946CDE9C7
:100CF0000278FFF7BFFA20464FF480610122FFF728
:100D0000C7FB20462946CDE90077CDE90278FFF7F9
:100D1000B1FA204601210122FFF7BAFB40F602009A
:100D2000CDE9000720462946CDE90278FFF7A2FA6F
:100D3000204640F602010122FFF7AAFB04B0BDE8FD
:100D4000F081000010B5FFF791FF40F60044C4F2B7
:100D50000104204601210122FFF79AFB0A20FFF738
:100D600075FA204601210022FFF792FB0A20FFF7C7
:100D70006DFA204601210122FFF78AFB7820FFF758
:100D800065FA20464FF400610122FFF781FB2046FF
:100D900002210022FFF77CFBFD2000F0D3FA204661
:100DA00002210122FFF774FB062000F0CBFA082095
:100DB00000F0C8FA204602210022FFF769FB6120FB
:100DC00000F0C0FA204602210122FFF761FB072054
:100DD00000F0B8FA042000F0B5FA20460221002203
:100DE000FFF756FB622000F0ADFA204602210122F7
:100DF000FFF74EFB002000F0A5FA442000F0A2FA15
:100E0000452000F09FFA204602210022FFF740FB18
:100E1000632000F097FA204602210122FFF738FBF9
:100E2000412000F08FFA072000F08CFA122000F029
:100E300089FA122000F086FA204602210022FFF7EC
:100E400027FB642000F07EFA204602210122FFF7F2
:100E50001FFB372000F076FA204602210022FFF720
:100E600017FB652000F06EFA204602210122FFF7F1
:100E70000FFB092000F066FA102000F063FA212031
:100E800000F060FA204602210022FFF701FB6620F5
:100E900000F058FA204602210122FFF7F9FA092052
:100EA00000F050FA102000F04DFA212000F04AFA2C
:100EB000204602210022FFF7EBFA672000F042FAF9
:100EC000204602210122FFF7E3FA202000F03AFA3F
:100ED000402000F037FA204602210022FFF7D8FA1E
:100EE000682000F02FFA204602210122FFF7D0FAF5
:100EF000902000F027FA4C2000F024FA7C2000F02B
:100F000021FA662000F01EFA204602210022FFF797
:100F1000BFFAB12000F016FA204602210122FFF7A5
:100F2000B7FA0F2000F00EFA022000F00BFA0120B1
:100F300000F008FA204602210022FFF7A9FAB420A7
:100F400000F000FA204602210122FFF7A1FA012059
:100F500000F0F8F9204602210022FFF799FAB520A7
:100F600000F0F0F9204602210122FFF791FA022059
:100F700000F0E8F9022000F0E5F90A2000F0E2F9BB
:100F8000142000F0DFF9204602210022FFF780FA4A
:100F9000B62000F0D7F9204602210122FFF778FAA7
:100FA000042000F0CFF9012000F0CCF99F2000F0E0
:100FB000C9F9002000F0C6F9022000F0C3F920466C
:100FC00002210022FFF764FADF2000F0BBF920467F
:100FD00002210122FFF75CFA112000F0B3F920464C
:100FE00002210022FFF754FAE22000F0ABF920467C
:100FF00002210122FFF74CFA132000F0A3F9002090
:1010000000F0A0F9002000F09DF9302000F09AF9DE
:10101000332000F097F93F2000F094F92046022198
:101020000022FFF735FAE52000F08CF92046022176
:101030000122FFF72DFA3F2000F084F9332000F061
:1010400081F9302000F07EF9002000F07BF90020CB
:1010500000F078F9132000F075F9204602210022F3
:10106000FFF716FAE12000F06DF920460221012277
:10107000FFF70EFA002000F065F9572000F062F942
:10108000204602210022FFF703FAE42000F05AF97B
:10109000204602210122FFF7FBF9582000F052F907
:1010A000002000F04FF9204602210022FFF7F0F95E
:1010B000E02000F047F9204602210122FFF7E8F97D
:1010C000012000F03FF9032000F03CF90D2000F072
:1010D00039F90E2000F036F90E2000F033F90C201B
:1010E00000F030F9152000F02DF9192000F02AF950
:1010F000204602210022FFF7CBF9E32000F022F97D
:10110000204602210122FFF7C3F91A2000F01AF944
:10111000162000F017F90C2000F014F90F2000F051
:1011200011F90E2000F00EF90D2000F00BF902204D
:1011300000F008F9012000F005F920460221002204
:10114000FFF7A6F9E62000F0FDF820460221012273
:10115000FFF79EF9002000F0F5F8FF2000F0F2F80C
:10116000204602210022FFF793F9E72000F0EAF879
:10117000204602210122FFF78BF9012000F0E2F85E
:10118000042000F0DFF8032000F0DCF8032000F07A
:10119000D9F8002000F0D6F8122000F0D3F820464D
:1011A00002210022FFF774F9E82000F0CBF8204676
:1011B00002210122FFF76CF9002000F0C3F8702033
:1011C00000F0C0F8002000F0BDF820460221002207
:1011D000FFF75EF9EC2000F0B5F82046022101226D
:1011E000FFF756F9522000F0ADF820460221002208
:1011F000FFF74EF9F12000F0A5F820460221012268
:10120000FFF746F9012000F09DF8012000F09AF860
:10121000022000F097F8204602210022FFF738F95B
:10122000F62000F08FF8204602210122FFF730F966
:10123000092000F087F8102000F084F8002000F06A
:1012400081F8002000F07EF8204602210022FFF7FE
:101250001FF9FD2000F076F8204602210122FFF759
:1012600017F9FA2000F06EF8FC2000F06BF8204629
:1012700002210022FFF70CF93A2000F063F8204623
:1012800002210122FFF704F9052000F05BF8204657
:1012900002210022FFF7FCF8352000F053F8204629
:1012A00002210122FFF7F4F8002000F04BF820465D
:1012B00002210022FFF7ECF8362000F043F8204628
:1012C00002210122FFF7E4F8082000F03BF8204655
:1012D00002210022FFF7DCF8212000F033F820463D
:1012E00002210122FFF7D4F8204602210022FFF755
:1012F000CFF8112000F026F8204602210122FFF746
:10130000C7F8C820FEF7A2FF204602210022FFF7FF
:10131000BFF8292000F016F8204602210122FFF72D
:10132000B7F80A20BDE81040FEF790BF10B504469C
:10133000C0F3072000F006F8E0B2BDE8104000F06E
:1013400001B8000070B540F60005C4F2010505F5CE
:101350008064064620464FF480610022FFF798F82B
:10136000284620210022FFF793F8F2092846802121
:10137000FFF78EF8284620210122FFF789F828463A
:1013800020210022FFF784F8C6F38012284680212E
:10139000FFF77EF8284620210122FFF779F828463A
:1013A00020210022FFF774F8C6F34012284680215E
:1013B000FFF76EF8284620210122FFF769F828463A
:1013C00020210022FFF764F8C6F30012284680218E
:1013D000FFF75EF8284620210122FFF759F828463A
:1013E00020210022FFF754F8C6F3C00228468021CE
:1013F000FFF74EF8284620210122FFF749F828463A
:1014000020210022FFF744F8C6F3800228468021FD
:10141000FFF73EF8284620210122FFF739F8284639
:1014200020210022FFF734F8C6F34002284680212D
:10143000FFF72EF8284620210122FFF729F8284639
:1014400020210022FFF724F806F00102284680211F
:10145000FFF71EF8284620210122FFF719F8204641
:101460004FF480610122BDE87040FFF711B8000021
:10147000FEE70000FEE70000704700007047000034
:10148000FFF712B870470000FEE7000090B0FFF7CA
:1014900019F800240120CDE90B44CDE90944069058
:1014A0000A904FF4E0104FF4803102250F9006A807
:1014B000CDE90714CDE90D51FFF772F920B1EFF333
:1014C000108072B6FEE700BF0F20CDE901054FF492
:1014D0008060CDE9040401A802210394FFF780F89D
:1014E00020B1EFF3108072B6FEE700BF41F21800A2
:1014F000C4F20200016841F020010160006800F0C0
:10150000200006900698FFF71DFC4FF6FF784FF07D
:1015100000091F264FF478474FF4FC644FF6E0753E
:1015200000200021F0224FF48C73CDF80080FFF7EB
:101530007DFB4FF47A70FEF789FE00200021F02237
:101540004FF48C730096FFF771FB4FF47A70FEF73F
:101550007DFE00200021F0224FF48C730097FFF7EE
:1015600065FB4FF47A70FEF771FE00200021F02237
:101570004FF48C730094FFF759FB4FF47A70FEF729
:1015800065FE00200021F0224FF48C730095FFF7D8
:101590004DFB4FF47A70FEF759FE00200021F02237
:1015A0004FF48C73CDF80090FFF740FB4FF47A7046
:1015B000FEF74CFEB4E7000000000000000001024E
:1015C00003040607080901020203040506070809C7
:1015D0000A0B0C0D0E0F1010F8150008000000206B
:1015E0001000000028010008081600081000002064
:1015F000680600004401000801000000100000001F
:081600000024F40000000000CA
:04000005080000ED02
:00000001FF
