:020000040800F2
:100000002008002035020008053A0008FD390008E4
:10001000013A0008F9130008194200080000000026
:10002000000000000000000000000000193D000872
:100030005D14000800000000093A00081D3D00089A
:100040004F0200084F0200084F0200084F0200084C
:100050004F0200084F0200084F0200084F0200083C
:100060004F0200084F0200084F0200084F0200082C
:100070004F0200084F020008FD1300080914000891
:100080004F0200084F0200084F0200084F0200080C
:100090004F0200084F0200084F0200084F020008FC
:1000A0004F0200084F0200084F0200084F020008EC
:1000B0004F0200084F0200084F0200084F020008DC
:1000C0004F0200084F0200084F0200084F020008CC
:1000D0004F020008DD4100084F0200084F020008EF
:1000E0004F0200084F0200084F02000800F002F81B
:1000F00000F090F80AA090E8000C82448344AAF132
:100100000107DA4501D100F085F8AFF2090EBAE82F
:100110000F0013F0010F18BFFB1A43F0010318473B
:10012000484C0000684C0000103A24BF78C878C1E1
:10013000FAD8520724BF30C830C144BF04680C60ED
:10014000704700000023002400250026103A28BF35
:1001500078C1FBD8520728BF30C148BF0B60704739
:100160006E2900F08181702900F0C382662904F0B5
:100170006385652904F06085672904F05D85612940
:1001800004F05C8503681B0A28BF41F080016929DF
:1001900000F02E81642900F02B81752900F0288160
:1001A0006F2900F05182782900F08F82E92900F050
:1001B000EB81E42900F0E881F52900F0E581EF29E1
:1001C00000F04E82F82900F08E820368DB0928BF18
:1001D00041F08001632900F08F87732900F0948734
:1001E000E32900F09F87F32900F0A48700207047DF
:1001F0001FB500F0F5FF04000020002104F006FD0B
:10020000401C60600020002104F0EAFCE0601FBD9B
:1002100010B510BD00F0B6FF1146FFF7E9FF03F07F
:10022000FDFF01F093F803B4FFF7F2FF03BC01F008
:10023000DBF800000948804709480047FEE7FEE771
:10024000FEE7FEE7FEE7FEE7FEE7FEE7FEE7FEE786
:1002500004480549054A064B70470000213D000847
:10026000ED000008200200202008002020040020CB
:10027000200400201CB50C46064B7B4469460090C8
:10028000204600F00AF904460020694600F018F9FB
:1002900020461CBD4302000010B5431C02E010F8CC
:1002A000011B71B18107FAD14FF0013202C88C1ADB
:1002B0008C4314EAC211F9D0C01A0A0603D0C01E3A
:1002C00010BDC01A10BD0A0401D0801E10BD090265
:1002D000FCD0401E10BD4FF0000200B513469446FE
:1002E0009646203922BFA0E80C50A0E80C50B1F18E
:1002F0002001BFF4F7AF090728BFA0E80C5048BFA2
:100300000CC05DF804EB890028BF40F8042B08BF3F
:10031000704748BF20F8022B11F0804F18BF00F83B
:10032000012B704770477047704770B50446856968
:100330000068C10601D5302600E02026C00707D09E
:1003400070BDD4E9012130469047206A401C2062EC
:100350006D1EF6D570BD70B5044685690078C0077E
:1003600007D170BDD4E9012120209047206A401CAC
:1003700020626D1EF6D570BD09684A0501D540B2F0
:100380007047C905FCD500B2704709684A0501D518
:10039000C0B27047C905FCD580B2704770B50C4635
:1003A0000546012A05D02878800600D5EA69002391
:1003B00002E0012305E05B1C934202D2E05C0028CE
:1003C000F9D1A869E618C01AA861286A18442862F9
:1003D0002846FFF7AAFF04E0D5E9012114F8010B34
:1003E0009047B442F8D32846FFF7B5FF70BD000030
:1003F0002DE9F0410646002410687529314616A5FE
:1004000010D0FFF7B9FF002802DA404213A507E039
:1004100031688A0701D512A502E0490704D511A564
:10042000012401E0FFF7B1FF00210A2206F12407B1
:1004300009E0B0FBF2FCB0FBF2F302FB1C00303031
:1004400078541846491C0028F3D123462A463046E2
:10045000BDE8F04100F061BA000000002D0000008E
:100460002B0000002000000011680268006A53059C
:1004700001D508700AE0D30501D5088006E013060F
:1004800003D5C217C1E9000200E0086001207047EF
:1004900001694A1C02610878704700B58FB0CDE948
:1004A00001310021059105497944CDE90310114638
:1004B000684600F029F90FB000BD0000E5FFFFFF1E
:1004C0000A6802F8010B0A60704700002DE9FF5F1F
:1004D00015468A460446DFF8AC80F8440027D8E980
:1004E00000103E46CDE9001010E03AF816106A46BA
:1004F00002A800F023FE411C07D02178890603D50D
:10050000E269391891420DD80744761C207880069C
:1005100002D5E069B84205DDAE42E6DB3AF81600E6
:100520000028E2D1A069C01BA0612046FFF7FDFEB4
:10053000D8E90010CDE90010002017E03AF81810B3
:100540006A4602A800F0FAFDB0F1FF3F81460BD0E9
:1005500000250DF1080B05E0D4E901211BF8050089
:1005600090476D1C4D45F7D308F10100B04280461D
:10057000E4DB206A384420622046FFF7ECFEBDE849
:10058000FF9F0000624700002DE9F0418046D21D28
:1005900022F007020025D2E90002F52915A614D0A1
:1005A000011E72F1000106DA0023D0EB030063EBB9
:1005B000020211A608E0D8F800108B0701D50FA69B
:1005C00002E0490701D50EA601251146002408F1D5
:1005D000240704E000F05CF930323A55641C50EA1C
:1005E0000102F7D12B46324621464046BDE8F04194
:1005F00000F093B9000000002D0000002B00000067
:100600002000000030B4002100F1240408E002F0D2
:100610000705D208303542EA4372DB086554491CAD
:1006200052EA0305F3D10468002310A2250708D578
:1006300004F020040C4304D0C46901230CA2641EFE
:10064000C46130BC00F069B910B504462146106899
:10065000FFF79BFE02462046BDE810400023D1E78D
:10066000D21D22F00701D1E90023CBE700000000F2
:1006700030000000F0B40D460188090502D5214C78
:100680007C4402E01F4C7C440E34002100F124061F
:1006900008E002F00F071209E75D42EA03721B0946
:1006A0007754491C52EA0307F3D10278002312075A
:1006B00004D5702D06D009B1022311342246F0BCB6
:1006C00000F02BB901231034F8E770B504460D464D
:1006D00021461068FFF759FE024629462046BDE82C
:1006E00070400023C6E7D21D22F00703D3E90023A0
:1006F000C0E70368126843F0200303600823C36166
:100700000023B7E7C44500002DE9F05F89460446A1
:100710004FF0000ADFF874B1FB44C0F820A0204677
:10072000E1688847002874D0252806D0D4E9012143
:100730009047206A401C2062F1E700265F46204671
:10074000E16888472028054607DB312D05D2781956
:1007500010F8200C08B10643F1E7B00701D526F0E8
:100760000406C4F81CA00027C4F818A02A2D09D03C
:10077000284604F02DFA38B304EB8708303DC8F85A
:10078000185019E059F8041B204604EB87029161C8
:10079000E1688847012F054618D1E069002820DA72
:1007A00026F020061DE0D8F8180000EB800005EBCD
:1007B00040003038C8F818002046E16888470546F0
:1007C00004F006FA0028EED1012F0AD02E2D08D110
:1007D0002046E16888477F1C0546022F46F0200628
:1007E000C4DBA069002803DA404246F00106A0619C
:1007F000F00701D026F010066C2D0BD0682D09D023
:100800004C2D39D06A2D35D0742D35D07A2D33D07A
:1008100016E038E0E1682F4620468847B842054692
:1008200009D16C2F26D04FF48060E1680643204642
:100830008847054604E06C2F1AD04FF480700643B9
:100840000DB3A5F14100192802D8203546F4006601
:100850004A462946204626604E46FFF781FC80B175
:1008600001280BD0F61D26F0070000F1080956E715
:100870004020E4E78020D8E70020D6E706F104090D
:100880004DE7284652E7206ABDE8F09F5445000036
:1008900030B5B0F10A0271F100034FEA900E4EEA52
:1008A000817EB0EB0E0061EB91014FEA101E4EEA23
:1008B000017E10EB0E0041EB11114FEA102E4EEAB3
:1008C000016E10EB0E0041EB11214FEA104E4EEA83
:1008D000014E10EB0E0041EB1141401841F10001B7
:1008E0004FEAD00040EA41704FEAD1014FEA81045B
:1008F00044EA907410EB800544EB01046D1944EB5D
:100900000404521BA3414FF0000348BF0A3200D534
:1009100030BD401C41F1000130BD2DE9F0470D46CE
:1009200099469246044600F124080168880604D5D9
:10093000E06921F01001216000E00120A84201DD02
:10094000471B00E00027A1697A1902EB0900081A89
:10095000A0612078C00602D42046FFF7E6FC0026FE
:1009600008E0D4E901211AF806009047206A401CEB
:10097000761C20624E45F4DB2078C0060AD520465E
:10098000FFF7D3FC06E0D4E9012130209047206A2C
:10099000401C2062381EA7F10107F4DC07E0D4E90F
:1009A000012118F805009047206A401C2062281E8B
:1009B000A5F10105F3DC2046FFF7CDFC2078000609
:1009C00002D50220BDE8F0870120FBE72DE9FF4FAB
:1009D0000C461E464FF0FF378BB0D2E90001DDF820
:1009E00060800A908A46C1F30A5505B93D46002148
:1009F00008464FF00000BAF1000F00F4400005DA9D
:100A000000EB80004FF4400101EA50004FEA90599A
:100A1000B9F1010F00DDB9460A9850EA4A000ED03C
:100A200044F61050A5F2FF3545432F14B8F1000FDE
:100A30001ED07542291E1EDDC9F100021CE0B8F16E
:100A4000010F4FF0000001D0302103E0F24305E038
:100A50002154401CB042FBDB3046002200212154CF
:100A60000B99C1F80880C1E900200FB0BDE8F08FF4
:100A7000BD1B6D1CDEE74A4600DA694206A800F09D
:100A8000F3FB06AB93E8070003AB83E8070050468F
:100A90000A9903F0C1FC8DE80700A0F500501F384B
:100AA00000900398002D0ADD42F21F014A460844D7
:100AB000002303A90390684603F02AFF09E0A0F58C
:100AC00000504A461F38002303A90390684603F0EC
:100AD00034FF8DE807000004000C03D04FF0FF3016
:100AE000410800E01046B8F1000F03D00022009248
:100AF00015461EE0751E05D4FFF7CAFE303262555A
:100B00006D1EF9D5B3460122084302D000227F1C96
:100B100004E02078302801D100227F1E002A0997A6
:100B200084D01DE0112D07DAFFF7B2FE3032625596
:100B30006D1C50EA0102F5D1084302D00098C8B1FB
:100B40000EE00021681E05E0235C625C63542254C1
:100B5000401E491C8142F7DBAB46A81B401E099092
:100B6000002004F80B000B98099AC0F80880C0E92F
:100B7000002B7AE711264FF0000857E72DE9F04FD8
:100B800088460446D21D22F0070191B0D1E9000148
:100B9000CDE90A0104F008F802460B98C00F01D015
:100BA0002D2007E02068810701D52B2002E02021BD
:100BB00001EAC000032A099001D0072A05DB034699
:100BC0004146204600F010FB0BE12078800601D55D
:100BD000E06900E00620B8F1650F814606D0B8F163
:100BE000660F18D0B8F1670F70D131E00020B9F16D
:100BF000110F009001DB112301E009F101030AAAA2
:100C000001A90CA8FFF7E2FEDDE90C70002609F14E
:100C10000105834647E001204B4600904FF0004716
:100C20000AAA01A90CA8FFF7D1FEDDE90DB00C99C5
:100C30005D46002610B909F101000D18B9EB050059
:100C400003D4C0F1FF3609F10105A5EB09002BE043
:100C5000B9F1010F01DA4FF001090020B9F1110FCC
:100C60000090484601DD112300E003460AAA01A9CD
:100C70000CA8FFF7ABFEDDE90C704D46002683465D
:100C8000207800070AD4AB4500DA5D4601A8012DA3
:100C900004DD411911F8011C302907D04F4502DA53
:100CA00017F1040F04DA012082460FE06D1EEEE713
:100CB000002F02DCED1B3E4403E0781CA84200DD5F
:100CC0007D1CB81B00F1010A4FF000472078000797
:100CD00003D4AA4501DB4FF0FF3A0021B7F1004FE2
:100CE0000DF143088DF8431024D002202B23002F50
:100CF00001DA7F422D230A21021EA0F1010000DC4F
:100D00005FB197FBF1FC97FBF1F201FB1C7C1746EE
:100D10000CF1300C08F801CDEEE7A8F101000370EA
:100D20002188090501D5452100E06521A0F10108D0
:100D300000F8011C09980FA9A1EB0807FF1D00B1DD
:100D40000120411901EBEA70A1693844081A401EDC
:100D5000A0612078C00602D42046FFF7E6FA099881
:100D600028B1D4E901219047206A401C20622078F4
:100D7000C00622D52046FFF7D8FA1EE0002E04DB7D
:100D8000B34502DD01A8805D00E03020D4E90121F7
:100D90009047206A401C2062761CAAF101005FEA9D
:100DA000000A0AD100F01CFAC0680168405CD4E96E
:100DB00001219047206A401C2062281EA5F10105F0
:100DC000DCDC07E0D4E9012118F8010B9047206A28
:100DD000401C2062381EA7F10107F3DC2046FFF714
:100DE000BAFA032011B041E62DE9F04F04460D4652
:100DF000D21D22F0070089B0D0E900974846394655
:100E000003F0D2FE0246F80F01D02D2307E0206840
:100E1000810701D52B2302E0202101EAC0038DF8D0
:100E200020300BB1012000E00020032A824601D0CF
:100E3000072A04DB2946204600F0D6F93FE1207856
:100E4000800601D40D2500E0E569C7F30A560D2D93
:100E500049DA00214FEA175B08464FF00000002FE7
:100E600000F4400007DA00EB80004FF4400100EB93
:100E7000D07001EA60008115012901DD4FF0FF31DA
:100E800000224FEA850CBCF1180F06D31346ACF1D3
:100E900018004FF08052C24003E04FF4801323FA51
:100EA0000CF30CF10C0CBCF1200F04D3ACF1200CB2
:100EB00009FA0CF001E007FA0CF000294FF00048A5
:100EC00001DD18B90FE00ED140450CD319EB020932
:100ED0005F4121B9404502D19F4329EA0209BBEB9A
:100EE000175F00D0761C2088000502D57B48784427
:100EF00002E07A487844193808AA302302F80A3008
:100F0000037C0AF10101002E0AF1020A53546A46D9
:100F100002DC4FF0300101E04FF031014FF00108E9
:100F20008DF8001002D0A6F2FF3603E059EA47011F
:100F300000D06B4E002D02DC2178090704D54FF05C
:100F400002082E218DF80110C44600210BE0C7F3E2
:100F500003433F01C35C491C6D1E02F8083005299C
:100F600008F1010801DA002DF1DC00210CE000EBB2
:100F70001973491C1B786D1E082902F808304FEAC6
:100F8000091908F1010801DA002DF0DC21688B064F
:100F900002D516E0A8F10108E04505DD02EB0803E3
:100FA00013F8013C302BF5D0B8F1000F09DD02EB4E
:100FB000080313F8013C2E2B03D1090701D4A8F133
:100FC0000108002D05DD3E2102F808106D1E08F114
:100FD0000108407C002E02F8080008F1010804DA3C
:100FE0002D20764202F8080002E02B2002F80800CB
:100FF0000A214FF47A70864208F101080BDB96FB58
:10100000F0F3303302F8083096FBF0F308F10108F2
:1010100000FB136601E0642E0CDB642096FBF0F30A
:10102000303302F8083096FBF0F308F1010800FBBA
:10103000136601E00A2E06DB96FBF1F0303002F871
:10104000080008F1010896FBF1F001FB1060303058
:1010500002F80800A16908F1010808EB050202EB9B
:101060000A00081AA0612078C00602D42046FFF7C3
:101070005CF9216A08AE01EB0A00206204E0D4E9C1
:10108000012116F8010B9047BAF1010AF7D2207836
:10109000C00602D52046FFF748F96E4609E016F86B
:1010A000010B3E280FD0D4E901219047206A401C53
:1010B0002062B8F10108F2D22046FFF74CF909B0DE
:1010C0000320BDE8F08F206A2844206203E0D4E9C1
:1010D0000121302090476D1EEBD3F8E7A23D0000C0
:1010E00002FCFFFF10B5436913B1AFF3008001E0CC
:1010F000FFF754F9012010BD127800F124010A70A5
:1011000000224A700122EDE711684FF0FF32E9E753
:1011100010B5436913B1AFF3008001E0FFF7D6F9D2
:10112000012010BD128800F1240182840022C284B3
:101130000122EDE711684FF0FF32E9E72DE9F041B8
:1011400016460C46054600F043F8036893F8010183
:10115000012807D0FF2C12D8185D80B101202C7017
:10116000BDE8F081D3F807013246214603F20713A8
:10117000C7182846BC46BDE8F041002360474FF041
:10118000FF30EDE7754600F0EBF8AE460500694626
:10119000534620F00700854618B020B5FFF758F8F1
:1011A000BDE820404FF000064FF000074FF0000868
:1011B0004FF0000BAC46ACE8C009ACE8C009ACE8A5
:1011C000C009ACE8C00921F007018D467047000056
:1011D00010B500F005F8001D10BD00BF313A000049
:1011E00000487047300000202DE9F0411F460446BA
:1011F00003260168072A01F4006004DB08B116A584
:1012000005E016A503E008B115A500E015A521F03D
:1012100010002060A069C01EA0610FB1401EA06137
:101220002046FFF782F84FB1D4E9012138469047B4
:10123000206A401C2062C01C206206E0206AFAE797
:10124000D4E9012115F8010B9047761EF8D220460B
:10125000FFF781F8BDE8F0814E414E006E616E00EF
:10126000494E4600696E66002DE9F04781461646F4
:101270008AB0354878440DC88DE80D00324878446E
:10128000801C03AC0DC884E80D0041F69B30084477
:10129000372190FBF1F290FBF1F5A5F1800501FB00
:1012A00012041B3C02D56442012000E00020DFF85C
:1012B00098A080460027FA44AAF1BE0A0EE0E00793
:1012C0000AD03246684607EB470101230AEB810149
:1012D00003F033FB8DE8070064107F1C002CEED177
:1012E000194F7F44AE3F19E0E80715D007EB041013
:1012F0000DF1180A90E80E008AE80E00C068F0426E
:1013000001D1981908903246012306A903A803F0D9
:1013100014FB03AB83E807006D10641C002DE3D1C0
:101320004FF0010332466946B8F1000F03A802D01E
:1013300003F0EEFA01E003F000FBC9E90001C9F88F
:1013400008200AB0BDE8F087AC3A000010B50446AA
:10135000AFF300802046BDE81040FEF764BF0000F8
:1013600000487047100000204FF0013C50F8042B5B
:1013700051F8043B9A4221D1A2EB0C03934313EAA8
:10138000CC1317D150F8042B51F8043B9A4215D1D5
:10139000A2EB0C03934313EACC130BD150F8042BAC
:1013A00051F8043B9A4209D1A2EB0C03934313EA90
:1013B000CC13DBD04FF00000704700BFD01A01BA49
:1013C000B1FA81F101F0180122FA01F0CB40DBB251
:1013D000C0B2C01AC1F120012CFA01F3D11A914315
:1013E00011EAC311E6D1704701491820ABBEFEE7F0
:1013F0002600020070470000FEE7000040F21010D7
:10140000C2F2000000F0B0B840F2CC00C2F200001E
:1014100000F0AAB883B010B581B0844603A80EC00E
:1014200040F27000C2F2000000F11C0403AA204642
:1014300061460092FEF71EFF2046FEF72DFF82B2A6
:1014400040F25410C2F200002146322302F096F915
:1014500001B0BDE8104003B07047000070470000C5
:10146000EFF3108072B600BFFEE70000014690F86F
:101470002100022816D10868D1E90FC3026822F0C2
:101480000E020260026822F001020260012000FAEE
:1014900003F2CCF8042081F821000020002281F81A
:1014A00020207047042088630120002281F820203A
:1014B0007047000080B590F82110022924D10268FD
:1014C000116821F00E0111602F211368C4F202018E
:1014D0008A4240F20401C4F2020123F001031360C6
:1014E00016DD3023C4F202039A421DD04423C4F215
:1014F00002039A421CD05823C4F202039A421DD11F
:101500004FF4803322E000BF04218163012080BDBD
:101510000823C4F202039A420ED01C23C4F2020331
:101520009A420BD1102311E04FF480730EE000BFFC
:101530004FF480530AE000BF012307E001F1680C7B
:101540004FF08073624508BF4FF480130B60012198
:1015500080F82110426B002180F820100AB19047DA
:101560000021084680BD000010B5D0E90FCE01680B
:10157000DCF800300A6823FA0EF35C072AD512F073
:10158000040427D00A68920603D40A6822F00402F1
:101590000A602F22C4F20202914240F20402C4F215
:1015A00002025BDD3023C4F20203994272D044236D
:1015B000C4F20203994273D05823C4F20203994241
:1015C00040F07A804FF480231360C16A002940F014
:1015D00098806FE09C0727D512F0020424D00A6897
:1015E000920606D40A6822F00A020A60012280F8F4
:1015F00021202F22C4F20202914240F20402C4F2DE
:1016000002023BDD3023C4F20203994260D044233E
:10161000C4F2020399425FD05823C4F202039942F4
:1016200060D14FF4003365E01B0743D512F0080288
:1016300008BF10BD0A6822F00E020A60012101FAFB
:101640000EF2CCF80420816380F82110016B002297
:10165000002980F8202054D12CE000BF0823C4F2D8
:101660000203994222D01C23C4F20203994223D1DF
:1016700040231360C16A002943D11BE00823C4F250
:10168000020399422CD01C23C4F20203994229D1AF
:1016900020232FE04FF480631360C16A89BB09E007
:1016A0004FF480431360C16A59BB03E00423136005
:1016B000C16A31BB10BD00BF02F168044FF0806306
:1016C000A14208BF4FF480031360C16AC9B9F1E7B2
:1016D0004FF400730EE000BF4FF400530AE000BF68
:1016E000022307E002F168044FF00073A14208BF33
:1016F0004FF400131360816A0022002980F8202033
:10170000D8D0BDE810400847014600284FF001003E
:1017100008BF70472DE9F043D1F800C04FF6F873C9
:10172000CBF6FD734CF6CD426344CCF6CC42A3FB22
:1017300002236FF0030707EA93030027C4F20207AE
:1017400001F10C09C1E90F730223D1E9012E99E8D7
:101750007002D1F81C8081F82130DCF8003043F6AB
:10176000F077BB431A4342EA0E0222432A43324334
:1017700042EA090242EA0802CCF8002000228A6309
:1017800081F8210081F820200020BDE8F043704757
:10179000F0B590F820C0BCF1010F32D04FF0010E2F
:1017A00080F820E090F821C0BCF1010F26D14FF065
:1017B000020C80F821C04FF0000CC0F838C0D0E90E
:1017C00000C4C56AC66BDCF80070102C27F0010756
:1017D000CCF80070006C0EFA00F070600846CCF88F
:1017E000043004BF10460A46CCF80800CCF80C20A0
:1017F000DCF8000045B140F00E000DE0002180F85B
:1018000020100220F0BD00BF20F00400CCF8000042
:10181000DCF8000040F00A00CCF80000DCF8000022
:1018200040F00100CCF800000020F0BDB0B5044647
:1018300000F01EF9054640F20000C2F200000078F8
:10184000611C18BF044400BF00F012F9401BA04205
:10185000FAD3B0BD2DE9F04F82B00E68002E00F033
:10186000038141F20042C4F20102042340F2004E1F
:10187000904208BF03234FF6FF7CC4F2010E009391
:1018800000240123C1F2100C4FF0000A4FF00009B0
:1018900049E000BF012704F00C030F229A402BEA15
:1018A000020207FA03F34FEA9A051A4346F8252085
:1018B000D1F804B040F20C455FEACB22DEF80820F4
:1018C00054BF22EA080242EA0802C4F20105CEF837
:1018D00008202A685FEA8B2354BF22EA080242EA02
:1018E00008022A605FEA8B33DEF8042054BF22EA44
:1018F000080242EA08025FEACB33CEF80420DEF8A1
:1019000000204FF0010354BF22EA080242EA080215
:10191000CEF800200E680AF1010A36FA0AF204F144
:10192000040400F0A18003FA0AF816EA080FF1D0C7
:101930004E68664512DC122E56D8DFE806F0350BED
:101940004549555555555555555555555555554D6B
:10195000510000BFD1F80C9046E000BF4FF6FF7277
:10196000C1F2210296420FDC0022C1F2110296421E
:101970001AD00022C1F21202964215D00022C1F202
:101980002102964210D02FE00022C1F2220296429C
:101990000AD00022C1F23102964205D00022C1F2E3
:1019A0003202964220D100BF8A684AB1012A14BF90
:1019B000C0F81480C0F810804FF0080914E000BF90
:1019C0004FF0040910E000BFCA6802F108090BE0FB
:1019D0004FF0000908E000BFCA6802F1040903E003
:1019E000CA6802F10C0900BF22460646BAF1080F88
:1019F00024BF203A043637680F25954027EA0505AD
:101A000009FA02F22A433260CA79D2067FF582AF20
:101A100041F21803C4F202031A68AEF57E7642F072
:101A200001021A601A6802F001020192019A2AF07A
:101A3000030256F802B040F60002C4F201029042DE
:101A400010D040F60042C4F2010290423FF422AFAF
:101A500041F20002C4F20102009F904208BF022737
:101A600019E700BF002716E702B0BDE8F08F0000BD
:101A700040F21C20C2F200000068704740F20000F3
:101A800040F21C21C2F20000C2F2000100780A6894
:101A9000104408607047000080B542F20000C4F2B4
:101AA0000200016841F010010160032000F086F897
:101AB0000F2000F005F800F027F8002080BD00009E
:101AC00070B540F20006C2F2000640F2080132781A
:101AD000C2F200014FF47A730968B3FBF2F20446D4
:101AE000B1FBF2F1084600F0CFFF0F2C4FF00105DB
:101AF00008D838B94FF0FF3021460022002500F009
:101B000031F87460284670BD82B041F21800C4F20A
:101B10000200016841F001010160016801F001016A
:101B200001910199416841F080514160406800F0A5
:101B300080500090009802B070470000002848BF15
:101B40007047C1B200F01F00012202FA00F04EF20D
:101B50000012CEF2000242EAD10121F00301086036
:101B60007047000010B54EF60C5CCEF2000CDCF8AD
:101B70000030C3F3022E8EF00704042C28BF042487
:101B8000BEF103034FF0FF3E0EFA04F438BF00230A
:101B9000A14399400EFA03F39A43114300F00F0258
:101BA00000F160430901043A03F5644362440028EC
:101BB00048BF02F10C03197010BD00004EF60C5125
:101BC000CEF200010A684FF6FF031A4060F30A22C2
:101BD00042F0806040F0FD70086070472020C4F241
:101BE0000E2001210160704780B5012818D002281D
:101BF00036D0102832D141F20401C4F202010A6841
:101C000051F8040CC00129D5C2F383402DA3185C00
:101C1000D2033DD440F60012C0F23D02504343E0EF
:101C200041F20400C4F20200C16940F202320A40EB
:101C3000B2F5817F04BF4FF4004080BD01F44071D4
:101C4000B1F5407F1CD0B1F5007F07D1006A49F69D
:101C50004041800701EAE07080BD00BF002080BDE8
:101C600000F0B4F941F20401C4F202010968022251
:101C7000C1F3813102EB4101B0FBF1F080BD00BF47
:101C800050F8040C4FF22441800301EAE07080BD5B
:101C90000A6810A3C2F340429A5C41F20023C0F2EA
:101CA0007A03B3FBF2F250430968490248BF80BD92
:101CB0004AF6AB214000CAF6AA21A0FB0101480860
:101CC00080BD00BF02030405060708090A0B0C0DBE
:101CD0000E0F1010010200002DE9F04182B0044601
:101CE000007841F21C06C007C4F202064AD03068F0
:101CF00010F0805808D1306840F080503060306873
:101D000000F080500190019847F20007C4F20007EC
:101D10003868C00512D4386840F480703860FFF726
:101D2000A7FE05463868C00508D4FFF7A1FE401B92
:101D30006428F7D9032002B0BDE8F081706810F480
:101D4000407012D0616801F4407188420DD0706813
:101D500040F24042C4F24222012320F44071136059
:101D60000023C007136071602AD17068616820F495
:101D700040700843B8F1000F706003D1306820F064
:101D8000805030602068810707D556F8181CA2687B
:101D900021F44041114346F8181CC00604D4002029
:101DA00002B0BDE8F08100BF56F8180CE16820F4DD
:101DB0008000084346F8180C002002B0BDE8F0810E
:101DC000FFF756FE054641F2883700BF706880076E
:101DD000CBD4FFF74DFE401BB8424FF00300F5D9BE
:101DE000EBE700002DE9F04381B0002800F085808A
:101DF00042F20008C4F202080446D8F800000D467A
:101E000000F0070088420CD2D8F8000020F007004C
:101E10002843C8F80000D8F8000000F00700A842E6
:101E20006BD1206841F204098107C4F2020917D579
:101E3000410705D5D9F8001041F4E061C9F8001058
:101E4000010705D5D9F8001041F46051C9F8001018
:101E5000D9F80010A26821F0F0011143C9F8001070
:101E6000C00741D1D8F8000000F00700A8420CD903
:101E7000D8F8000020F007002843C8F80000D8F880
:101E8000000000F00700A84237D12068410707D5BD
:101E9000D9F80010E26821F4E0611143C9F800109C
:101EA000000708D5D9F80000216920F4605040EA05
:101EB000C100C9F80000D9F8002002F00C00082881
:101EC00041F20020C0F27A0050D144F65653C2F3DA
:101ED0008341C0F60003595CD2033BD440F60010A6
:101EE000C0F23D00484341E0606802280AD0012862
:101EF0002AD159F8041C890308D4012001B0BDE897
:101F0000F08300BF59F8041C8901F6D5D9F80010F8
:101F100021F003010843C9F80000FFF7A9FD0646B8
:101F200041F28837D9F80000616800F00C00B0EB8E
:101F3000810F97D0FFF79CFD801BB842F2D9032098
:101F400001B0BDE8F08300BF59F8041C8907D4D55F
:101F5000DCE700BFD9F8002044F65453C2F34042F6
:101F6000C0F600039A5C4843B0FBF2F0D9F80010C9
:101F700044F63C52C1F30311C0F60002515C40F23A
:101F8000080220FA01F140F20400C2F200000068E9
:101F9000C2F200021160FFF793FD002001B0BDE81E
:101FA000F083000040F2080041F20401C2F2000098
:101FB000C4F202010068096844F64C52C1F30221E0
:101FC000C0F60002515CC8407047000040F20800B3
:101FD00041F20401C2F20000C4F202010068096883
:101FE00044F64C52C1F3C221C0F60002515CC84015
:101FF000704700002DE9F04182B0002868D0044607
:10200000007841F20006C007C4F2020625D07068CD
:1020100000F00C0004281BD0706800F00C000828A9
:1020200002D17068C00313D46068002800F0688192
:10203000B0F5A02F00F07C81B0F5803F00F07C81EE
:10204000306820F480303060306820F4802076E101
:102050003068800301D56068D0B32078800718D538
:10206000706810F00C0F07D0706800F00C000828A2
:102070006ED17068C0036BD43068800702D52069C8
:10208000012825D13068616920F0F80040EAC100DC
:102090003060207800071FD42078400732D4E569EB
:1020A00095B1706800F00C00082840F08F80012D79
:1020B0000ED07068216A00F480328A4208D1616AC9
:1020C00000F47010884203D1002002B0BDE8F08116
:1020D000012002B0BDE8F081A069002862D0002094
:1020E000C4F242200121C0F88014FFF7C1FC05466C
:1020F000706A800700F18C80FFF7BAFC401B022851
:10210000F6D92AE1F06910F0805808D1F06940F062
:102110008050F061F06900F080500090009847F224
:102120000007C4F200073868C00529D4386840F4B5
:1021300080703860FFF79CFC054600BF3868C0051A
:102140001ED4FFF795FC401B6428F7D905E100BFBA
:102150002069002840F20000C4F2422000F0828092
:1021600001210160FFF784FC054600BF306880074D
:102170003FF588AFFFF77CFC401B0228F6D9ECE066
:10218000E068002800F08080052800F09780012892
:1021900000F09880306A20F001003062306A20F050
:1021A000040092E00020C4F242200021C0F8801414
:1021B000FFF75EFC054600BF706A80077FF56CAFD5
:1021C000FFF756FC401B0228F6D9C6E00027C4F2F0
:1021D000422700203866FFF74BFC022D05460BD145
:1021E0003068800140F1BE80FFF742FC401B0228AE
:1021F0004FF00300F4D968E7306880017FF564AFE1
:10220000FFF736FC401B02284FF00300F4D95CE7CF
:1022100040F20800C2F20000006844F6D351C1F257
:102220006201A0FB0101480A019000BF00BF0198B4
:10223000411E002801913FF42FAF00BF0198411EBD
:10224000002801913FF428AF00BF0198411E0028EB
:1022500001913FF421AF00BF0198411E0028019178
:10226000E4D119E700210160FFF702FC054600BF39
:10227000306880077FF50DAFFFF7FAFB401B02289F
:102280004FF00300F4D920E7306A20F001003062FB
:10229000306A20F004003062FFF7EAFB054641F2A5
:1022A000883700BF306A800720D5FFF7E1FB401B6D
:1022B000B8424FF00300F5D907E700BF306A40F09D
:1022C00004003062306A40F001003062FFF7D0FB5A
:1022D000054641F2883700BF306A800706D4FFF711
:1022E000C7FB401BB842F7D937E000BFB8F1000F79
:1022F0007FF4D5AEF06920F08050F061CFE600BFEA
:10230000306820F480303060306820F48020306005
:10231000FFF7AEFB054600BF306880037FF59DAE3A
:10232000FFF7A6FB401B64284FF00300F4D9CCE66E
:10233000306840F480203060306840F48030306095
:10234000FFF796FB054600BF306880033FF585AE7A
:10235000FFF78EFB401B6428F6D9032002B0BDE8CE
:10236000F08100BF206AB0F5803F05D17168A26896
:1023700021F40031114371607168626A21F47411B3
:1023800011430843706001203866FFF771FB044673
:10239000306880013FF598AEFFF76AFB001B02280A
:1023A0004FF00300F4D990E62DE9F04706460028E7
:1023B0004FF0010000F0A5800C46002900F0A1803C
:1023C00030684168490700F1D98091468269C16946
:1023D000836948F6890583EA02073F041CBFC16987
:1023E0001A4689B241EA02414BF2C532C9F2A21241
:1023F000A1FB0223DA0A4FF4616302FB13139FB2BD
:102400006F437D0D65702D01A5EB5757A3EB870337
:1024100045F28017C0F20107B942A37036D344F2E7
:102420000753CCF22E23A1FB03374AF6AB23CAF69F
:10243000AA23A2FB03352B0903EB4303A2EBC30240
:102440002270026A406A4FEA174880B240EA0240AE
:10245000451A98BF4FF0FF35421C4AF68062CFF60E
:10246000FE7208FB021A08BF0546FFF701FB07468C
:1024700030684168890647D4FFF7FAFAC01BB0F507
:102480007A7FF5D90120BDE8F08700BF2270B9F14D
:10249000000F00F09F802178CD26A1F10A03DFB262
:1024A0007743FD0A05EB85056278A3EB450301251B
:1024B000A07805EBD727092988BF43EA07112170C7
:1024C000A2F10A01CBB27343DF0A07EB8707A1EB46
:1024D000470105EBD323092A88BF41EA0312A0F183
:1024E0000A016270CAB27243D30A03EB8303A1EB01
:1024F000430105EBD222092888BF41EA0210A070EF
:102500000020BDE8F08700BF416841F01001416044
:102510004FEA1A4181611FFA8AF1C161416821F0D5
:1025200010014160FFF7A4FA074600BF3068406819
:10253000800609D4FFF79CFAC01BB0F57A7FF5D965
:102540000120BDE8F08700BF681C11D05544FFF79B
:102550008FFA074630684168890613D4FFF788FA76
:10256000C01BB0F57A7F4FF00100F3D9C9E700BF77
:1025700030464FF0FF3101F09FFB18B30120BDE85A
:10258000F08700BF416841F010014160290C0162F1
:10259000A9B24162416821F010014160FFF768FA79
:1025A000074600BF3068406880060BD4FFF760FA2A
:1025B000C01BB0F57A7F4FF0010088BFBDE8F087FF
:1025C000F0E700BF3046414601F020FAB9F1000FB4
:1025D0007FF461AF0020BDE8F087000070B50028EF
:1025E00066D00446407C20B900202074204600F0CC
:1025F0006FF8022060742068416821F00801416092
:10260000FFF736FA064600BF20684568FFF730FA44
:10261000290705460ED4A81BB0F57A7FF4D9012509
:1026200004206074284670BDFFF722FA401BB0F505
:102630007A7FF4D8216848688006F5D5486846F660
:102640002C4240F0100048604868C4F2000220F0BC
:1026500007004860A06818B1536823F00103536075
:10266000136823F46073184310606068421C06D13D
:1026700001200125FFF7B8FA30B321680138C0F313
:10268000034280B28A60C860486820F01000486049
:10269000FFF7EEF9054600BF20684068800609D4C0
:1026A000FFF7E6F9401BB0F57A7FF5D9B7E700BF31
:1026B000012070BD40F201100025A4F80D0001209A
:1026C000E5736074284670BD04206074284670BDB0
:1026D00080B582B0006842F60001C4F20001884271
:1026E00002D002B080BD00BFFFF778FA41F21C00B3
:1026F000C4F20200016841F000610160006801213C
:1027000000F000600190019840F23C40C4F2422089
:10271000016002B080BD0000F0B581B00446002821
:102720004FF0010018BF002902D101B0F0BD00BF79
:10273000207C01284FF00200F7D00123237460743D
:10274000CB78BAB1180900EB800003F00F0202EB5E
:10275000400348788A78070907EB870700F00F00E5
:1027600000EB4707100900EB800002F00F0202EBBC
:10277000400001E04F788878022FDAB2E373677384
:10278000A0730FD817237B4348F63967C3F6E307D6
:10279000A3FB0737C7F3470C02F2CF7340F2D47E96
:1027A0000CE000BF47F2D916FFB2C0F2140677431F
:1027B00002F5FA634FEAD74C40F2D27EC0B2104421
:1027C0009D0841F27B4770446F431D0940F63E2649
:1027D00000EB93007543A0EB574000EB15406044BD
:1027E00082B242F293435A43A0EB12439BB25B087E
:1027F00003EB12429208A2EBC2021044226820733B
:1028000008709169D0699369002683EA01073F0443
:102810001CBFD069194680B240EA014045F690716C
:10282000C0F2010188421BD344F20751CCF22E21A1
:10283000A0FB0112110C40F2A3225143A0EBC117DF
:10284000FFF716F9054600BF2068416889060DD4D8
:10285000FFF70EF9401BB0F57A7FF5D920E000BFF5
:10286000012100206174267401B0F0BD416841F07F
:1028700010014160390C8161B9B2C161416821F038
:1028800010014160FFF7F4F8054600BF2068416879
:1028900089060BD4FFF7ECF8401BB0F57A7FF5D929
:1028A000012004216174267401B0F0BD016A406A00
:1028B00080B240EA0140B84230D200F5803000F5E5
:1028C000A347FFF7D5F8054620684168890607D475
:1028D000FFF7CEF8401BB0F57A7FF5D9E0E700BFEF
:1028E000416841F010014160390C0162B9B24162A6
:1028F000416821F010014160FFF7BAF805462068F1
:10290000406880060AD4FFF7B3F8411B0120B1F5F7
:102910007A7F4FF00401F2D9A4E700BF0020012123
:102920006174267401B0F0BD70B5044600284FF004
:10293000010018BF002901D170BD00BF207C012813
:102940004FF0020008BF70BD012323746074087843
:1029500002B3020902EB820200F00F0000EB42001A
:10296000C0B24FF4616250434A788978130903EB8F
:10297000830302F00F0202EB4302D2B2C2EB021257
:1029800000EB82000A0902EB820201F00F0101EB69
:10299000420108E04FF4616250434A788978C2EB03
:1029A000021200EB8200C9B24618FFF761F8054633
:1029B00020684168890607D4FFF75AF8401BB0F534
:1029C0007A7FF5D91AE000BF416841F010014160FB
:1029D000310C8161B1B2C161416821F010014160E7
:1029E000FFF746F8054600BF2068416889060BD40A
:1029F000FFF73EF8401BB0F57A7FF5D9012004219E
:102A000061740021217470BD416821F005014160AD
:102A1000016A406A80B240EA0140B0422ED200F51D
:102A2000803000F5A346FFF723F80546206841688B
:102A3000890607D4FFF71CF8401BB0F57A7FF5D95B
:102A4000DCE700BF416841F010014160310C0162D8
:102A5000B1B24162416821F010014160FFF708F80E
:102A6000054600BF20684068800607D4FFF700F8DD
:102A7000401BB0F57A7FF5D9C0E700BF00200121E7
:102A800061740021217470BD411E0020B0EB116FF4
:102A90001CBF012070474EF21002CEF200025160BE
:102AA0004EF62351CEF20001F0230B700721906007
:102AB000116070477047000010B504460068416916
:102AC00094F84120212A56D111F0800153D000BF43
:102AD000206850E8050F216820F0800041E80502D9
:102AE000DAB1206850E8050F216820F0800041E845
:102AF000050292B1206850E8050F216820F080009F
:102B000041E805024AB1206850E8050F216820F02D
:102B1000800041E80502002ADAD1A06B002818BF26
:102B2000FEF7A4FC206850E8030F216820F0C000E5
:102B300041E80302DAB1206850E8030F216820F071
:102B4000C00041E8030292B1206850E8030F2168F9
:102B500020F0C00041E803024AB1206850E8030FAA
:102B6000216820F0C00041E80302002ADAD12020C9
:102B700084F841002068406994F84210222940F00E
:102B8000A78010F0400000F0A38000BF206850E84C
:102B9000050F216820F0400041E80502DAB1206805
:102BA00050E8050F216820F0400041E8050292B18D
:102BB000206850E8050F216820F0400041E8050238
:102BC0004AB1206850E8050F216820F0400041E834
:102BD0000502002ADAD1E06B002818BFFEF746FC98
:102BE000206850E8030F216820F4907041E8030248
:102BF000BAB3206850E8030F216820F4907041E8D0
:102C0000030272B3206850E8030F216820F490702B
:102C100041E803022AB3206850E8030F216820F43A
:102C2000907041E80302002ADAD11AE0206850E8E7
:102C3000050F216820F0010041E80502DAB12068A3
:102C400050E8050F216820F0010041E8050292B12B
:102C5000206850E8050F216820F0010041E80502D6
:102C60004AB1206850E8050F216820F0010041E8D2
:102C70000502002ADAD1206B012824D1206850E80F
:102C8000030F216820F0100041E80302DAB1206848
:102C900050E8030F216820F0100041E8030292B1D0
:102CA000206850E8030F216820F0100041E803027B
:102CB0004AB1206850E8030F216820F0100041E875
:102CC0000302002ADAD1202084F842000020206389
:102CD000002010BD70470000B0B582B00446006807
:102CE0000168C368426901F02F05202D03F020051B
:102CF00006D12DB1204602B0BDE8B04001F0EEB9DA
:102D00005FEA017C1EBF02F0010E03F4907212EB29
:102D10000E0253D1226B012A05D111F0100218BF07
:102D200013F0100236D10A0622D513F080021FD00C
:102D300094F8411021293FD1A168B1F5805F03D1FA
:102D40002169002900F07082216A4A1C22620978F8
:102D50004160E18C01390A04E1842DD1C16821F080
:102D60008001C160C16841F04001C16002B0B0BDE6
:102D7000490621D513F040011ED0C16821F0400161
:102D8000C1602021204684F8411002B0BDE8B04067
:102D900000F030BE0021019101680191416801916C
:102DA00001994069400613D4A08DE18DE28D002A7F
:102DB00018BF884240F0BA8102B0B0BDCA0718BF40
:102DC00013F4807240F0B6804A0700F1B980BEE08B
:102DD000E06B016849688AB2002AEDD0A38D9A425F
:102DE000EAD2E1858069202800F09C80206850E8C4
:102DF000030F216820F4807041E80302DAB12068F3
:102E000050E8030F216820F4807041E8030292B17A
:102E1000206850E8030F216820F4807041E8030225
:102E20004AB1206850E8030F216820F4807041E81F
:102E30000302002ADAD1206850E8050F216820F04B
:102E4000010041E80502DAB1206850E8050F216869
:102E500020F0010041E8050292B1206850E8050F1A
:102E6000216820F0010041E805024AB1206850E8DD
:102E7000050F216820F0010041E80502002ADAD19F
:102E8000206850E8050F216820F0400041E8050265
:102E9000DAB1206850E8050F216820F0400041E8D1
:102EA000050292B1206850E8050F216820F040002B
:102EB00041E805024AB1206850E8050F216820F07A
:102EC000400041E80502002ADAD1202084F84200BF
:102ED00000202063206850E8030F216820F01000D4
:102EE00041E80302DAB1206850E8030F216820F0BE
:102EF000100041E8030292B1206850E8030F2168F6
:102F000020F0100041E803024AB1206850E8030FA6
:102F1000216820F0100041E80302002ADAD1E06BBA
:102F2000FEF7A4FA02206063A08DE18D401A81B201
:102F3000204674E1626C42F0010262644A0706D5E1
:102F4000BEF1000F03D0626C42F0020262648A0795
:102F500006D5BEF1000F03D0626C42F00402626439
:102F6000BCF1000F09D545EA0E02B2FA82F252090D
:102F700003D1626C42F008026264626C002A3FF482
:102F80001BAF11F0200118BF002D03D0204601F027
:102F9000A5F820684069616C00F0400001F008016C
:102FA000401800F0B58000BF206850E8030F21688A
:102FB00020F4907041E80302BAB3206850E8030F90
:102FC000216820F4907041E8030272B3206850E851
:102FD000030F216820F4907041E803022AB32068AF
:102FE00050E8030F216820F4907041E80302002AA2
:102FF000DAD11AE0206850E8050F216820F00100BE
:1030000041E80502DAB1206850E8050F216820F098
:10301000010041E8050292B1206850E8050F2168DF
:1030200020F0010041E805024AB1206850E8050F90
:10303000216820F0010041E80502002ADAD1206B66
:10304000012824D1206850E8030F216820F01000E7
:1030500041E80302DAB1206850E8030F216820F04C
:10306000100041E8030292B1206850E8030F216884
:1030700020F0100041E803024AB1206850E8030F35
:10308000216820F0100041E80302002ADAD1202054
:1030900084F84200002020632068406940063FD544
:1030A000206850E8050F216820F0400041E8050243
:1030B000DAB1206850E8050F216820F0400041E8AF
:1030C000050292B1206850E8050F216820F0400009
:1030D00041E805024AB1206850E8050F216820F058
:1030E000400041E80502002ADAD1E06BC0B143F6A6
:1030F0002551C0F600014163FEF7DCF900283FF4DA
:103100005BAEE06B416B02B0BDE8B040084700BF6A
:103110002046FFF7DFFD0020606402B0B0BD00BFB5
:10312000204602B0BDE8B040FFF7D4BD401A216888
:1031300051E8031F226821F4907142E80313DBB1C8
:10314000216851E8031F226821F4907142E80313BB
:1031500093B1216851E8031F226821F4907142E87D
:1031600003134BB1216851E8031F226821F49071C9
:1031700042E80313002BDAD1216851E8051F2268C9
:1031800021F0010142E80513DBB1216851E8051F78
:10319000226821F0010142E8051393B1216851E84A
:1031A000051F226821F0010142E805134BB1216897
:1031B00051E8051F226821F0010142E80513002BA8
:1031C000DAD1202184F8421000212163216851E8DE
:1031D000031F226821F0100142E80313DBB12168CC
:1031E00051E8031F226821F0100142E8031393B154
:1031F000216851E8031F226821F0100142E80313FF
:103200004BB1216851E8031F226821F0100142E808
:103210000313002BDAD1022281B22046626302B08E
:10322000BDE8B040FFF746BC216A31F8022B6FF3CE
:103230005F22426021628CE5002804BF01207047B4
:1032400010B5044690F8410028B9002084F84000E9
:10325000204600F063F8242084F841002068D4E977
:103260000212C36823F40053C360036923F440537C
:103270001A430261D4E904231143C268194341F29D
:103280000C639A431143C1604169A26921F4407102
:10329000114343F60002C4F201029042416103D09F
:1032A000FEF780FE02E000BFFEF790FE6268192183
:1032B00048439100B0FBF1F048F21F51C5F2EB1109
:1032C000A0FB01235A094FF69C73C0F6FF7302FB63
:1032D0000300322303EB0010A0FB0101F02303EAFB
:1032E0005113206803EB0212C1F3431111448160B2
:1032F000016921F490410161416921F02A01416194
:10330000C16841F40051C16000202021606484F84C
:10331000411084F84210606310BD00002DE9F041B7
:1033200086B040F600050446C4F20105006805F5C4
:10333000405100278842049702D006B0BDE8F081D2
:1033400041F21800C4F20200016802AE41F480416B
:103350000160016840F2440801F480410191019943
:103360000168C4F2020841F00401016000683146BE
:1033700000F00400019001984FF4007002900220C8
:103380000390032005902846FEF764FA4FF480600E
:10339000CDE90207284631460497FEF75BFA40F272
:1033A000CC0508F11400C2F200058026C5E900072B
:1033B0002846C5E90276C5E90477C5E90677FEF730
:1033C000A3F9002818BFFEF74BF8E5636C6240F2E2
:1033D0001015C2F2000510200021C5E90080284622
:1033E000C5E90216C5E90411C5E90611FEF78CF915
:1033F000002818BFFEF734F8252001210022A5631C
:103400006C62FEF7AFFB2520FEF798FB06B0BDE827
:10341000F081000070B582B0044690F84200202888
:103420000AD113460A4600294FF0010018BF002BAD
:1034300006D102B070BD00BF022002B070BD00BF57
:10344000002522202563A262A385656484F84200DA
:103450002168E06B43F6AD6C44F20D0E43F6315635
:10346000C0F6000CC0F6000EC0F600060431C0E93C
:103470000ACEC0E90C65FEF78BF90195206801685A
:103480000191406801900198206928B3206850E8B4
:10349000030F216840F4807041E80302E2B1206824
:1034A00050E8030F216840F4807041E803029AB1AC
:1034B000206850E8030F216840F4807041E803025F
:1034C00052B1206850E8030F216840F4807041E851
:1034D0000302002ADAD100BF206850E8050F2168F6
:1034E00040F0010041E80502E2B1206850E8050F14
:1034F000216840F0010041E805029AB1206850E8D7
:10350000050F216840F0010041E8050252B1206832
:1035100050E8050F216840F0010041E80502002A4B
:10352000DAD100BF206850E8050F216840F0400064
:1035300041E80502DAB1206850E8050F216840F043
:10354000400041E8050292B1206850E8050F21686B
:1035500040F0400041E805024AB1206850E8050FFC
:10356000216840F0400041E80502002ADAD100203D
:1035700002B070BD70B582B00446C38D90F84100B2
:1035800020284ED1002B4CD040F29C11C2F20001F9
:103590004FF0000C21202162A384E384C4F844C0CE
:1035A00084F841002268A06B44F2250E44F2D50550
:1035B00043F63156C0F6000EC0F60005C0F6000610
:1035C0000432C0E90AE5C0E90C6CFEF7E1F82068B6
:1035D0006FF04001016000BF206850E8050F2168CE
:1035E00040F0800041E80502DAB1206850E8050F9C
:1035F000216840F0800041E8050292B1206850E85F
:10360000050F216840F0800041E805024AB12068BA
:1036100050E8050F216840F0800041E80502002ACB
:10362000DAD140F25414C2F2000494F84200202887
:1036300040F09F80002540F29C1280202563C2F25A
:103640000002A0852220A262656484F84200E06B3B
:10365000216843F6AD63C0F6000344F20D0643F65D
:10366000315C00F1280EC0F60006C0F6000C8EE8B2
:103670004810043180234563FEF78AF801952068DD
:1036800021690268019240680190019831B300BF3E
:10369000206850E8030F216840F4807041E803027D
:1036A000E2B1206850E8030F216840F4807041E8DF
:1036B00003029AB1206850E8030F216840F480703B
:1036C00041E8030252B1206850E8030F216840F43A
:1036D000807041E80302002ADAD100BF206850E878
:1036E000050F216840F0010041E80502BAB32068E7
:1036F00050E8050F216840F0010041E8050272B36F
:10370000206850E8050F216840F0010041E80502FB
:103710002AB3206850E8050F216840F0010041E815
:103720000502002ADAD11AE0206850E8050F216866
:1037300040F0400041E80502DAB1206850E8050F8A
:10374000216840F0400041E8050292B1206850E84D
:10375000050F216840F0400041E805024AB12068A9
:1037600050E8050F216840F0400041E80502002ABA
:10377000DAD102B070BD0000704700002DE9F043BF
:1037800081B0044690F84100202840F0B18088467E
:1037900000294FF0010000F0D6801646002A00F004
:1037A000D2800020606421201D4684F84100FEF78D
:1037B0005FF9A684E684A1680646B1F5805F03D16F
:1037C0002069002800F0988047464FF00008E18CFF
:1037D0002068002900F0968005F101090BE000BF88
:1037E00047B317F8011B4160E18C0139E184E18C9A
:1037F000002900F0878001680906F1D4B9F1000FB3
:103800000AD0EDB1FEF734F9801BA84218D8206821
:1038100001680906F6D5E3E701680906E0D4016806
:1038200009065CBF01685FEA0161D9D40168090635
:10383000F2D5D5E738F8021B00276FF35F21D2E7F6
:10384000206850E8030F216820F4D07041E803029B
:10385000BAB3206850E8030F216820F4D07041E823
:10386000030272B3206850E8030F216820F4D0707F
:1038700041E803022AB3206850E8030F216820F4CE
:10388000D07041E80302002ADAD11AE0206850E83B
:10389000050F216820F0010041E80502DAB1206837
:1038A00050E8050F216820F0010041E8050292B1BF
:1038B000206850E8050F216820F0010041E805026A
:1038C0004AB1206850E8050F216820F0010041E866
:1038D0000502002ADAD1202084F8410084F8420051
:1038E000002084F84000032001B0BDE8F08300BF51
:1038F000022001B0BDE8F0830027E18C2068002998
:103900007FF46AAF0168490619D4FDB1691C0DD175
:103910000168490613D4016849065CBF01685FEA83
:1039200041610CD401684906F2D508E0FEF7A0F821
:10393000801BA8420AD8206800684006F6D52020DF
:1039400084F84100002001B0BDE8F083206850E811
:10395000030F216820F4D07041E80302002A3ED012
:10396000206850E8030F216820F4D07041E803027A
:10397000AAB3206850E8030F216820F4D07041E812
:10398000030262B3206850E8030F216820F4D0706E
:1039900041E80302002AD9D121E000BF206850E8A5
:1039A000050F216820F0010041E80502002A3FF4DC
:1039B00092AF206850E8050F216820F0010041E82F
:1039C0000502002A3FF487AF206850E8050F216800
:1039D00020F0010041E80502002A3FF47CAF206896
:1039E00050E8050F216820F0010041E80502002A97
:1039F000D4D170E77047000070470000FEE7000078
:103A0000FEE70000FEE70000704700002DE9F043EC
:103A1000427B837B90F80FC0002900F0D3800129FE
:103A200001F0010E18D1BEF1000F00F0CB800C2A7E
:103A300000F2C8800121914041F2AA57394200F0BA
:103A4000B7801F2BC0F0B9800C2A40F0B9800CF170
:103A5000010C0122B5E000BF45F6294945F628478B
:103A60004DF20B7821F00101012441F2AA55CCF26C
:103A70008F29C0F28F27C0F2A30802E00133023978
:103A8000D1D00C2A16D804FA02F62E4208D01E2BEA
:103A90000BD90C2A0CD10CF1010C012209E000BF5A
:103AA00016F4256F1ED01D2B02D8013302E000BF93
:103AB000013201230C2AE2D804FA02F62E4209D080
:103AC0001F2BDBD30C2A0AD10CF1010C012201239C
:103AD000D5E700BF16F4256F0CD01E2BCED30132D4
:103AE0000123CCE7022AE5D11B2B0BD8013302229C
:103AF000E0E700BF022AC2D11C2B0DD20133022203
:103B0000BDE700BF1D2B0DD01C2B0FD15FEA8C72BF
:103B100016D000222FE000BF0AD01D2B0ED10123AA
:103B20000322ACE701230322C4E700BF0222C1E75E
:103B30005FEA8C720ED000222FE000BF02229EE7C7
:103B40001FFA8CF202FB09F24FEAB203BB420BD917
:103B5000012210E01FFA8CF202FB09F24FEAB203D5
:103B6000BB4213D9012218E04FEA321242454FF00E
:103B7000000238BF0122002A4FF002024FF01D035D
:103B800008BF032208BF012394E700BF4FEA3212A7
:103B900042454FF0000238BF0122002A4FF00202D6
:103BA0004FF01D0308BF032208BF012367E700BFD2
:103BB00011F4256F48D01E2B02D2013302E000BF62
:103BC00001320123D1B2022980F80FC042738373FE
:103BD0000ED81722514348F63962C3F6E302A1FB1F
:103BE0000212C2F347010CF2CF7240F2D47709E01F
:103BF00047F2D917C0F2140779430CF5FA62C90CE1
:103C000040F2D277DBB248F21F566344C5F2EB169E
:103C10003B44A2FB066503EB9202A2EB551202EBBA
:103C2000D512114444F62512C2F29242A1FB02239E
:103C3000CA1A03EB52029308DB00A3EB9202891A23
:103C40000173BDE8F08300BF022ABBD11C2B03D255
:103C500001330222B6E700BF04D01D2B08D1012397
:103C60000322AFE75FEA8C7104D001211CE000BFA2
:103C70000222A7E745F629421FFA8CF1CCF28F22E7
:103C80004A4345F628434FEAB201C0F28F239942D6
:103C90004FF0000108D84DF20A734FEA3212C0F219
:103CA000A3039A4288BF012102221D23002918BFC5
:103CB000032218BF012385E770B50D460446FDF7C2
:103CC000D7FE064620684168890607D4FDF7D0FE76
:103CD000801BB0F57A7FF5D9012070BD416841F0B5
:103CE00010014160290C0162A9B24162416821F0D2
:103CF00010014160FDF7BCFE054600BF206840682A
:103D0000800607D4FDF7B4FE401BB0F57A7FF5D9E5
:103D1000012070BD002070BD70470000FDF7AEBEF1
:103D200070470000406A0021C185C184FEF7D2BF00
:103D3000406A01684A6990F84130212B2DD112F078
:103D400080022AD00021C184016851E8031F026863
:103D500021F0C00142E80313DBB1016851E8031F01
:103D6000026821F0C00142E8031393B1016851E8F1
:103D7000031F026821F0C00142E803134BB1016840
:103D800051E8031F026821F0C00142E80313002B31
:103D9000DAD1202180F841100168496990F8422069
:103DA000222A40F07D8011F0400179D00021C185A8
:103DB000016851E8031F026821F4907142E803137F
:103DC000BBB3016851E8031F026821F4907142E817
:103DD000031373B3016851E8031F026821F4907163
:103DE00042E803132BB3016851E8031F026821F472
:103DF000907142E80313002BDAD11AE0016851E810
:103E0000051F026821F0010142E80513DBB10168DA
:103E100051E8051F026821F0010142E8051393B142
:103E2000016851E8051F026821F0010142E805130D
:103E30004BB1016851E8051F026821F0010142E819
:103E40000513002BDAD1016B012924D1016851E857
:103E5000031F026821F0100142E80313DBB101687F
:103E600051E8031F026821F0100142E8031393B1E7
:103E7000016851E8031F026821F0100142E80313B2
:103E80004BB1016851E8031F026821F0100142E8BC
:103E90000313002BDAD1202180F8421000210163A6
:103EA000416C41F010014164FEF714BF0168406AA3
:103EB0000968890600F19F800021C185016851E8E9
:103EC000031F026821F4807142E80313E3B1016823
:103ED00051E8031F026821F4807142E803139BB18B
:103EE000016851E8031F026821F4807142E803135E
:103EF00053B1016851E8031F026821F4807142E860
:103F00000313002BDAD100BF016851E8051F0268D6
:103F100021F0010142E80513BBB3016851E8051F18
:103F2000026821F0010142E8051373B3016851E80A
:103F3000051F026821F0010142E805132BB3016857
:103F400051E8051F026821F0010142E80513002B2A
:103F5000DAD11AE0016851E8051F026821F040013A
:103F600042E80513DBB1016851E8051F026821F042
:103F7000400142E8051393B1016851E8051F02684A
:103F800021F0400142E805134BB1016851E8051FDB
:103F9000026821F0400142E80513002BDAD120210C
:103FA00080F84210016B012925D100BF016851E85A
:103FB000031F026821F0100142E80313DBB101681E
:103FC00051E8031F026821F0100142E8031393B186
:103FD000016851E8031F026821F0100142E8031351
:103FE0004BB1016851E8031F026821F0100142E85B
:103FF0000313002BDAD100214163016B012918BFA3
:10400000FFF7B8BA818DFEF755BD0000406A012167
:104010004163016B012918BFFFF7AEBB818D4908D1
:10402000FEF748BD0168406A0968890648BFFFF786
:10403000E1BC0021C18400BF016851E8051F02688E
:1040400021F0800142E8051383B3016851E8051FA0
:10405000026821F0800142E805133BB3016851E892
:10406000051F026821F0800142E80513F3B10168E1
:1040700051E8051F026821F0800142E80513002B7A
:10408000DAD113E0016851E8031F026841F04001F2
:1040900042E80313002B08BF7047016851E8031F73
:1040A000026841F0400142E8031393B1016851E80E
:1040B000031F026841F0400142E803134BB101685D
:1040C00051E8031F026841F0400142E80313002B4E
:1040D000D8D17047406AFFF78FBC000081B090F8DC
:1040E0004210222921D183680246B3F5805F09D1AD
:1040F00052F8281F52F8183C002B63D003685B6805
:104100000AE000BF52F8281F13B90369002BF5D04D
:1041100003685B6803F07F030B7011680131116065
:10412000C18D01390A04C18502D001B0704700BFBA
:104130000168CA6822F02002CA60CA6822F480724C
:10414000CA604A6922F001024A61202180F84210C7
:1041500000214163026B012A3CD10163016851E8EF
:10416000031F026821F0100142E80313DBB101686C
:1041700051E8031F026821F0100142E8031393B1D4
:10418000016851E8031F026821F0100142E803139F
:104190004BB1016851E8031F026821F0100142E8A9
:1041A0000313002BDAD101680A68D20606D5002273
:1041B00000920A680092496800910099818D01B0CF
:1041C000FEF778BC026852686FF35F2221F8022B79
:1041D0008162A5E701B0FFF7CDB9000010B540F24C
:1041E0005414C2F200042046FEF776FD20680168F0
:1041F000C90658BF10BD6FF0300101602046FEF7C0
:104200005BFCE06BA18D00684068091A2046E185DF
:10421000BDE81040FFF7AEB9FEE7000098B0FDF72B
:104220003BFC0EAC201D2421FCF755F80A200E9013
:104230000120102100251290CDE913102046CDE970
:1042400007551595FDF7D6FE20B1EFF3108072B635
:10425000FEE700BF0F20CDE9090509A80021CDE93F
:104260000B550D95FDF7BEFD20B1EFF3108072B632
:10427000FEE700BF012005904FF40070069005A8EE
:10428000FDF72AFD20B1EFF3108072B6FEE700BF04
:1042900041F21800C4F20200016842F6000641F043
:1042A000200101600168002201F020010E910E99A9
:1042B0000168C4F2000641F00401016001680025B4
:1042C00001F004010E910E9950F8041C41F0010117
:1042D00040F8041C50F8040C032100F001000E907B
:1042E0000E980E20FDF73EFC0E20FDF727FC0F2058
:1042F00003210022FDF736FC0F20FDF71FFC40F2E2
:10430000011040F27004C0F20100C2F200040E90ED
:10431000204640F8086F4FF0FF314FF48072C0E93B
:104320000112FEF75BF928B1EFF3108072B600BFFF
:10433000FEE700BF04F1080909A948460022ADF8CC
:1043400024508DF82650FEF7EFFA28B1EFF31080D5
:1043500072B600BFFEE700BF0EA948460022002744
:10436000FEF7DAF920B1EFF3108072B6FEE700BF76
:1043700006F5883040F25416C2F200064FF4E131DF
:104380000C2286E883003046C6E90377C6E9052794
:10439000F761FEF751FF28B1EFF3108072B600BF4E
:1043A000FEE700BF30688022C16841F01001C160A3
:1043B00040F29C11C2F200013046FFF72BF80FF2D9
:1043C000340800BF484621460022FDF7EDFFA079E2
:1043D0002779667921786278A378E578CDE90007B6
:1043E000404602960395FDF715F84FF47A70FDF7F5
:1043F0001DFAE7E7253032643A253032643A253039
:1044000032640A253032642D253032642D25303255
:1044100064202530326400005FEA400C08BF91F050
:10442000000F4FEA8C234FEAC12243EA51514FEA71
:104430001C5018BF00F5F0404FEA300018BF41F0A3
:1044400000415FEA6C5C00F02980BCF1FF3F08BFCF
:1044500040F080407047130C06BF12044FF0100C60
:104460004FF0000C130E04BF12020CF1080C130FD6
:1044700004BF12010CF1040C930F04BF92000CF165
:10448000020CD30F04BF52000CF1010C11464FF087
:104490000002A0F11F00A0EB0C00704711F0004FCC
:1044A00008BF704731F000413FF4D5AF0B0C06BF99
:1044B00009044FF0100C4FF0000C0B0E04BF090262
:1044C0000CF1080C0B0F04BF09010CF1040C8B0F4D
:1044D00004BF89000CF1020CCB0F04BF49000CF1A2
:1044E000010CCCF1200322FA03F341EA030102FAA2
:1044F0000CF2A0EB0C0000F10100704723F07F47A5
:1045000020F07F4C80EA030000F00040ACEB070392
:1045100003F57C5303F1FF032DE9804909B44FEA09
:10452000144324EA03484FEA154B25EA0B4E0FF2D9
:10453000042606EB13273E7803FB0667C7F5000742
:1045400007FB06F64FEAD64606F102064FEA543755
:1045500007FB066CCCF1005C4FEA1C472CEA074CC9
:104560000CFB06F507FB06F404EB15464FEA96161E
:1045700049085FEA320234BF00204FF000404FEAA2
:10458000D13706FB07FC4FEA1C4C0CFB0BF7D21B88
:1045900003FB0CF761EB07010CFB0EF7B0EB0740D8
:1045A00072EB17420CFB08F734BFA2EB0742B2EBE9
:1045B000074261EB17414FEA0C444FEA910706FBB3
:1045C00007FC4FEA1C4C0CFB0BF7B0EBC74072EB3F
:1045D000573203FB0CF734BFA2EBC742B2EBC74222
:1045E00061EB57310CFB0EF7B0EBC70072EB577263
:1045F0000CFB08F734BFA2EBC702B2EBC70261EBBA
:1046000057714FEA816141EA92114FEA826242EAB0
:1046100090124FEA806004EBCC04039F4FEAD1373D
:1046200006FB07FC4FEA1C4C0CFB0BF7D21B03FBF1
:104630000CF761EB07010CFB0EF7B0EB074072EBD8
:1046400017420CFB08F734BFA2EB0742B2EB07425C
:1046500061EB17414FEA8C5504EB9C244FEA91071C
:1046600006FB07FC4FEA1C4C0CFB0BF7B0EBC740FA
:1046700072EB573203FB0CF734BFA2EBC742B2EB2D
:10468000C74261EB57310CFB0EF7B0EBC70072EB82
:1046900057720CFB08F734BFA2EBC702B2EBC7029C
:1046A00061EB57714FEA816141EA92114FEA8262F0
:1046B00042EA90124FEA806015EB4C2544F1000469
:1046C0004FEAD13706FB07FC4FEA1C4C0CFB0BF7FB
:1046D000D21B03FB0CF761EB07010CFB0EF7B0EBF1
:1046E000074072EB17420CFB08F734BFA2EB0742FE
:1046F000B2EB074261EB17414FEA813141EA924147
:104700004FEA823242EA90424FEA80304FEA0C761A
:1047100015EB1C1544F1000448EA03434EEA0B482C
:104720004FF0000EB2EB080C71EB030724BF62469A
:1047300039464EEB0E0E4FF0000B00185241494126
:104740004BEB0B0BB2EB080C71EB03077BF1000B8F
:1047500024BF624639464EEB0E0E4FF0000B001898
:10476000524149414BEB0B0BB2EB080C71EB0307C9
:104770007BF1000B24BF624639464EEB0E0E51EA28
:10478000020718BF46F0010616EB0E7655F100023F
:1047900054F1000103D5BDE88901BDE80088BDE8FA
:1047A0008901BDE80048B619524141EB0101A3F16E
:1047B0000103704780807F7E7D7C7B7A7978777675
:1047C00076757473727171706F6E6E6D6C6C6B6AEE
:1047D0006A6968686766666564646363626161608C
:1047E000605F5F5E5E5D5D5C5C5B5B5A5A59595809
:1047F0005857575656555555545453535252525173
:10480000515050504F4F4F4E4E4D4D4D4C4C4C4BC8
:104810004B4B4A4A4A49494948484847474747460F
:10482000464645454544444444434343434242424B
:10483000424141419C46002B30D477002BD04FEAB7
:1048400037071CB503B44FF010004FF01001BAF158
:10485000000F06D0BCF1000FDCBF40F0080040F0B4
:1048600008014FF000000FBCBDE810400BF1010B38
:10487000BBF1010F08BF5FEA170722BF12F1010267
:1048800011F101014FF0004143F1000300F000403D
:1048900043EA00007047F9D35708D0E746EA0646D6
:1048A0004FEA164613F1400F1FDD13F1200FDFBF53
:1048B00016430A46002120335B42BED0C3F12007D5
:1048C00046EA06464FEA164602FA07F746EA0706A0
:1048D00022FA03F2C3F1200701FA07F742EA0702BE
:1048E00021FA03F14FF00003A7E746EA020646EA81
:1048F00006464FEA164646EA0106BCBF46EA0646A9
:10490000360C4FF000034FF000024FF0000194E727
:104910002DE9804C70B49A46934691E8380007C858
:1049200031EA400C48BF34EA430C03D5FFF7E6FDFB
:10493000FFF780FFF0BCBDE8008C2DE9804C70B41F
:104940009A46934691E8380007C810F0804F08BF98
:1049500013F0804F03D100F005F8FFF76BFFF0BCB8
:10496000BDE8008C20F07F4723F07F4C80EA0300F5
:1049700000F0004007EB0C03A3F57C53A3F1FE030A
:1049800092F0000F00F0B38095F0000F00F07780F8
:104990002DE901494FEA114021EA00484FEA144647
:1049A00024EA064700FB06FC08FB06F607FB08F8AE
:1049B00018EB06484CEB164C00FB07F718EB0748C2
:1049C0004CEB17404FEA124B22EA0B4E4FEA1546CA
:1049D00025EA06470BFB06FC0EFB06F607FB0EFE60
:1049E0001EEB064E4CEB164C0BFB07F71EEB074E6F
:1049F0004CEB174B18EB0B0840F1000018EB0E0BBB
:104A000058EB000840F100008F1A4FF000014FF002
:104A100000063CBFC943661B14BFB5EB040C002164
:104A20003CBFC943F61B4FEA174427EA04454FEA47
:104A30001C472CEA074C04FB076205FB07F70CFB3D
:104A400005F616EB074642EB174204FB0CFC16EB8F
:104A50000C4642EB1C421BEB060658EB020241419E
:104A60004EEA8E0E46EA9E0601D5BDE80189B619CA
:104A7000524141EB0101A3F10103BDE801894FEA75
:104A8000144524EA05464FEA114721EA074C05FB85
:104A900007F406FB07F70CFB06F111EB074144EBAB
:104AA000174405FB0CFC11EB0C4144EB1C444FEA92
:104AB000124722EA074C05FB07F206FB07F70CFB3F
:104AC00006F616EB074642EB174205FB0CFC16EB0D
:104AD0000C4642EB1C456A1854F1000148BF704770
:104AE000B619524141EB0101A3F10103704795F062
:104AF000000F37D04FEA114221EA02464FEA14472D
:104B000024EA074C02FB07F106FB07F70CFB06F44F
:104B100014EB074441EB174102FB0CFC14EB0C4473
:104B200041EB1C414FEA154725EA074C02FB07F50C
:104B300006FB07F70CFB06F616EB074645EB174599
:104B400002FB0CFC16EB0C4645EB1C42121951F112
:104B5000000148BF7047B619524141EB0101A3F172
:104B6000010370474FEA144524EA05464FEA11470E
:104B700021EA074C05FB07F106FB07F70CFB06F2E1
:104B800012EB074241EB174105FB0CFC12EB0C4208
:104B900051EB1C414FF0000648BF7047921841EBA3
:104BA0000101A3F101037047490050EAC12018BF79
:104BB00004204A0D18BF40F0010040F2FF72B2EB32
:104BC000515F08BF40F00200012808BF0520704770
:104BD00030380A2801D201207047002070470000B9
:104BE00010B500290AD00878002807D00548784475
:104BF000FCF7BAFB002801D0002010BD0248784421
:104C000010BD00009A0100009201000010B50029BB
:104C10000AD00878002807D005487844FCF7A4FBA0
:104C2000002801D0002010BD0248784410BD0000CB
:104C30008A01000082010000FBF7A0BFFCF7D4B896
:104C400000000000000000003031323334353637C8
:104C500038394142434445464030580030313233C0
:104C600034353637383961626364656640307800C0
:104C70000400000800000000000000020001000025
:104C80001030313233343536373839616263646518
:104C90006678700030313233343536373839414236
:104CA000434445465850000002400000000000A068
:104CB0000000000005400000000000C800000000E7
:104CC0000C4000000000409C000000001940000063
:104CD0000020BCBE0000000034400000BFC91B8E95
:104CE00000000004B5400000504BCFD06607E2CF73
:104CF000010000006C4100003E8251AADFEEA734A3
:104D000001000000D9420000DCB5A0E23A301F9754
:104D1000FFFFFFFFB4450000FD25A0C8E9A3C14F78
:104D2000FFFFFFFFFF3F00000000008000000000C9
:104D3000FF3F0000000000800000000000000000B5
:104D4000000000000102030406070809000000003B
:104D500001020304010202030405060708090A0B05
:104D60000C0D0E0F10100000B84E000800000020BF
:104D70001000000028010008C84E000810000020A4
:104D800010080000440100081C000000430000005F
:104D9000F8FFFFFF0C0000000E0000000F000000F5
:104DA0002E0000001001000043000000F8FFFFFF8C
:104DB000004040404040404040404141414141402E
:104DC00040404040404040404040404040404040E3
:104DD0004005020202020202020202020202020272
:104DE0000220202020202020202020020202020277
:104DF00002029090909090901010101010101010CF
:104E000010101010101010101010101002020202DA
:104E1000020288888888888808080808080808081E
:104E2000080808080808080808080808020202021A
:104E30004000000000000000000000000000000032
:104E40000000000000000000000000000000000062
:104E50000000000000000000000000000000000052
:104E60000000000000000000000000000000000042
:104E70000000000000000000000000000000000032
:104E80000000000000000000000000000000000022
:104E90000000000000000000000000000000000012
:104EA0000000000000000000000000000000000002
:104EB00000000000000000000100000010000000E1
:084EC0000024F40000000000D2
:04000005080000ED02
:00000001FF
