:020000040800F2
:1000000020100020C9010008FD1A0008811A00080C
:10001000F91A000885020008613800080000000095
:10002000000000000000000000000000051B0008A8
:100030003904000800000000011B0008091B00082B
:10004000E3010008E3010008E3010008E301000800
:10005000E3010008E3010008E3010008E3010008F0
:10006000E3010008E3010008E3010008E3010008E0
:10007000E3010008E3010008E3010008E3010008D0
:10008000E3010008E3010008E3010008E3010008C0
:1000900011370008E3010008E3010008E30100084C
:1000A000E3010008E3010008E3010008E3010008A0
:1000B000E3010008E3010008E3010008E301000890
:1000C000E3010008E3010008E3010008E301000880
:1000D000E3010008E3010008E3010008E301000870
:1000E000E3010008E3010008E301000800F002F862
:1000F00000F05AF80AA090E8000C82448344AAF168
:100100000107DA4501D100F04FF8AFF2090EBAE865
:100110000F0013F0010F18BFFB1A43F0010318473B
:1001200020380000403800000A444FF0000C10F85E
:10013000013B13F0070408BF10F8014B1D1108BF65
:1001400010F8015B641E05D010F8016B641E01F805
:10015000016BF9D113F0080F1EBF10F8014BAD1C55
:100160000C1B09D16D1E58BF01F801CBFAD505E073
:1001700014F8016B01F8016B6D1EF9D59142D6D3CD
:10018000704700000023002400250026103A28BFF5
:1001900078C1FBD8520728BF30C148BF0B607047F9
:1001A0001FB51FBD10B510BD00F031F81146FFF7A7
:1001B000F7FF03F057FB00F04FF803B4FFF7F2FF2F
:1001C00003BC00F057F80000094880470948004781
:1001D000FEE7FEE7FEE7FEE7FEE7FEE7FEE7FEE7F7
:1001E000FEE7FEE704480549054A064B7047000054
:1001F0000D1B0008ED000008200A00202010002040
:10020000200C0020200C0020704770477047754676
:1002100000F02CF8AE4605006946534620F0070072
:10022000854618B020B5FFF7DDFFBDE820404FF050
:1002300000064FF000074FF000084FF0000BAC46EF
:10024000ACE8C009ACE8C009ACE8C009ACE8C0093A
:1002500021F007018D46704710B50446AFF30080CA
:100260002046BDE81040FFF7A8BF000000487047D7
:100270006801002001491820ABBEFEE726000200FD
:1002800070470000FEE70000002070470020704724
:1002900010B540F26440C2F20000D0F8B82240F23B
:1002A00024411378C2F20001D4780B70137992F8CC
:1002B00001C092F802E0CC7054790B7193794C71C3
:1002C000D4798B71137ACC71547A0B72937A4C7205
:1002D000D47A8B72137BCC72547B0B73937B4C73ED
:1002E000D47B8B73137CCC73547C0B74937C4C74D5
:1002F000D47C8B74137DCC74547D0B75937D4C75BD
:10030000D47D8B75137ECC75547E0B76937E4C76A4
:10031000D47E8B76137FCC76547F0B77937F4C778C
:10032000D47F8B7792F82030CC7792F8214081F8F7
:10033000203092F8223081F8214092F8234081F851
:10034000223092F8243081F8234092F8254081F839
:10035000243092F8263081F8254092F8274081F821
:10036000263092F8283081F8274092F8294081F809
:10037000283092F82A3081F8294092F82B4081F8F1
:100380002A3092F82C3081F82B4092F82D4081F8D9
:100390002C3092F82E3081F82D4092F82F4081F8C1
:1003A0002E3092F8303081F82F4092F8314081F8A9
:1003B000303092F8323081F8314092F8334081F891
:1003C000323092F8343081F8334092F8354081F879
:1003D000343092F8363081F8354092F8374081F861
:1003E000363092F8383081F8374092F8394081F849
:1003F000383092F83A3081F8394092F83B4081F831
:100400003A3092F83C3081F83B4092F83D4081F818
:100410003C3092F83E3092F83F2081F801C081F8DC
:100420003F20402281F802E081F83D4081F83E30D3
:1004300001F004FC002010BD70470000EFF31080B5
:1004400072B600BFFEE70000B0B5044600F010F839
:10045000054640F20000C2F200000078611C18BF9F
:10046000044400BF00F004F8401BA042FAD3B0BD22
:1004700040F61820C2F200000068704740F2000009
:1004800040F61821C2F20000C2F2000100780A68AA
:10049000104408607047000080B542F20000C4F2CA
:1004A0000200016841F010010160032000F086F8AD
:1004B0000F2000F005F800F027F8002080BD0000B4
:1004C00070B540F20006C2F2000640F248013278F0
:1004D000C2F200014FF47A730968B3FBF2F20446EA
:1004E000B1FBF2F1084601F0B5FA0F2C4FF001050F
:1004F00008D838B94FF0FF3021460022002500F01F
:1005000031F87460284670BD82B041F21800C4F220
:100510000200016841F001010160016801F0010180
:1005200001910199416841F080514160406800F0BB
:1005300080500090009802B070470000002848BF2B
:100540007047C1B200F01F00012202FA00F04EF223
:100550000012CEF2000242EAD10121F0030108604C
:100560007047000010B54EF60C5CCEF2000CDCF8C3
:100570000030C3F3022E8EF00704042C28BF04249D
:10058000BEF103034FF0FF3E0EFA04F438BF002320
:10059000A14399400EFA03F39A43114300F00F026E
:1005A00000F160430901043A03F564436244002802
:1005B00048BF02F10C03197010BD00004EF60C513B
:1005C000CEF200010A684FF6FF031A4060F30A22D8
:1005D00042F0806040F0FD700860704780B501F027
:1005E000070C0CEB8C0C00EBCC0C01EB810E0CF12E
:1005F000280C00EBCE00090658BF00F5B47C0020A3
:10060000002A19BFCCF808300121ACF806300021CF
:100610008CF80C1080BD00007047000001EB8102D7
:10062000D0F8EC3200EBC200C26B184601F0D8BD26
:1006300001EB8102D0F8EC3200EBC200D0F87C2153
:10064000184601F033BE000010B5044648B2B0F1C0
:10065000FF3F01F0070000EB800104EBC10205DD64
:1006600002F5B471002382F8693104E0012302F13C
:10067000280182F8293094F8A8220870012A04BFC2
:10068000022010BD2068012284F8A82202F02EFB6F
:10069000002084F8A80210BDB0B50446406801F0FF
:1006A0000F02824284BF0120B0BD48B2B0F1FF3FCB
:1006B00001F0070000EB800104EBC10206DD02F54A
:1006C000B471002382F8693105E000BF012302F113
:1006D000280182F8293094F8A8220025012A8D707B
:1006E000087004BF0220B0BD2068012284F8A8224F
:1006F00002F08CFB284684F8A852B0BD70B50646BF
:1007000048B2B0F1FF3F01F0070000EB800107DDC8
:1007100006EBC10404F5B471002584F8695106E0C4
:1007200006EBC10C01240CF128018CF8294008705B
:100730000A61022BCB7004BF0020087196F8A80252
:10074000012804BF022070BD3068012286F8A8226B
:1007500002F0A4F9002086F8A80270BD10B501F0DF
:10076000070C0CEB8C0100EBC10E00680EF5B471A8
:100770000024CEF87C21CEF88031CEF884418EF86A
:1007800069418EF868C102F099FB002010BD00009D
:10079000B0B50446406801F00705854284BF0120DA
:1007A000B0BD48B2B0F1FF3F0ADD01EB810004EBC0
:1007B000C00000F5B471002280F8692109E000BF93
:1007C00005EB850004EBC000012200F1280180F850
:1007D000292094F8A802012201288A700D7004BF14
:1007E0000220B0BD206884F8A82202F04DFB1DB1A4
:1007F000002084F8A802B0BD206804F52C7102F036
:1008000003FB002084F8A802B0BD000080B501F011
:10081000070C0CEB8C0100EBC10101F828CF00683C
:100820004FF0010C01F1140781F824C04FF0000EC5
:1008300087E80C400B6281F801C002F03FFB00200A
:1008400080BD00002DE9F04F81B00446006802F041
:1008500065FF01041ED4410500F11084410400F13C
:100860001F84810400F13684C10400F13D84010538
:1008700000F15484810500F1A384C00540F10C848B
:100880002068B0F8441021F48071A0F8441000F002
:1008900003BC00BF2068B0F94410B1F1FF3F00F382
:1008A000FB8304F52C7140F60F75009123E000BF27
:1008B000B0F8501094F8682101EBC20100EB41013F
:1008C000B1F80C34B4F86E2100996FF39F23C4F88B
:1008D000843102F027FF206801882940803101809F
:1008E000204600F041FD00BF2068B0F94410B1F18E
:1008F000FF3F00F3D183B0F8442012F00F090DD070
:1009000030F929104FEA490AB1F1FF3F1FFA81F887
:1009100032DD5FEA0860E7D562E100BF0188D206F8
:100920006CD4294001F500410180B0F8501094F8D2
:10093000282001EBC20100EB4100B0F80404E16B98
:100940006FF39F2060640844E06320460021FFF7B6
:1009500065FE94F824000028C6D0206C0028C3D17E
:1009600094F82400216840F08000C0B2A1F84C0047
:10097000002084F82400B7E730F81A1029408031AD
:1009800020F81A1009EB890104EBC10B9BF87411D4
:100990000BF5B476002900F083809BF86B110229D7
:1009A00040F09080B0F850203178DBF8803102EBD5
:1009B000C1070BF5C0725FEA484500EB470700F13D
:1009C0009B80B7F80C7400256FF39F27DB1B38BFA3
:1009D0002B46136040F2A8805FEA486240F60F752C
:1009E00000F1B48030F8212048F2C0032A401A43B5
:1009F00020F82120002F40F0AA80CFE00A053FF523
:100A000057AF09B2B1F1FF3F3FF76EAF0188294000
:100A100080310180B0F8501094F8682101EBC201D8
:100A200000EB4101B1F80C346FF39F23C4F884311B
:100A300093B1D4F87C1179B1B4F86E2102F072FE52
:100A4000D4F87C01D4F884110844C4F87C01204611
:100A50000021FFF7EDFD206801880A053FF544AF4E
:100A600001F44051B1F5405F3FF43EAFB0F8501093
:100A700000F20C42535A6FF39F235352D4F878314B
:100A80003F2BC0F0178231F802C05F09DE064FF03D
:100A9000FF3608BF06EB53174CEA872393E200BFEB
:100AA000B0F85010327801EBC20100EB4101B1F80F
:100AB0000C746FF39F27002F70D0DBF87C11BBF80C
:100AC0006E2167E0317848F2C00330F821202A40D7
:100AD0001A4320F8212030F82120B0F85030520479
:100AE00003EBC10100EB410118D4B1F80C746FF3B2
:100AF0009F2767BB52E000BFB7F8047400256FF36F
:100B00009F27DB1B38BF2B46136025D95FEA48625D
:100B100040F60F7531D4CFBB40E000BFB1F804748C
:100B20006FF39F2797BB39E030F8212043F60F730E
:100B30001A404CF28003A3F500535A4020F82120BC
:100B40005FEA486240F60F757FF54CAF37B3DBF8CC
:100B50007C11BBF872211DE030F8212043F60F73A1
:100B60001A404CF28003A3F500535A4020F821208C
:100B70005FEA486240F60F75CDD530F8212048F283
:100B8000C0032A401A4320F821203FB1DBF87C1132
:100B9000BBF870213B4602F0C5FD00E00027DBF802
:100BA0008411DBE95F0239443844CBF88411CBF877
:100BB0007C011AB1DBF87801B84209D931782046B6
:100BC000FFF736FD5FEA08607FF58EAE08E000BFF4
:100BD0002068314602F072F95FEA08607FF584AE62
:100BE000206809EB890130F81A2004EBC10302EAFE
:100BF000050101F5004120F81A1093F82B1003F1BC
:100C0000280B012926D193F8341000294FF0000158
:100C1000196400F049815FEA486100F1918093F81E
:100C20002910012900F02A81002940F03D81B0F807
:100C300050109BF80020084400EB0210B0F80C1490
:100C40006FF39F21A0F80C14B0F80C1441F400418C
:100C50001CE100BF5FEAC8511ED4B0F850209BF8D9
:100C600000101F6C02EBC10200EB4202B2F8042438
:100C700000266FF39F22BF1A38BF37461F6440F229
:100C80001581D96B5F6C1144D963B9185964594601
:100C900002F014F928E600BFB0F850709BF800107D
:100CA0001A4652F8405F40F60F7A5FEA486607EB53
:100CB000C1075FD400F20C4939F817706FF39F2712
:100CC000EE1B4FF0000538BF2E46166040F28E80B6
:100CD0005FEA484208D430F821204CF2800602EA4C
:100CE0000A02324320F821201D4615F84C2F012A14
:100CF00040F0B2811A4652F8488F52E904E652F8A1
:100D000004AC06EB070C0AEB0706F04542F80CCCE6
:100D100042F8046C80F01081B8F1000F00F06C8193
:100D20000027C64617602F7093F82920012A40F04B
:100D30000B81B0F8502009EB011121F802E07FE1AE
:100D400093F82910012900F0A580002940F0AC801B
:100D5000B0F850109BF80020084400EB0210B0F8E7
:100D600004146FF39F21A0F80414B0F8041441F4A4
:100D7000004197E000F2044939F817706FF39F279C
:100D8000EE1B4FF0000538BF2E46166052D95FEAC1
:100D9000484208D530F821204CF2800602EA0A02C7
:100DA000324320F821201A4612F84C6F012E40F0F1
:100DB00053811D4655F848EF55E904A655F8048CB3
:100DC00006EB070C08EB0706D64545F80CCC45F8B2
:100DD000046C80F0D3804FF00008BEF1000F82F861
:100DE000008040F0CE80BE46CDE000BF93F82920C1
:100DF000012A6BD0002A76D1B0F8502000EB011305
:100E00001A44B2F804346FF39F23A2F80434B2F802
:100E1000043443F40043A2F80434B0F8500009EB62
:100E20000112135A6FF39F231352135A43F40043D2
:100E300058E000BF93F82920012A5BD0002A66D130
:100E4000B0F8502009EB01139F5A6FF39F279F5270
:100E50009F5A47F400479F52B0F8502000EB011012
:100E60001044B0F80C246FF39F22A0F80C24B0F8C3
:100E70000C2442F40042A0F80C2448E0B0F85010D2
:100E80009BF80020084400EB02100021A0F80C148D
:100E90000AE000BFB0F850109BF80020084400EBB7
:100EA00002100021A0F804149BF800102046FFF760
:100EB000B5FB19E5002B00F0858003F001078E5A81
:100EC00007EB530346EA832382E000BFB0F85020CB
:100ED00000EB01131A440023A2F80434B0F85000C8
:100EE00009EB011213522046FFF798FB5FEA4840D6
:100EF00014D5B1E0B0F8502009EB011300279F5240
:100F0000B0F8502000EB01101044A0F80C742046FB
:100F1000FFF784FB5FEA484040F19E8020689BF821
:100F200000104CF2800330F8212002EA0A021A4332
:100F300020F8212090E000BFA8EB0E05156093F883
:100F40002920012A3FF4F5AE002A79D1B0F850707B
:100F500009EB0111CA5BBEF13F0F6FF39F22CA5329
:100F600052D35FEACE654FEA5E127D5A4FF0FF36EC
:100F700008BF06EB5E1245EA82225EE0AEEB0A088D
:100F8000D646C5F8008093F82920012A2CD0002AE3
:100F90005CD1B0F8507009EB0111CA5BBEF13F0F94
:100FA0006FF39F22CA533BD35FEACE654FEA5E12CE
:100FB0007D5A4FF0FF3608BF06EB5E1245EA8222EB
:100FC00041E000BF8B5A48F20007CFF6FF773B4362
:100FD0008B52018843F60F7211404CF28002A2F549
:100FE0008052514001807FE4B0F8502009EB01119C
:100FF00021F802E02AE000BF00222A70BE4693F8E2
:101000002920012AA0D194E6BEF1000F14D00EF0E1
:1010100001027D5A02EB5E0245EA82220FE000BF28
:10102000BEF1000F0ED00EF001027D5A02EB5E02FF
:1010300045EA822209E000BF7A5A42F400427A521D
:101040005A8E04E07A5A42F400427A521A8E1FFAFB
:101050008EF3614602F0C0FB20689BF8001040F65A
:101060003F7330F8212040F60F751A4048F2C00354
:10107000103B5A4020F82120FFF736BC2068B0F81A
:10108000441021F48061A0F84410204600F03EF99D
:1010900094F8A80201280DD101B0BDE8F08F00BF7F
:1010A0002068B0F8441021F48041A0F8441001B049
:1010B000BDE8F08F0120002584F8A80284F82450B0
:1010C0002068002102F080FB84F8A85201B0BDE83E
:1010D000F08F00BF2068B0F8441021F40051A0F850
:1010E000441001B0BDE8F08F2068B0F8401021F046
:1010F0000401A0F84010B0F8401021F00801A0F859
:101100004010204600F014F92068B0F8441021F493
:101110008051A0F8441001B0BDE8F08F2168B1F80B
:1011200000C0B1F804E0B1F808808F890E8A8D8A7A
:10113000088B8A8BB1F8403043F00103A1F84030AE
:10114000B1F8403023F00103A1F84030B1F8443049
:101150005B050CD4B1F844305B055CBFB1F844309A
:101160005FEA435303D4B1F844305B05EED5B1F8E0
:10117000443023F48063A1F84430A1F800C0A1F802
:1011800004E0A1F808808F810E828D8208838A8313
:10119000B1F8400040F00800A1F84000B1F8440068
:1011A00020F40060A1F84400B1F8400040F00402CF
:1011B0002046A1F8402001B0BDE8F04F00F0F6B89D
:1011C0002168B1F8440020F400722046A1F84420C0
:1011D00001B0BDE8F04F00F0AFB80000F0B585B049
:1011E00000285ED0044690F8A90228B9002084F8AF
:1011F000A802204600F066F8032084F8A9022068BF
:1012000001F0F8FD94E82F50D4E907678DE82050ED
:10121000CDE9036701F068FD00283FD12068002177
:10122000002502F0CFFA616841B3012000230022BB
:1012300003EB830304EBC30787F828200132D3B202
:10124000994287F8290087F82B50C7E90E553D646D
:10125000EED800200023002203EB830304EBC30736
:1012600087F868210132D3B2994287F8690187F87B
:101270006B01C7E95E00C7F88001EDD804F10807EB
:10128000D4E9056520688CCFD4E907CECDE9007696
:1012900002AE86E8205001F09FFD38B1022084F8AC
:1012A000A9020125284605B0F0BD00BF0025012098
:1012B00084F8245084F8A902206801F08BFD2846A8
:1012C00005B0F0BD80B582B0006845F60041C4F2BB
:1012D000000188421CBF02B080BD41F21C00C4F274
:1012E00002000168002241F4000101600068002151
:1012F00000F40000019001981420FFF733F9142046
:1013000002B0BDE88040FFF719B9000010B50446EF
:101310008068022818BFFFF791F8D4F8EC02012189
:1013200001F0BEF8D4F8EC02BDE8104001F076B848
:10133000D0F8EC0201F09CB8D0F8EC0201F0A2B8B1
:1013400010B5044690F8A802012804BF022010BD81
:10135000012084F8A80284F82410206802F034FAEE
:10136000002084F8A80210BDD0F8EC2200F52C7102
:10137000104601F0ABB8000010B5044690F8A80282
:10138000012804BF022010BD2068012184F8A812A2
:1013900002F0B4F920460121FFF73EF9206801F080
:1013A00017FD002084F8A80210BD000010B5044607
:1013B000D0F8EC0201F0E0F8A069002808BF10BDE9
:1013C0004EF61050CEF20000016841F006010160B7
:1013D00010BD00002DE9F04182B00446007841F2D2
:1013E0001C06C007C4F202064AD0306810F08058CC
:1013F00008D1306840F080503060306800F0805094
:101400000190019847F20007C4F200073868C00550
:1014100012D4386840F480703860FFF729F8054628
:101420003868C00508D4FFF723F8401B6428F7D9B3
:10143000032002B0BDE8F081706810F4407012D053
:10144000616801F4407188420DD0706840F24042FA
:10145000C4F24222012320F4407113600023C0072C
:10146000136071602AD17068616820F4407008438D
:10147000B8F1000F706003D1306820F08050306008
:101480002068810707D556F8181CA26821F440414E
:10149000114346F8181CC00604D4002002B0BDE871
:1014A000F08100BF56F8180CE16820F48000084372
:1014B00046F8180C002002B0BDE8F081FEF7D8FF16
:1014C000054641F2883700BF70688007CBD4FEF72D
:1014D000CFFF401BB8424FF00300F5D9EBE7000007
:1014E0002DE9F04381B0002800F0858042F2000829
:1014F000C4F202080446D8F800000D4600F00700C8
:1015000088420CD2D8F8000020F007002843C8F821
:101510000000D8F8000000F00700A8426BD1206856
:1015200041F204098107C4F2020917D5410705D524
:10153000D9F8001041F4E061C9F80010010705D5A1
:10154000D9F8001041F46051C9F80010D9F8001022
:10155000A26821F0F0011143C9F80010C00741D181
:10156000D8F8000000F00700A8420CD9D8F8000015
:1015700020F007002843C8F80000D8F8000000F069
:101580000700A84237D12068410707D5D9F80010D5
:10159000E26821F4E0611143C9F80010000708D5A2
:1015A000D9F80000216920F4605040EAC100C9F870
:1015B0000000D9F8002002F00C00082841F20020B9
:1015C000C0F27A0050D143F63013C2F38341C0F623
:1015D0000003595CD2033BD440F60010C0F23D003A
:1015E000484341E0606802280AD001282AD159F80E
:1015F000041C890308D4012001B0BDE8F08300BFBA
:1016000059F8041C8901F6D5D9F8001021F003011E
:101610000843C9F80000FEF72BFF064641F2883761
:10162000D9F80000616800F00C00B0EB810F97D092
:10163000FEF71EFF801BB842F2D9032001B0BDE8BF
:10164000F08300BF59F8041C8907D4D5DCE700BF3C
:10165000D9F8002043F62E13C2F34042C0F600032F
:101660009A5C4843B0FBF2F0D9F8001043F61E1222
:10167000C1F30311C0F60002515C40F2480220FAA7
:1016800001F140F20400C2F200000068C2F2000260
:101690001160FEF715FF002001B0BDE8F0830000E7
:1016A0002DE9F04182B0002868D00446007841F26C
:1016B0000006C007C4F2020625D0706800F00C00D6
:1016C00004281BD0706800F00C00082802D1706854
:1016D000C00313D46068002800F06881B0F5A02F23
:1016E00000F07C81B0F5803F00F07C81306820F410
:1016F00080303060306820F4802076E130688003EC
:1017000001D56068D0B32078800718D5706810F0D4
:101710000C0F07D0706800F00C0008286ED17068BC
:10172000C0036BD43068800702D52069012825D119
:101730003068616920F0F80040EAC100306020782C
:1017400000071FD42078400732D4E56995B170684E
:1017500000F00C00082840F08F80012D0ED070683A
:10176000216A00F480328A4208D1616A00F4701064
:10177000884203D1002002B0BDE8F081012002B010
:10178000BDE8F081A069002862D00020C4F24220A8
:101790000121C0F88014FEF76BFE0546706A8007D1
:1017A00000F18C80FEF764FE401B0228F6D92AE186
:1017B000F06910F0805808D1F06940F08050F06175
:1017C000F06900F080500090009847F20007C4F2E2
:1017D00000073868C00529D4386840F48070386044
:1017E000FEF746FE054600BF3868C0051ED4FEF76A
:1017F0003FFE401B6428F7D905E100BF206900289F
:1018000040F20000C4F2422000F082800121016019
:10181000FEF72EFE054600BF306880073FF588AF13
:10182000FEF726FE401B0228F6D9ECE0E06800280F
:1018300000F08080052800F09780012800F0988053
:10184000306A20F001003062306A20F0040092E03B
:101850000020C4F242200021C0F88014FEF708FEE8
:10186000054600BF706A80077FF56CAFFEF700FE8B
:10187000401B0228F6D9C6E00027C4F24227002008
:101880003866FEF7F5FD022D05460BD13068800164
:1018900040F1BE80FEF7ECFD401B02284FF0030034
:1018A000F4D968E7306880017FF564AFFEF7E0FDAA
:1018B000401B02284FF00300F4D95CE740F24800D7
:1018C000C2F20000006844F6D351C1F26201A0FBED
:1018D0000101480A019000BF00BF0198411E002885
:1018E00001913FF42FAF00BF0198411E00280191E4
:1018F0003FF428AF00BF0198411E002801913FF43A
:1019000021AF00BF0198411E00280191E4D119E7E1
:1019100000210160FEF7ACFD054600BF306880077E
:101920007FF50DAFFEF7A4FD401B02284FF003002A
:10193000F4D920E7306A20F001003062306A20F0EC
:1019400004003062FEF794FD054641F2883700BF7F
:10195000306A800720D5FEF78BFD401BB8424FF060
:101960000300F5D907E700BF306A40F00400306299
:10197000306A40F001003062FEF77AFD054641F220
:10198000883700BF306A800706D4FEF771FD401B20
:10199000B842F7D937E000BFB8F1000F7FF4D5AEF9
:1019A000F06920F08050F061CFE600BF306820F48D
:1019B00080303060306820F480203060FEF758FDC1
:1019C000054600BF306880037FF59DAEFEF750FDF1
:1019D000401B64284FF00300F4D9CCE6306840F493
:1019E00080203060306840F480303060FEF740FD89
:1019F000054600BF306880033FF585AEFEF738FD31
:101A0000401B6428F6D9032002B0BDE8F08100BF76
:101A1000206AB0F5803F05D17168A26821F40031D9
:101A2000114371607168626A21F4741111430843B3
:101A3000706001203866FEF71BFD044630688001A7
:101A40003FF598AEFEF714FD001B02284FF003008F
:101A5000F4D990E6411E0020B0EB116F1CBF0120AD
:101A600070474EF21002CEF2000251604EF6235142
:101A7000CEF20001F0230B700721906011607047D7
:101A8000FEE7000080B540F2644040F22C01C2F253
:101A90000000C2F20001002200F066FB002818BF1F
:101AA000FEF7CCFC40F2644040F24C01C2F2000070
:101AB000C2F2000100F088FD002818BFFEF7BEFC4E
:101AC00040F2644040F22011C2F20000C2F2000174
:101AD00000F0ACF8002818BFFEF7B0FC40F26440FC
:101AE000C2F2000000F086FD002808BF80BDBDE8FE
:101AF0008040FEF7A3BC0000FEE70000FEE7000008
:101B00007047000070470000FEF7B8BC7047000047
:101B1000D0F8B8120022002081F850207047000051
:101B2000B0B50446D0F8BC02D4F8B852C2682878E0
:101B300069789047204601212A46402300F05CFC4A
:101B40000020B0BDB0B58121044600F037FB002570
:101B500020460121E56200F031FBD4F8B802C4F858
:101B60006C5148B1D4F8BC0280688047D4F8B80200
:101B700000F08CFFC4F8B8520020B0BD10B5D0F80A
:101B8000B842E16C012907D1D0F8BC026178C26883
:101B9000207890470020E064002010BD014640F20C
:101BA000E8000A22C2F200000A807047014640F2B3
:101BB00084002922C2F200000A807047014640F2E8
:101BC000B0002922C2F200000A807047014640F2AC
:101BD000F4002922C2F200000A80704770B581210A
:101BE00003224023044600F0F3FB01252046012197
:101BF00003224023E56200F0EBFB5420C4F86C5153
:101C000000F046FFC4F8B80268B10646D4F8BC023A
:101C10000025406886F85050804720460121324612
:101C2000402300F0E9FB284670BD000000290EBFEC
:101C30000220C0F8BC1200207047000080B590F868
:101C40009C32032B1CBF002080BDD0F8B8329446D4
:101C50000A4693F8501000294FF0010102D00846BF
:101C600080BD00BF83F850108121634600F08EFCD8
:101C70000021084680BD000080B582B00A78D0F807
:101C8000B8C2002312F06002ADF8063010D0202A4E
:101C90004AD14A78023A092A46D8DFE802F0054BD1
:101CA0004545454545535D630CF1440144E000BFA3
:101CB0004A780B2A38D8DFE802F00737373737374A
:101CC00013373737252D00BF90F89C22032A2BD1DC
:101CD0000DF10601022200F09FF8002002B080BD45
:101CE000CA78212A44D0222A50D1CA88D0F8BC12FE
:101CF000222A096828BF222200F08EF8002002B0B4
:101D000080BD00BF90F89C22032A0DD10CF1480140
:101D100012E000BF90F89C22032A05D18878CCF805
:101D20004800002002B080BD00F050F8022002B050
:101D300080BD00BF0CF14001012200F06DF80020D1
:101D400002B080BDCA8801236146CCF84C3000F057
:101D500049F8002002B080BDC878CCF844000020CB
:101D600002B080BD8878CCF84000002002B080BD71
:101D7000CA8840F2DC01C2F20001092A28BF092208
:101D800000F04AF8002002B080BD00BF0022002110
:101D900000F042F8002002B080BD000080B5D0F80D
:101DA000B42252689047002080BD000080B51346E1
:101DB0000A46002100F020FB002080BD80B51346BC
:101DC0000A46002100F0E2FB002080BD10B5802112
:101DD000044600F0ADFB20460021BDE8104000F0B5
:101DE000A7BB000080B513460A460321C0F8941231
:101DF0000021C0E9573300F0FFFA002080BD000049
:101E000080B50521C0F8941200210022002300F0C3
:101E1000F3FA002080BD000080B513460A46022177
:101E2000C0F894120021C0E9073300F0AFFB002096
:101E300080BD000080B50421C0F89412002100226A
:101E4000002300F0A3FB002080BD000010B540F28D
:101E5000CC14C2F200040A4602A0214600F016F992
:101E6000204610BD437573746F6D2048494420436C
:101E70006F6E66696700000040F230101222C2F2F5
:101E800000000A807047000010B540F2CC14C2F286
:101E900000040A4602A0214600F0F8F8204610BDD2
:101EA000437573746F6D2048494420496E746572A0
:101EB000666163650000000040F244100422C2F233
:101EC00000000A807047000010B540F2CC14C2F246
:101ED00000040A4602A0214600F0D8F8204610BDB2
:101EE000546573740000000010B540F2CC14C2F2C7
:101EF00000040A4602A0214600F0C8F8204610BDA2
:101F000053544D333220437573746F6D2048756D93
:101F1000616E20696E746572666163650000000021
:101F2000B0B54FF2E870C1F6FF70026883684FF0F9
:101F30001A0C9B18A1F800C000F0A3804FF0370CDA
:101F40001A0F0CEB13714068B3F1204F38BF02F148
:101F5000300140F24812C2F20002917019014FF0B4
:101F6000000E0CEB117582F803E0C3F30364B1F1CA
:101F7000204F38BF04F13005190215710CEB1175B3
:101F800082F805E0C3F30354B1F1204F38BF04F1E8
:101F90003005190395710CEB117582F807E0C3F356
:101FA0000344B1F1204F38BF04F130051904157214
:101FB0000CEB117582F809E0C3F30334B1F1204F43
:101FC00038BF04F13005190595720CEB117582F8D4
:101FD0000BE0C3F30324B1F1204F38BF04F1300507
:101FE00019061573C3F303140CEB1175B1F1204FEF
:101FF0004FEA037103F00F0382F80DE038BF04F1DC
:10200000300503F13704957382F80FE0B1F1204FEA
:1020100038BF03F13004010F0CEB1073147482F815
:1020200011E0B0F1204F38BF01F1300301010CEB9A
:102030001174937482F813E0C0F30363B1F1204F7D
:1020400038BF03F1300401021475C0F303530CEBE5
:102050001174B1F1204F4FEA003182F815E038BF1A
:1020600003F130040CEB1173947582F817E0C0F3A0
:102070000340B1F1204F38BF00F13003137682F8EE
:1020800019E040F24810C2F20000B0BD10B50028BF
:1020900068D00378B3B100F1020E4FF0000C00BF1E
:1020A0001EF8013C93B19EF800309BB19EF80130C0
:1020B000A3B19EF802300CF1040C002B0EF1040EBB
:1020C000EED10DE04FF0000C0AE000BF4CF0010C27
:1020D00006E000BF4CF0020C02E000BF4CF0030C25
:1020E0005FFA8CFC022303EB4C03138003220B707A
:1020F0004A7090F800E0BEF1000F33D002300222A7
:102100004FF0000C1AE000BF141DE4B244F0010EC1
:102110000B5501F80EC04378002B08BF10BD941D6D
:10212000E4B244F0010E0B5501F80EC090F802E045
:102130000832BEF1000F00F1040013D0D3B243F017
:10214000010401F803E001F804C010F8013C4BB1B0
:10215000941CE4B244F0010E0B5501F80EC0037854
:10216000002BD1D110BD0000002804BF0220704711
:1021700080B5D0F8B432002B1CBF0023C0F8B432B5
:10218000002918BFC0F8B012012180F89C1202701B
:1021900000F0D2F8002080BD80B5D0F8C002FEF774
:1021A0007BFA40F200220223C100C0F2012204287F
:1021B00038BF22FA01F3D8B280BD000080B5D0F854
:1021C000C002FEF741FA40F200220223C100C0F231
:1021D0000122042838BF22FA01F3D8B280BD0000E2
:1021E000B0B5044671B1D4F8B402426942B194F872
:1021F0009C02032804D120469047002054E000BFF1
:102200000220B0BDD4F89402002818BF042805D1DC
:102210002046802100F08CF93DE000BF02283AD131
:10222000D4E90810814209D9081A83B220622046F5
:1022300011461A46FFF7C2FD14E000BFE169814272
:1022400018D3B1FBF0F202FB101098B9D4F8980241
:1022500081420FD22046002100220025FFF7AEFD6B
:10226000C4F89852204600210022002300F0C4F850
:1022700011E000BFD4F8B402C16829B194F89C02FF
:10228000032801D1204688472046802100F050F9DC
:102290002046FFF7B5FD94F8A00201284FF000009A
:1022A00004BF84F8A002B0BDB0BD0000B0B50446C4
:1022B00071B1D4F8B402826942B194F89C02032847
:1022C00004D12046904700251CE000BF0220B0BD8D
:1022D000D4F894020025052816D0032812D1D4E999
:1022E0005810814218D9091AC4F86011814238BFC8
:1022F000084683B2204611461A46FFF757FD0020D4
:10230000B0BD00BF2846B0BD20460021C4F894529D
:1023100000F00EF92846B0BDD4F8B402016929B125
:1023200094F89C02032801D1204688472046FFF7F5
:1023300081FD0020B0BD000010B5044640F22870B9
:1023400045F60041C2F20000C4F200010822022357
:1023500080E80E000021C0F8EC42C4F8C002C0E9D9
:1023600006110162FEF73AFF002818BFFEF766F873
:10237000D4F8C002002100221823FEF72FF9D4F868
:10238000C002802100225823FEF728F9D4F8C002A9
:10239000812100229823FEF721F9D4F8C0020121FF
:1023A0000022D823FEF71AF9002010BD4AB2D0F857
:1023B000C00201F07F0101EB810100EBC10000F5DB
:1023C000B571002A48BF00F12A0108787047000063
:1023D00080B59446D0F8C0021A466346FEF78EF9DF
:1023E00040F200220223C100C0F20122042838BFBB
:1023F00022FA01F3D8B280BD80B5D0F8C002FEF752
:10240000ADF940F200220223C100C0F201220428EB
:1024100038BF22FA01F3D8B280BD0000F0B581B018
:10242000002100224023044600254026FFF7D0FF6C
:1024300001272046802100224023C4F85871C4F8A7
:102440006461FFF7C5FFD4F8B802A761666284F83B
:102450009C72C4F894526560C4F8A45228B1D4F8B0
:10246000B4020021426820469047002001B0F0BD30
:1024700090F89C12042904BF90F89D1280F89C12D9
:102480000020704780B590F89C12032905D1D0F840
:10249000B412C969002918BF8847002080BD000018
:1024A000024600201174704780B5D0F8C002FEF7D4
:1024B00047FF40F200220223C100C0F2012204289B
:1024C00038BF22FA01F3D8B280BD0000B0B500F5E4
:1024D0002A750446284600F06BF894F8A8020121FA
:1024E000B4F8AE22C4F8941200F01F010229C4F817
:1024F000982209D001290DD091B92046294600F033
:102500007FF80020B0BD00BF2046294600F0DEF96C
:102510000020B0BD2046294600F07CFA0020B0BD66
:1025200000F08001204600F003F80020B0BD00005C
:1025300080B5D0F8C002FEF72BF940F2002202234A
:10254000C100C0F20122042838BF22FA01F3D8B238
:1025500080BD000080B5D0F8C002FEF70DFF40F24C
:1025600000220223C100C0F20122042838BF22FA4F
:1025700001F3D8B280BD0000014690F89C0204220D
:1025800081F89D02002081F89C22704780B5D0F828
:10259000C002FEF73BF940F200220223C100C0F264
:1025A0000122042838BF22FA01F3D8B280BD00000E
:1025B0000A7802704A7842704A8842808A8882800B
:1025C000C988C1807047000000290EBF0220C0F8F2
:1025D000B41200207047000080B5D0F8B4223AB1A0
:1025E00012689047002818BF0120400080BD00BF3E
:1025F000022080BD80B5FFF7ADFF002080BD000048
:10260000B0B582B00D460978044611F060010DD0D6
:10261000402902D0202940F04D81D4F8B402294647
:10262000826820469047002002B0B0BD6878092833
:1026300000F24081DFE810F00A0024003E01300083
:102640003E0166008A003E013800460094F89C0274
:102650000138022800F22E81E888022840F02A8101
:10266000D4F8A4020322002808BF0122214641F821
:102670000C2F20460222FFF7CFFB002002B0B0BD96
:1026800094F89C020138022800F21481688801281D
:10269000C9D1002004E000BF68880128C3D101200F
:1026A000C4F8A40200E100BFE888012840F00281DC
:1026B00094F89C02411E02295ED20020214641F876
:1026C000080F5DE0688840F2C815C1B2C2F200058B
:1026D0000229287080F0EE8094F89C02032857D0DD
:1026E000022840F07780002900F0DE80032084F883
:1026F0009C0220466160FFF76FFF022840F0D48003
:10270000D8E000BFA888002840F0D480E8880028DE
:1027100040F0D08068887F2800F2CC8094F89C122A
:10272000032900F0C780C5B284F89E0220462946DE
:10273000FFF7BAFE2046FFF77DFB002D0CBF0120FE
:10274000022084F89C02002002B0B0BD68884FF0DF
:10275000FF3101EB102100220629ADF8062000F21E
:10276000A980DFE801F0054729A7A7555F0000BF52
:10277000D4F8B002026881E0032840F09B80211D5C
:1027800020460122FFF748FB002002B0B0BD00BF89
:10279000002955D06068012800F08680C1B220462B
:1027A000FFF7FCFA297820466160FFF715FF022841
:1027B00040F07A807EE000BFC0B2052800F27A8047
:1027C000DFE800F004484C50545800BFD4F8B00281
:1027D000426852E020468021FFF7AAFE20460021F1
:1027E000FFF7A6FE29782046FFF7D8FA002002B0AE
:1027F000B0BD00BF217CD4F8B40200290CBF816AAF
:10280000C16A0DF1060088470146022015E000BFAD
:10281000207C00284ED1D4F8B402416B0DF10600A3
:1028200088472FE0207C002844D1D4F8B402016B03
:102830000DF10600884701460720487023E000BFDD
:10284000022084F89C02002060602046FFF7A6FA70
:102850002AE000BFD4F8B00282680EE0D4F8B002DB
:10286000C2680AE0D4F8B002026906E0D4F8B00207
:10287000426902E0D4F8B0028269DAB1207C0DF13D
:10288000060190470146BDF8060048B1EA883AB112
:10289000904238BF02462046ADF80620FFF7BCFA4A
:1028A000E88800287FF4BFAE2046FFF7C3FA002077
:1028B00002B0B0BD20468021FFF73AFE204600213D
:1028C000FFF736FE002002B0B0BD0000B0B50A46EA
:1028D0000978044611F060010CD0402901D020296C
:1028E00020D1D4F8B40211468368204698470020CE
:1028F000B0BD00BF50781179F0B1012834D0032861
:1029000066D194F89C02032832D15088002871D1F6
:1029100011F07F006ED0D08800286BD12046FFF7E1
:1029200007FE67E020468021FFF702FE20460021D7
:10293000FFF7FEFD0020B0BD94F89C02032825D0CF
:10294000022808BF5FEA416042D111F0800004F123
:1029500014014FF0140004BF4FF4AA7004F5AA71DB
:102960000022225020464FE094F89C02032839D0E0
:1029700002282DD148062BD02046FFF7D9FD20464E
:102980008021FFF7D5FD0020B0BD00BF01F00F0092
:1029900000EB8000802904EB80002CBF8069D0F818
:1029A0005801A8B101F07F0000EB800004EB80002B
:1029B00000F11405802938BF00F5AA7548061FD01C
:1029C0002046FFF7F3FC002818BF012019E000BFE4
:1029D00020468021FFF7ACFD20460021FFF7A8FD2F
:1029E0000020B0BD50880028A4D1480602D020465F
:1029F000FFF7D2FB2046FFF71DFA0020B0BD00BF55
:102A000000202860204629460222FFF705FA002010
:102A1000B0BD0000B0B50D460978044611F0600164
:102A200018BF402912D194F89C020138022803D81B
:102A3000A88810F0FE0F15D020468021FFF778FD02
:102A400020460021FFF774FD0020B0BD2029EAD008
:102A500020468021FFF76CFD20460021FFF768FD2E
:102A60000BE000BFD4F8B4022946826820469047A4
:102A7000E988002908BF002802D00020B0BD00BFAF
:102A80002046FFF7D7F90020B0BD000070470000D6
:102A900040F2CC30C2F20000704700002DE9F04156
:102AA0000D78024691F803E000EB850330F825002D
:102AB00047F27067BEF1030F20EA070408D8002030
:102AC000DFE80EF002080F0C44F4007408E000BFC9
:102AD000012006E044F4806402E000BF44F4C064D6
:102AE000002048F28007CFF6FF7744EA07061E80F1
:102AF0001E8840F60F7426402E4337431F800F7BFD
:102B000048F2800C002F49D01C8840F60F663440F4
:102B100048F28006BEF1020F08BF06F58076344306
:102B20001C80B2F850400E8902EB05152C4426F0AB
:102B30000106A4F80064B2F850204C892A4424F01D
:102B40000104A2F8084449781A88002902F4804157
:102B50004AD039B1198840F60F7211400CF5804205
:102B6000114319801988490607D5198840F60F7254
:102B700011400CF1400211431980198840F63F7250
:102B800011400CF120024A40BEF1010F08BF41EA9A
:102B90000C021A80198843F60F7244E04E78B2F89E
:102BA0005080CC882F01002E24F0010642D0D1198C
:102BB0004144A1F800641988490607D5198840F6F0
:102BC0000F7211400CF1400211431980198840F630
:102BD0003F72BEF1010F01EA020125D00CF1200283
:102BE00051401980BDE8F08139B1198840F60F7263
:102BF00011400CF58042114319801988490607D508
:102C0000198840F60F7211400CF1400211431980EF
:102C1000198843F60F7211400CF54052514019804B
:102C2000198840F63F72114041EA0C011980BDE855
:102C3000F08100BFD41904EB0807A7F80864B2F8C4
:102C400050E004F20C4434F80E606FF39F2624F831
:102C50000E6009693F290DD3CF063EF804704FEA94
:102C600051164FF0FF3808BF08EB511647EA86218E
:102C700012E000BF71B101F001063EF8047006EBEE
:102C8000510147EA81212EF80410198849040DD416
:102C900014E000BF3EF8041048F20006CFF6FF76BD
:102CA00031432EF804101988490407D5198840F6D5
:102CB0000F7739400CF580473943198055B1198891
:102CC00043F60F7211400CF5005251401980BDE8D7
:102CD000F08100BF118843F60F7211400CF540528D
:102CE00051401980BDE8F08100207047B0B50C78E4
:102CF0004B78097B024630F824004CF2800C4CF2F1
:102D0000800500294FEA44013AD0002B00F48040AE
:102D100040D040B132F8110040F60F73184040EA3D
:102D20000C0022F8110032F8110043F60F7E400625
:102D300040F63F7009D532F8113040F60F74234049
:102D4000ACF57F54234322F8113032F8113040F6AD
:102D50000F7423402B43ACF5804522F8113032F834
:102D600011301840284322F8110032F81100ACF558
:102D7000804300EA0E000343002022F81130B0BD6A
:102D8000F3B1400640F63F7EEFD5ACF57F5540F6F7
:102D90000F70E4E740B132F8110040F60F731840AD
:102DA00040EA0C0022F8110032F81100ACF57F5512
:102DB000400640F63F7E43F60F70BCD4C5E700BF27
:102DC000400443F60F7ED0D540F60F70C7E70000F1
:102DD000002070470020704701460120A1F8400004
:102DE00000220020A1F84020A1F84420A1F85020A2
:102DF000704700000146B0F8400044F2FF02024074
:102E00000020A1F8402070470020704780B50A7B61
:102E100012B1002080BD00BF0A784B7830F822C084
:102E20004FEA4202B3B15FEA4C6348F2A00E0BD501
:102E300030F812C040F60F730CEA030C0EF12003B9
:102E400043EA0C0320F81230C9780129E1D040F69A
:102E50003F7110E05FEA4C414BF2800E09D530F82B
:102E6000121040F60F7319400EF58053194320F8E5
:102E7000121043F60F7130F81230194081EA0E013A
:102E800020F81210002080BD02460B78487832F8F6
:102E900023C040F63F71002848F2900008BF43F677
:102EA0000F71CFF6FF7008BF00F57F6001EA0C01DB
:102EB0004140002022F82310704700002DE9F04F18
:102EC00082B04B78012B5FD18B690A690F7B9342EB
:102ED00028BF1346002F00F07F80CF780C6A022FA6
:102EE00040F0C2800D7840F60F6630F825704FEA4A
:102EF000450E944206EA070648F2B00C40F21281F1
:102F000048F2B007CFF6FF77D0373E43A4EB030A71
:102F100020F81E60C1F820A030F81E70B0F8506094
:102F20002D017F0600EB050800F1528108EB060435
:102F3000A4F80434D1F814B09DB2002D00F014832D
:102F40000E8900EB460606F580696E1C4FF0FF35D2
:102F500005EB5604C6F34105002D4FEA560700F075
:102F6000DF815E46CDE9004836F8028B5C46CB46F1
:102F7000012D2BF8048B40F0D781D946DDF8048071
:102F8000A346009C013FDEE20A7B002A48D0CA78B3
:102F9000012A00F09F80022A40F0C080002B40F000
:102FA000AA82B0F850300A780344120103F20447B1
:102FB000BB5A6FF39F23BB520B693F2BC0F04E816E
:102FC000DC064FEA5316D45B4FF0FF3508BF05EB24
:102FD000531644EA8626C8E11A0400F07381CA88B1
:102FE000D1F814E000EB420202F580689AB2013297
:102FF0004FF0FF37C2F3410407EB520C002C4FEAAD
:10300000520200F04C81774637F8025B4646012CAD
:1030100026F8045B40F00A81013ABE46B0463EE124
:103020008E690A69B31A38BF00238B61B0F85070FB
:103030000B7807444FEA031307F20C47FD5A38BFD9
:1030400032466FF39F253F2AFD52C0F0CA81D40655
:10305000DC5B4FEA52164FF0FF3508BF05EB521606
:1030600044EA8622C7E100BFE21A0F780A6230F80C
:103070002720B0F850403D01520605444FEA470E64
:103080009AB248F2B00C2C4400F17E80002AA4F8D9
:10309000043400F0D7800B890132496900EB430307
:1030A0004FF0FF34C2F3410503F5806304EB52088F
:1030B000002D4FEA520200F0BC810E4636F8024B5A
:1030C0001F46012D27F8044B40F00C81013A314690
:1030D0003B46AEE10A698F69BE1A3CBF00263A46FC
:1030E000002B8E6140F08A81B0F850700B78074455
:1030F0001B0107F20447FE5A3F2A6FF39F26FE5238
:10310000C0F0B880D4064FEA5216DC5B4FF0FF35B2
:1031100008BF05EB521644EA862650E1012002B0B2
:10312000BDE8F08F48F2B002CFF6FF72303A32437A
:1031300020F81E20B0F8502000EB05131A44230499
:10314000A2F8044400F082800A89496900EB420237
:1031500002F58063A2B201324FF0FF34C2F34105A1
:1031600004EB5208002D4FEA520200F082810E4615
:1031700036F8024B1F46012D27F8044B40F0BC8067
:10318000013A31463B4674E1002AA4F80C3461D080
:103190004B890132496900EB43034FF0FF34C2F31E
:1031A000410503F5806304EB5208002D4FEA5202FB
:1031B00000F07F810E4636F8024B1F46012D27F89E
:1031C000044B40F0A380013A31463B4671E100BF19
:1031D00008EB0605A5F80C34D1F814B09DB2002D0B
:1031E00000F016824E8900EB460606F580696E1CDB
:1031F0004FF0FF3505EB5604C6F34105002D4FEAAD
:10320000560700F08F805E46CDE9004836F8028B05
:103210005C46CB46012D2BF8048B40F09580D946B7
:10322000DDF80480A346009C013FE0E1BEF80250B7
:10323000022CA8F8045029D108F108080EF1040E58
:10324000023A2CE040F63F71E3E000BF40F63F71E8
:10325000DFE000BF40F63F71DBE000BF002B00F075
:10326000838003F00106D55B06EB530645EA86260C
:1032700080E000BF002A00F0A18002F00106DD5BC3
:1032800006EB520645EA86269EE000BFBEF80440E3
:103290000EF1060EA8F8084008F10C08033ABCF13C
:1032A000030F0FD3AEF10807A8F1100637F8085F37
:1032B000043A26F8105F7D88B580BD883581FD8889
:1032C000B581F3D1B0F850200978024402EB011225
:1032D00048F2B00CA2F804344FEA410E40F63F71B8
:1032E00097E000BF4C88022D9C8040F09D80083301
:1032F0000431023A9DE000BF4C88022D9C8040F0D2
:10330000B38008330431023AB3E000BF4C88022D89
:103310009C8040F0C98008330431023AC9E000BF04
:103320005E4610E15E4662E16688A346A9F8046045
:10333000DDF80480009C022D40F0FC8009F10809B2
:103340000BF10406023FFEE06688A346A9F804607C
:10335000DDF80480009C022D40F0408109F108094D
:103360000BF10406023F42E1D65B48F20005CFF6BE
:10337000FF752E43D653B0F850703F2B074407F229
:103380000C47BE5A6FF39F26BE520BD3DC06D45BAC
:103390004FEA53164FF0FF3508BF05EB531644EACA
:1033A0008623A2E0002B00F09F8003F00106D55B8E
:1033B00006EB530345EA83239CE000BFDE5B48F243
:1033C0000005CFF6FF752E43DE53B0F850703F2A4C
:1033D000074407F20C47FE5A6FF39F26FE52BFF4D4
:1033E00036AE3AB102F00106DD5B06EB520245EA69
:1033F000822202E0DA5B42F40042DA5309784FEAB3
:10340000410E42F6D071A1F5E041A1F5756C43F68D
:103410000F7130F81E20114081EA0C0120F81E10B7
:10342000002002B0BDE8F08F8C8806311C810C337F
:10343000033AB8F1030F03D240F63F71E9E700BF4A
:10344000A1F10804103B00BF34F8081F043A23F828
:10345000101F61889980A1881981E188998140F6BF
:103460003F71F1D1D5E700BF8C8806311C810C3348
:10347000033AB8F1030F03D240F63F71C9E700BF2A
:10348000A1F10804103B00BF34F8081F043A23F8E8
:10349000101F61889980A1881981E188998140F67F
:1034A0003F71F1D1B5E700BF8C8806311C810C3328
:1034B000033AB8F1030F03D240F63F71A9E700BF0A
:1034C000A1F10804103B00BF34F8081F043A23F8A8
:1034D000101F61889980A1881981E188998140F63F
:1034E0003F71F1D195E700BFD35B48F20006CFF6FC
:1034F000FF763343D353CA69002A3FF47FAF0A787B
:1035000044F2400730F822303B40BB4202D0002B4F
:103510007FF474AF520030F8123040F60F773B4022
:1035200048F2B007CFF6FF773B43103320F8123054
:1035300064E700BFBBF804500BF10606A9F8085079
:1035400009F10C09033F032C0ED3083EA9F1100525
:1035500036F8084F043F25F8104F7488AC80B488C3
:103560002C81F488AC81F3D10BEB030600244E616F
:10357000924588BFAAEB03040C62B0F8502088BFC4
:103580009A4608EB02031FFA8AF2A3F80CA4CAB108
:103590004989013200EB41014FF0FF33C2F341048E
:1035A00001F5806103EB5203002C4FEA52026ED00A
:1035B00036F8027B0D46012C25F8047B06D1013A32
:1035C000294664E040F63F7123E700BF36F8025B0E
:1035D000022C8D8056D10831023A58E0BBF80450D5
:1035E0000BF10606A9F8085009F10C09033F032C5A
:1035F0000ED3083EA9F1100536F8084F043F25F810
:10360000104F7488AC80B4882C81F488AC81F3D1DD
:103610000BEB030600244E61924588BFAAEB03041E
:103620000C62B0F8502088BF9A4608EB02031FFADC
:103630008AF2A3F804A4CAB10989013200EB41015E
:103640004FF0FF33C2F3410401F5806103EB5203F5
:103650004FEA5202CCB336F8027B0D46012C25F816
:10366000047B07D1013A29462FE000BF40F63F71A5
:10367000CFE600BF36F8025B022C8D8020D10831E6
:10368000023A22E036F8024B033A0C810C31032B4C
:1036900002D240F63F71BCE6A6F10803A1F1100486
:1036A00033F8081F043A24F8101F5988A18099881C
:1036B0002181D988A18140F63F71F1D1A9E600BFEF
:1036C00036F8024B033A0C810C31032B02D240F640
:1036D0003F719EE6A6F10803A1F1100433F8081F1C
:1036E000043A24F8101F5988A18099882181D9882B
:1036F000A18140F63F71F1D18BE600000146002028
:10370000A1F844004FF43F420020A1F84020704748
:1037100040F22870C2F20000FDF794B8B0F84400FF
:103720007047000070B500EB4200022B00F580648A
:1037300041D34FF0FF32C3F34105580802EB530C5D
:1037400055B1224632F8046B8E46012D2EF8026BDD
:1037500008D1013817E000BF2246BCF1030F144620
:103760002AD315E0A288022D4A8005D101F1040E6A
:1037700004F10802023806E0228901F1060E8A806F
:1037800004F10C0203387146BCF1030F144613D345
:1037900032F8106B043821F8086B32F80C6C21F801
:1037A000066C32F8086C21F8046C32F8046C21F8CD
:1037B000026CEDD114468E46D8071CBF20888EF8C7
:1037C000000070BD00207047002904BF8021A0F8D0
:1037D0004C10002070470000B0B5002B3ED000EB2D
:1037E000420000F5806E581C4FF0FF32C0F34103D9
:1037F00002EB500C4FEA5000EBB10A4632F8025B84
:103800007446012B24F8045B04D101381146A64606
:1038100011E000BF4A88022BAEF8042004D10EF15B
:10382000080E0431023806E08A880631AEF8082016
:103830000EF10C0E0338BCF1030F38BFB0BD0839D0
:10384000AEF1100231F8083F043822F8103F4B88DF
:1038500093808B881381CB889381F3D1B0BD000016
:10386000FEE7000094B0FCF717FE00240120CDE92C
:103870000F44CDE90D440A900E904FF480104FF4A0
:103880008031022513900AA8CDE90244CDE90B143A
:10389000CDE91151FDF704FF20B1EFF3108072B6AE
:1038A000FEE700BF0F20CDE905054FF48060CDE9AC
:1038B000080405A801210794FDF712FE20B1EFF3DB
:1038C000108072B6FEE700BF102001904FF4800018
:1038D000049001A8FDF77EFD20B1EFF3108072B6D1
:1038E000FEE700BF41F21800C4F20200016841F097
:1038F00020010160016801F020010A910A99016824
:1039000041F004010160006800F004000A900A9888
:10391000FEF7B8F84FF47A70FCF796FDFAE700006E
:10392000000000000000010203040607080901026C
:1039300002030405060708090A0B0C0D0E0F1010F0
:10394000603900080000002068010000280100081C
:10395000183A000868010020B80E00008401000831
:103960003201321012061009FF0901A101090115E7
:103970001326FF9F9540750881020D249102C01304
:10398000791E1B08B9041AC9041AE90413211F1B64
:10399000084D081A8904111324F413DD1B1B084574
:1039A000041B791C10311A7D0C1A11041A2104C150
:1039B0001ABD101AAD041ACD041A9D041409022967
:1039C00013010125C0320904330203150921110135
:1039D000140122221607058103402D050705010762
:1039E000291A092A2C691A31130A0632022A40F0D0
:1039F000092A4419B91C208D02E419041A91044BB8
:103A000012014815111150571D02010203512E04D5
:083A10000309041A47011B0021
:04000005080000ED02
:00000001FF
